:10000000E02D002069020000650200006702000088
:1000100000000000000000000000000000000000E0
:100020000000000000000000000000006502000069
:100030000000000000000000650200005D020000FA
:100040006502000065020000650200006502000014
:100050006502000065020000650200006502000004
:1000600065020000650200006502000065020000F4
:1000700065020000650200006502000065020000E4
:1000800065020000650200006502000065020000D4
:1000900065020000650200006502000065020000C4
:1000A00065020000650200006502000065020000B4
:1000B00000000000074B1A7DD207FCD52022FF323A
:1000C0001A83054A4008D8611A801A7DD207FCD5E8
:1000D0007047C0460040004102A5FFFF70B5802573
:1000E0000400ED02AC4200D370BD20000134FFF7E4
:1000F000E1FFFF34F6E7002330B59A4200D130BD6E
:100100009C000D5901330551F7E70000F0B580253B
:10011000104C114E6368114FAB436360002A00D14D
:10012000F0BD1300102A00D91023D21A2680257D95
:10013000ED07FCD59B009C460023CD58C5500433E9
:100140006345FAD1C018C9182780237DDB07FCD589
:10015000E4E7C0460040004144A5FFFF04A5FFFFBF
:10016000802270B5002304000D005200E958E058C9
:10017000814203D104339342F8D170BD2000FFF7D0
:1001800099FF402229002000FFF7C0FFF5E700009B
:1001900010230249CA681A42FCD070470008004088
:1001A0001E2270B52149224C4B6893431C3A1343DD
:1001B0004B60A284FFF7ECFF1E4B1B689B0E3F2B8E
:1001C00000D1203B00251C4A9B0213431B4AE262DC
:1001D000A362A584FFF7DCFF194BA384FFF7D8FFC8
:1001E0000223A28C1343A384FFF7D2FF154B9D601B
:1001F0005A7852B2002AFBDB134A5A605A7852B23C
:10020000002AFBDBC021114A114B12485360036ADC
:1002100009061B021B0A0B4303620023936007338A
:10022000136030220C4B1A6070BDC0460040004184
:100230000008004024608000FF01000080BB0A1C11
:1002400024050000000C00400007030010E000E05F
:10025000E703000000ED00E00000002010B500F012
:1002600007F910BDFEE7FEE72449254870B5814235
:100270000AD0244BC41E0022A34203D303331A1A0C
:100280009208920001F058FC1F48204BC11E00222A
:10029000994203D803331A1A92089200002101F000
:1002A00054FCFF221A4B032193431A4A0C259360F6
:1002B000022208243026184B18485A62C3788B4310
:1002C0001343C370C378AB432343C370144B987B71
:1002D000B0430600202030439873987BA843044322
:1002E0009C73987B884302439A7380230D4A51681C
:1002F0000B43536000F07AFEFEE7C0466C1D000021
:1003000000000020D0010020D0010020DC0D0020E2
:100310000000000000ED00E0FC70004100500041D2
:100320000048004100400041F7B5134D01906B8833
:10033000002B18D1082738001A0292B214B2A44632
:1003400066465400A2B2002E02DA0C4A5440A2B211
:10035000013880B20028F1D158002A52802201339E
:1003600052009342E7D1019A0B0A53405800285A91
:100370000902484080B2FEBDD001002021100000DB
:10038000074B1B685843074B1A789523002A00D166
:100390001233012243439A4200D370470132FAE7F5
:1003A00000000020D003002070B505001C240020B0
:1003B0000F260B00E3403340002A09D1002B07D160
:1003C000002C0BD0002809D1043C231DF1D170BDB5
:1003D000092B03DD37332B540130F5E73033FAE7CF
:1003E000054B064A1A60BFF34F8F054B054ADA608A
:1003F000BFF34F8FFEE7C046FC7F0020EF6926F079
:1004000000ED00E00400FA0510B50B4A1368002B5C
:100410000ED10A4911600A490A6801320A60094985
:100420000868002806D0824204D30B60FFF7D8FF8B
:10043000013B136010BDC046E4030020DC05000052
:10044000E0030020D8030020054B064A1A60BFF3E2
:100450004F8F054B054ADA60BFF34F8FFEE7C0466A
:10046000FC7F0020EF6916F000ED00E00400FA05C3
:10047000012210B5194B1A491A701A4A1368013330
:1004800013600A68002A0CD017481018834203D161
:1004900080241648E4050460934201D100230B60D8
:1004A00010BD1348DBB20278002B10D180210F4B16
:1004B000C905196011000A39C9B20E4BF02902D9D9
:1004C0001978494219701B78D2180270E8E79342F4
:1004D000E6D18022084BD2051A60E1E7D003002064
:1004E000DC030020D403002018FCFFFF98440041E7
:1004F000050000200400002094440041074B084AF6
:100500001B681168994207D2FA21C9005B18136071
:100510008022044BD2051A607047C046D4030020E5
:10052000DC03002094440041044B80221900D205D2
:10053000883198330A601A607047C0460044004111
:1005400070470000202370B5354A0F20D1690B4356
:10055000D361012233490B7813430B70324B197866
:100560008143197006211C78214319702F490C789A
:1005700022430A701A7802401A70602219780A43DE
:100580001A702B4A2B4B53805378DB09FCD1012284
:10059000294B19780A431A709A78D207FCD41F2085
:1005A00026490A68520B0240824200D105221C8D66
:1005B000234D024092012C4022431A850A68920C76
:1005C00002401F2A00D1023A1F24188D2240A04366
:1005D000024307201A850A68D20D0240824200D1E8
:1005E0000322198D02401748120301400A437F215C
:1005F0001A851A7814480A401A70042219780A4396
:100600000C211A7058621A898A431A811A890B3987
:100610008A431A8180220021520001F096FA70BDAF
:1006200000040040584400413C440041594400410A
:10063000000C004006400000005000412460800093
:100640003FF8FFFFFF8FFFFF74060020F7B51C0087
:10065000314B06005B6A0F0015000193002C05D199
:10066000443454432D4BE418FFF7CEFE63782278D0
:10067000934210D2D51ABD4200D93D00002E08D0B9
:10068000211DC9182A00300001F056FA63785B1961
:1006900063702800FEBD019BA1786A01D318002970
:1006A00011D1211D196059681D48890B89035960B2
:1006B0005968014059601B49551840212879014368
:1006C00029710121A1701449002551180191164981
:1006D0005218127AD207DCD55D68A278EDB2257087
:1006E000022A04D12A001968201D01F025FABD4212
:1006F00000D93D00002E0CD02A0030006570211D6D
:1007000001F01AFA0122019BFF331A720023A37031
:10071000BFE76670F6E7C046005000413004002095
:10072000FF3F00F000510041FF50004110B5002391
:10073000FFF78CFF10BDF8B505000C0016001F0078
:10074000002C00D1F8BD210028003B003200FFF74B
:100750007DFF241A2D18F3E7F8B50D001F49560147
:100760004C6A3419002B1BD063695B005B08636122
:1007700020616369AA049B0B920C9B031343636182
:100780006369174A174813406361321802238021B6
:10079000160013729171327A1A42FCD02800F8BD0B
:1007A000012163695B005B0F03339940A94209D8BB
:1007B000043A531E9A416369D1075B005A080A4301
:1007C0006261D5E744275743074A0437BF18010041
:1007D0002A00380001F0B0F93800C9E700500041A4
:1007E000FF3F00F0FF5000413004002010B500230F
:1007F000FFF7B2FF10BD000010B5054A0B001188CD
:10080000994200D919000022FFF7F0FF10BDC04641
:100810007407002007B500216B460A00D81D01703F
:10082000FFF7E4FF07BD0000F0B5B94C9BB0FFF740
:10083000EBFDA38B08211A000A400392B54A0B4234
:100840002ED080234020A183A372C024093151708F
:1008500090715371B04BB14D5968A40529402143A3
:100860005960596929400C43AD495C6104311960F4
:10087000AC49AD4C196159680C4080218902214373
:1008800059605968890B8903596050710022A74B40
:100890001A70A64B1878431E9841C0B21BB0F0BD29
:1008A0001020137A0342F4D09D4D10726D899C483C
:1008B000AC46664680799E4D02909948984BC78811
:1008C000C0792E80402501909B889548994E0089DB
:1008D0005571B34200D1B0E136DC81246400A342FB
:1008E00000D1BFE115DC822B00D190E106DC803B1A
:1008F000012B00D886E120239371CAE780214900AB
:100900008B42F8D00221FF318B42F4D1FFF782FFF6
:10091000BFE7B02189008B4200D16DE10EDC0139C7
:10092000FF398B42E7D0A23B8349FF3B0B42E2D128
:10093000002308210893099308A8C4E0C021890076
:100940008B42D8D07D49DFE77D488342DED000DD91
:1009500096E07C498B4212DC01398B4200DBACE033
:1009600079498B42E4D06031FF318B42C3D1FFF72C
:1009700051FF80235B423B43DBB2A37289E78821AE
:100980006A4809018B4200D195E080318B42B2D197
:100990000770FFF73FFFA02303225B00E254C02251
:1009A0005D4B5E49586C92050840104358644620E0
:1009B000FF302554654830271864902040002754A4
:1009C000586B8026084010435863922040002654FC
:1009D0005F481863B02040002554586F084058679E
:1009E000B220400026543C307D3E2654FC388446DC
:1009F0009C44604606680E4016430660A626FF36F5
:100A0000A5551E005348A0363060C0267600A75575
:100A10001F0094373E6880200E4016433E60C22679
:100A20007600A0551E004C4F90363760E0264427D4
:100A30007600A7550436A555A055C01984469C4498
:100A4000604606680E4016430660D42084469C44E7
:100A5000604606680E4016430660F0268020760049
:100A6000A7550436A555A0551C00E4342068F4337E
:100A7000084010432060186801400A431A6008E7E4
:100A80003648834200D122E10ADC35498B4200D14D
:100A90003CE7344934480B40834200D136E72AE72B
:100AA00032498B4200D131E731498B4200D022E7F5
:100AB000002308A80380012105E080235B009F42FA
:100AC00004D112212B48FFF797FEE2E680239B001A
:100AD0009F4202D199212848F5E7019B032B78D149
:100AE000029B032B00D906E708AC48220021200016
:100AF00001F02BF8019B6370029B002B3ED1092271
:100B000004332370A270E37020002178DBE7C04635
:100B100000500041FF50004174060020FFFFFF8F8E
:100B2000E803002034040020FF3F00F02C040020E4
:100B30007407002002030000FFFE00000103000014
:100B40002109000081060000A1030000BC04002070
:100B5000780400208805002044050020A121000021
:100B600021200000FFFEFFFF210A000021220000DB
:100B7000A1FE0000981B00004400002004AE3200DB
:100B8000544B23CB23C200252F001B681360AB00FE
:100B9000514AF358D01919680122FFF705FC0135B5
:100BA0003F18042DF3D100234B4AD3554B4B4C4AED
:100BB0009B799B009D58280000F0CFFF2300013057
:100BC000400020702A7802330135002A9CD01A7028
:100BD000F8E7019B0F2B02D13921424873E7019BB3
:100BE000212B02D1092140486DE7019B222B00D027
:100BF00081E621213D4866E7072800D07BE6AA214F
:100C00003B4860E7039B08A8022103805BE708429A
:100C100000D070E60F235022034008335B011042DE
:100C200006D0344A9B189B799B06DB0F08A8EBE79C
:100C3000304A9B189B79DB06F7E70F24030023401B
:100C4000204200D157E60140394300D053E6294AFB
:100C500008335B019B18020602D520225A7155E623
:100C60001022FBE70F2403002340204200D142E67C
:100C70000140394300D03EE65B01020613D51E4910
:100C80001C4A9A185B182021D879084200D13DE609
:100C900059711B7A2B4200D138E613004022FF33F2
:100CA0001A723E3ADAE710201349124A9A185B1872
:100CB000D979014200D129E658711B7A01180B42FB
:100CC00000D123E61300FF3301221972C6E70B4857
:100CD000F9E6C046881B000050060020E80300200B
:100CE000D01B000008000020E0000020AC1B00002A
:100CF000F400002000500041FF500041EC000020B3
:100D000010B5FFF71FFC0022034B1A700223034AA1
:100D100011780B43137010BD2C04002000500041CB
:100D200010B50C000122FFF761FD200010BD10B5C9
:100D30000C000122FFF75AFD200010BD70B5040021
:100D40000D00FFF771FD03000020834204D0022252
:100D500029002000FFF7EAFC70BD70B505000C000B
:100D6000FFF762FD002807D000230222210028009F
:100D7000FFF7E1FC200070BD0400FBE730B5002365
:100D80002025934200DB30BD0C78002C03D00131CC
:100D9000C4540133F5E72C00FAE70000F8B58022CF
:100DA0000C00050000212000920000F0CEFE002D76
:100DB0000CD13E2220004A4900F0BEFEFF235522FE
:100DC0005B00E254474B9218E254F8BD7E2D23D8C5
:100DD0006E1E3E2E01D9403D2E00002E12D08025E1
:100DE0003302581C404EFF30ED001A1F591CAA4216
:100DF00003D2B3420ED08BB223800B000234814267
:100E0000F3D1E2E7F0230922FF212370601C00F0F8
:100E10009CFEE4E7354BEFE7822D31D87F2DD4D10E
:100E20002F490B2220002B31FFF7A8FF8027282312
:100E30002F4EE3727D3D3F03F0683B0020340028D5
:100E400002D000F08AFE03001A0A237762771A0C98
:100E50001B0EE3772B0A3100A277A5760B22E376EF
:100E60002000FFF78BFF67224D2301355242ADB2C0
:100E700022746374227663761036052DDCD1A4E7E4
:100E80002B00833B012B0CD8194A1B01D318DD68BA
:100E9000280000F062FE29000200200000F04CFE55
:100EA00093E78023853D2902DB02994200D38CE73A
:100EB000104B114A2360114B20006360FE235B003E
:100EC000E2508023DB00A361802380229B01A3608A
:100ED0000B4B52006561E1602261E3612030DDE788
:100EE000E01B0000FF01000003040000FFFF000002
:100EF000881C00005546320A306FB10A57515D9E7A
:100F0000882BED6870B516001D000A682F4B0C0089
:100F10009A4252D12E4B4A689A424ED1FE2252003A
:100F20002C4B8A589A4248D18B689A0403D52A4A96
:100F3000C969914241D1DB0712D4802322695B0049
:100F40009A420DD1E068C3B2002B09D1F822234B9D
:100F50009202C318934203D221002031FFF700F917
:100F6000002D2BD0A369002B28D029681C4A8B4266
:100F700006D0934201D8002901D001235B422B60A7
:100F80006369934219D8072201211A409140DB0876
:100F9000EB181A7AC8B2114204D1696802430131D0
:100FA0001A7269606A682B689A4206D3002E04D1CF
:100FB0000C4B1B681E330C4A136070BD002EFCD115
:100FC000084B1B682D33FF33F5E7C0465546320A00
:100FD00057515D9E306FB10A882BED6800E0FFFF2E
:100FE00063040000E0030020D8030020F8B5624D40
:100FF000AB68002B00D0FEE70221604B5A6B8A439E
:101000005A63DA681205FCD55D4A5A630222596BAD
:101010000A435A63DA689205FCD5DA685205FCD4B3
:1010200002215A6B8A435A63DA681205FCD50822FA
:10103000596B0A435A630222596B0A4351495A6356
:101040000B68013321D120224F4BFF32188B024312
:101050001A8358684D4A02435A604D4ADA614D4A34
:101060001A801A7DD207FCD54B4A1A801A7DD20706
:10107000FCD54A4A0A604A4A4A4911604A4A1A80DB
:101080001A7DD207FCD5FFF7DFF90023474A13701A
:10109000D379DB09FCD1FFF747FA454B1E68454B76
:1010A000F218F8239B029A4213D8434B434A19681B
:1010B000434C444B914232D11978434AC90702D478
:1010C000216891422BD0414B22601B68404A323349
:1010D0001360FFF765F8BFF35F8F62B6FFF710FE8E
:1010E0004020FFF72DFA80270A230126394DFF0102
:1010F0002B70FFF799FB384C00280AD02378DAB21E
:10110000002B05D1324B38001A60FFF719FA2E7008
:1011100026702378002B25D000F0D6FAFCE71B7848
:10112000DB07DA0F002B0DD00023802223602B4B2E
:10113000D2051A6080239B011A6882F30888AB608D
:101140003047C6E72168264B994201D12260C0E7AB
:1011500021681D4A9142E7D0FA2023604000FFF742
:101160000FF9E1E72378002BC3D1FF33C046013BE1
:10117000002BFBD1BDE7C04600ED00E000080040B9
:10118000040027000040800000400041800004006F
:101190000020400005A5FFFF44A5FFFFFAC7E0D8E7
:1011A000044080005DFCFFFF06A5FFFF001000402B
:1011B0000420000000E0FFFFB42000007CB0EE87B8
:1011C000FC7F002038040040EF6926F0E003002097
:1011D000D80300200400002076070020944400413A
:1011E000EF6916F010B5054C12220021200000F026
:1011F000ACFCF0232370E63BE37110BDB309002083
:1012000010B5FFF7EFFF0022014B1A7310BDC04667
:101210009E010020F7B580270400160000250191EB
:10122000BF00A368AB4200D8F7BD3900A278019B8C
:10123000E068FFF780FA80235B01E81801223300A1
:10124000E168FFF75FFE0135EBE770B513000600BC
:101250000C00150000200A000121FFF7F7F9002318
:10126000984206D02B0022001F213000FFF7EEF934
:101270000123180070BD000010B504220D210248A2
:10128000FFF7B4FA10BDC0469E01002010B50B4C0C
:101290000B4861792379A27909021943E379120491
:1012A00011431B060B431A0A037142711A0C1B0EE1
:1012B0008271C371FFF7E0FF10BDC04694090020A2
:1012C0009E01002070B504220D00FFF78FFA154C27
:1012D00085420FD0FFF786FF012304222373124BB0
:1012E0009A700022DA701A715A719A711A735A73CD
:1012F000FFF7CCFFFFF784FF637A217A1B020B43D1
:10130000A17AE27A0904120619431143491B0B0A18
:10131000217263720B0C090EA372E172FFF7B6FF24
:1013200070BDC0469E010020B309002070B5184C66
:10133000142205000021200000F007FC154A002DB2
:101340001FD021000823D07D08313F26527C324037
:101350001C2A01D0B24205D10F4A0C330A80052263
:10136000DBB2CA70191C834200D9011CC9B2002D1E
:101370000BD0023B9BB21B0223802000FFF7A2FF91
:1013800070BD0423D07C211DDFE7013B2370F4E70F
:1013900078090020940900201C0A0000F0B5040020
:1013A00000252A4B85B0597C03AAD170997C917095
:1013B000D97C5170197D1170997D02AAD170DB7DA5
:1013C000937053880193019BAB4205D8FFF718FF38
:1013D000FFF75CFF05B0F0BDFFF726FA0028F9D053
:1013E000039B1B4FEE18002C1FD039003000FFF775
:1013F000D5FC8021042238008900FFF7F7F9154A4F
:101400000135507A137A917A00021843D37A09048D
:1014100008431B06104903435B18190A13725172E3
:10142000190C1B0E9172D372CDE780212300380076
:1014300005228900FFF77FF9220039003000074BB1
:10144000FFF760FDFFF75AF8D9E7C046940900207E
:10145000780700209E01002000FEFFFFC809002041
:101460007FB500F02FFB444E002205213000FFF72E
:10147000ECFE002849D0737A327AB57A1B021A43FF
:10148000F37A2D041B0615433C4C1D432B0A637253
:101490002B0CA3722B0E2572E372F07B2F2827D81A
:1014A000192815D8032827D012282FD0002840D07B
:1014B000FFF798FE012305222373314B9A70002217
:1014C000DA701A715A719A711A7320325A7332E0B3
:1014D0001A381528ECD800F01BFB282CEBEB2CEB72
:1014E000EBEBEB3FEB31EBEB39EB3DEBEBEBEB2CD1
:1014F0005A28DDD1012019E0F37C191C122B00D9E8
:1015000012211F48C9B2FFF7DDFE7FBD1D4C1E49E9
:10151000200018220830FFF731FCF37C191C242B23
:1015200000D924212000C9B2EDE70020FFF7FEFE1C
:10153000EBE7FFF765FEFFF7A9FEE6E78023134818
:101540009B024360124B08210360DCE70120FFF798
:1015500025FFDAE70020FAE70C260E49320001A841
:1015600000F0EAFAB54204D9002326726372A3722E
:10157000E3720C2101A8C6E7940900209E01002017
:10158000B3090020AC010020721B00008C09002070
:1015900000003E7F231D000072B6BFF35F8F044B37
:1015A000044A9A829A830022034B9A607047C0468D
:1015B00000500041FF03000000ED00E0F0B5C5B0B1
:1015C0000DAF0400FFF7E8FF44220021380000F0CF
:1015D000BCFA982200211EA800F0B7FA02230F21BE
:1015E000BB70A37862780B40A370264B0A4005932A
:1015F000636805AD06930023E16807932248627093
:101600002B7301221EABFFF77DFC390020001EAAC0
:10161000FFF700FE280001230D216278FFF79CF8F8
:10162000002505AE3A003000A178FFF70EFE002835
:101630001ED0144B01AD0193069B6B60079BAB6002
:1016400000232B73F37B002BE4D02A2B17D16B469E
:10165000B27D3900DA70F27D20009A705E881EAA91
:10166000A660FFF7D7FDAB6876029E1BAE60D1E7A0
:10167000064B9D4201D9FEF7B3FE0135D1E7FEF7D7
:10168000E3FEC7E753425355FF0F0000F824010063
:1016900030B5EFF30883054C2360036883F30888B3
:1016A0004568A847236883F3088830BDC00A002036
:1016B00007B5010001226846FEF776FE082168465C
:1016C000FFF72EFB07BD0000F8B500237A227F4C00
:1016D00023607F4B1A70FFF7C3FE7E4D4021280028
:1016E000FFF72CFB7C4B186000232B54984201D051
:1016F000FEF704FF0022794B1D60794B1A60784891
:10170000754B02681F68BA42E5D2744E31680B7897
:10171000FF2B37D0734D232B00D0B4E06C4B1B78DC
:10172000532B34D12B680132013102603160BA1A77
:101730009A4200D91A006C4D20682A6000F0FCF92A
:10174000674829680368654ACB18013B0360106845
:101750004B1EC3181360FF23644D29701940614B61
:101760001B688B4203D92068591AFFF7F6FAC04666
:101770007A22574B1A7000225A4B1A60574A136844
:1017800001331360564A136801331360B7E7522BD5
:1017900004D129682068FFF7CAFAE9E74F2B03D183
:1017A0002B6822681370E3E7482B03D12B6822686B
:1017B0001380DDE7572B0AD14D4B22689A4202D1A4
:1017C0000020FEF7BDFE23682A681A60D0E76F2B61
:1017D00004D101212068FFF7A3FAC9E7682B05D1DE
:1017E000022123681B882B602800F4E7772B04D1A3
:1017F000236804211B682B60F6E7472B09D1286872
:10180000FFF746FF3B4B1B78002BB1D001213A4834
:10181000E1E7542BACD04E2BAAD0562B02D12A2173
:101820003648D8E7582B05D12868FEF757FC032126
:101830003348D0E7592B0DD12A682068314B002A54
:1018400003D1186003213048C5E719689208FEF7F4
:101850005DFCF7E75A2B8BD12F6800252668F71916
:10186000B74209D101212948FFF75AFA2800FFF7AA
:101870001FFF03212648AEE729003078FEF754FD0C
:1018800001360500ECE71A00303AD1B2092904D834
:101890002B681B0113432B6070E71A00413A052A9D
:1018A00003D82A68373B1201F4E71A00613A052A87
:1018B00003D82A68573B1201ECE72C2B03D12B6885
:1018C00023600023E7E7024A1370FAE7BC0A00200E
:1018D000610A0020680A0020B40A0020B80A00202B
:1018E000AC0A0020640A0020C80A0020B00A0020C8
:1018F0000CED00E0600A00202F1D00003F1D0000DD
:10190000311D0000C40A0020351D0000391D0000F3
:101910003B1D00000300F7B5473304001A7840214F
:1019200003000020FEF792FE002801D10020FEBD3A
:1019300000232370237901930423E356002BF5DB66
:101940003F262000019FA51DEB8F37404830C0186F
:101950003A00611D00F0F0F8E88F019BC01980B2D9
:10196000B34301D1E887E1E70023EB87DFE7F0B578
:1019700006000C001F0093B001923F25AC4203DC2F
:101980002500002F00D140373B0002AA2B431370E3
:1019900002AB31002A00581C00F0CEF86B46402103
:1019A0001A7902A80123FEF7D7FE7619641BE4D149
:1019B00013B0F0BD030010B547331A78043100238B
:1019C0004830FFF7D4FF10BDF7B50400FFF7A2FFC2
:1019D000002842D0230048339A88A06C1A80002245
:1019E00001385A80082865D800F09CF8150523278F
:1019F000252A483F3800314E300000F0AEF805008F
:101A0000200031002A004C3000F096F82900200018
:101A1000FFF7D0FF21E00123E364FF332365802338
:101A2000DB006365A0235B00A365254B1421E36500
:101A3000EDE7FEF7D5FC0021E9E7FEF705FDFAE743
:101A400020000021FFF7B6FF8023206D9B01984204
:101A500003D321005431FEF783FBF7BD2100626DF3
:101A6000206D5831FEF747FBE5E72000656D216DDD
:101A70002A004C30FEF73FFBA900C8E70026636D43
:101A8000276D0193019BB34201DC5900BFE73D0084
:101A900000212B001878FEF747FC7B1C0135FF3333
:101AA00001009D42F5D1230072004C332F00985263
:101AB0000136E7E701225A80BDE7C046B81C0000A6
:101AC000882BED6807480622030010B547331A70CB
:101AD000FFF77AFF04480722030047331A70FFF725
:101AE00073FF10BDCC0A0020540C002010B5E2B0EA
:101AF0000400FFF751FDC42200216846520000F0A7
:101B000024F847236B441C706846FFF75DFFFBE732
:101B100002B4714649084900095649008E4402BC86
:101B20007047C04602B4714649084900095C490043
:101B30008E4402BC7047C046002310B59A4200D1C3
:101B400010BDCC5CC4540133F8E703008218934203
:101B500000D1704719700133F9E70023C25C0133EB
:101B6000002AFBD1581E70474D6963726F63686924
:101B7000700053414D4432312058706C61696E657C
:101B8000642050726F0000000CA0800040A0800014
:101B900044A0800048A0800012011002EF02014022
:101BA000D804022401420102030100000697FF0944
:101BB00001A101150026FF00750895400901810269
:101BC00095400901910295010901B102C000000090
:101BD00000000000681B0000721B0000500600207F
:101BE000EB3C905546322055463220000201010060
:101BF0000240007E3EF83F000100010000000000AE
:101C0000000000008000294200420053414D443250
:101C10003158504C000046415431362020203C21A0
:101C2000646F63747970652068746D6C3E0A3C68FB
:101C3000746D6C3E3C626F64793E3C736372697094
:101C4000743E0A6C6F636174696F6E2E7265706C9E
:101C5000616365282268747470733A2F2F777777E1
:101C60002E7078742E696F2F22293B0A3C2F7363E4
:101C7000726970743E3C2F626F64793E3C2F6874C9
:101C80006D6C3E0A00000000494E464F5F554632DB
:101C900054585400B81C0000494E44455820202098
:101CA00048544D001E1C000043555252454E5420CE
:101CB000554632000000000055463220426F6F74D6
:101CC0006C6F616465722076332E31362E302D3183
:101CD000352D6761613532623232205346485752A2
:101CE0004F0D0A4D6F64656C3A2053414D443231BB
:101CF0002058706C61696E65642050726F0D0A42E5
:101D00006F6172642D49443A2053414D4432314A47
:101D10003138412D58706C61696E65642D50726F59
:101D20000D0A000000000800003E800200020006CC
:101D300000580A0D00590A0D005A00230A0D0076BA
:101D4000312E31205B41726475696E6F3A58595A71
:101D50005D205365702032382032303234203135E6
:101D60003A35353A34340A0D000000000100000015
:101D700001C80000050F3900021810050038B60828
:101D800034A909A0478BFDA0768815B6650001012E
:101D9000001C100500DF60DDD88945C74C9CD2656A
:101DA0009D9E648A9F00000306AA000200000000B6
:101DB000090299000501008032080B0002020201AD
:101DC00000090400000102020100052400100104C2
:101DD00024020605240600010524010301070583EA
:101DE000030800FF09040100020A00000007058142
:101DF0000240000007050202400000090402000240
:101E0000080650000705840240000007050502404F
:101E10000000090403000203000000092100010082
:101E20000122210007058603400001070506034043
:101E300000010904040002FF2A010007058703408E
:101E4000000107050703400001000000090403002A
:101E5000020300000300000000C2010000000800AF
:101E60000A00000000000306AA00080002000400A7
:101E7000A0001400030057494E55534200000000D3
:101E80000000000000008400040007002A00440055
:101E90006500760069006300650049006E0074000B
:101EA0006500720066006100630065004700550030
:101EB000490044007300000050007B0039003200EC
:101EC0004300450036003400360032002D00390052
:101ED0004300370037002D0034003600460045002F
:101EE0002D0039003300330042002D003300310053
:101EF00043004200390043003500420042003300F5
:101F0000420039007D00000000005342535500009C
:101F1000000000000000000000800202200000001D
:101F200000000000000000000000000000000000B1
:101F30000000000000000000312E303000000000E2
:101F40000000000000000000000000000000000091
:101F50000000000000000000000000000000000081
:101F60000000000000000000000000000000000071
:101F70000000000000000000000000000000000061
:101F80000000000000000000000000000000000051
:101F90000000000000000000000000000000000041
:101FA0000000000000000000000000000000000031
:101FB0000000000000000000000000000000000021
:101FC0000000000000000000000000000000000011
:101FD0000000000000000000000000000000000001
:101FE00000000000000000000000000000000000F1
:101FF00000000000ED1A0000BD150000B81C000034
:00000001FF
