:020000040800F2
:10000000F8FF0420290102087BF6060869F60608B5
:100010007DF6060889F6060895F606080000000039
:10002000000000000000000000000000A1F606082B
:10003000A3F60608000000000907070841070708A3
:10004000010002088DF706089FF70608A5F70608C5
:100050007D7B07080100020821F7060827F706083C
:100060002DF7060833F7060839F706083D29070873
:100070004D2907085D2907086D2907087D2907080C
:100080008D2907089D2907080100020801000208C0
:10009000694B07086F4B0708754B07083FF70608C1
:1000A000B9F70608BFF70608D1F70608D7F706081C
:1000B000DDF70608E3F70608E9F70608010002087D
:1000C0000100020801000208010002080100020804
:1000D0000100020839F806083FF8060845F8060846
:1000E00063F7060893F70608B1F6060815F8060840
:1000F0001BF8060833F806082DF80608AD2907088E
:1001000001000208CD840708F1F706080100020883
:100110004BF8060851F8060809F806080FF8060813
:10012000BD290708CD290708DD290708ED2907089B
:10013000FD2907084160070899F706080100020831
:10014000010002080100020801000208A5F60608E5
:100150000D2A07081D2A07082D2A070857F8060840
:1001600069F806086FF80608010002080100020895
:10017000010002080100020801000208000000005E
:1001800001000208010002085DF8060863F806088D
:100190000100020801000208010002080100020833
:1001A0000100020801000208010002080100020823
:1001B00001000208010002080100020875F80608A3
:1001C0007BF806080100020842884378007843EA79
:1001D000022340EA032070470B0A017043700B0CA6
:1001E000090E8370C1707047036A0239023B8B426B
:1001F00083BFC389406B01FB03000020704700F1FF
:100200000B010022D30143EA520310F8012B52FAEA
:1002100083F38842DAB2F5D11046704737B50D4600
:10022000044620B9092000232B6003B030BD0368C9
:10023000002BF7D05A79002AF4D081885A8991424C
:10024000F0D118680DF10702062102F0EFFA9DF8CF
:10025000073003F00103034313F0FF00E2D12368EA
:10026000E2E738B50568044615F8010B20B140F205
:10027000B51144F05BFA08B1256038BD4FF0FF308E
:10028000FBE70328CA7E8B7E08BF487D43EA022332
:1002900002BF0A7D42EA002243EA02431846704741
:1002A000C2F307238A76CB760378032B01BF120CA7
:1002B0000A75120A4A75704737B5C37904461BB9E7
:1002C0000025284603B030BD00F13C01826B0123BC
:1002D0000068019102F095FA054680B9E36AE07181
:1002E000A06B626AC31A9342EAD2A3790199022BE6
:1002F000E6D102440123206802F083FAE1E70125F8
:10030000DFE738B5836B05460C468B4210D0FFF70C
:10031000D3FF60B92246012305F13C01286802F0B1
:1003200061FA00281CBF4FF0FF340120AC6338BDD8
:100330000020FCE738B500230546C3714FF0FF33BA
:100340008363FFF7DEFF044618BB95F83B2295F860
:100350003A3243EA02234AF6552293421BD195F8DA
:100360003C30EB2B03D01833DBB2012B15D8032222
:100370000B4905F1720063F0C3FA40B10522094947
:1003800005F18E0063F0BCFA002818BF0224204655
:1003900038BD0424FBE70324F9E70224F7E700BF94
:1003A00050BB080854BB08082DE9F047437986B0D4
:1003B000044601F0FE0593B10DF107020621006825
:1003C00002F034FA9DF80730DA0708D41DB113F0B3
:1003D000040500D00A25284606B0BDE8F0870023B2
:1003E0000DF1070205212068637102F01FFA9DF8E4
:1003F000073013F0010840F014810DB15B07E9D418
:1004000000212046FFF796FF022803D0012823D8B9
:10041000277987B302AD04F2022104F242272E4667
:1004200011F8040C10B10846FFF7CEFE103145F864
:10043000040B8F42F4D1257905B1013D56F82570A2
:100440007FB139462046FFF775FF23795BB9012854
:1004500011D90135032DF1D9042808D14FF0010835
:1004600007E00320F1E70428F8D0012803D94FF072
:100470000D084546AFE794F8482094F8473043EA22
:100480000223B3F5007FF2D194F8530094F8526040
:1004900056EA002604D104F16000FFF795FE0646F7
:1004A00094F84C5066626B1EA571012BDFD894F84E
:1004B00049904B46A4F80E90002BD8D009F1FF3399
:1004C00013EA090FD3D194F84E3094F84DA04AEABC
:1004D000032A1AF00F0F0FFA8AF1A4F80CA0C6D164
:1004E00094F8503094F84F0050EA032003D104F1FF
:1004F0005C00FFF769FE94F84BE094F84A3053EA49
:100500000E2EB4D006FB05FC0EEB1A12624482429A
:10051000ADD8801A4845B0FBF9F5A8D3464B9D42AB
:10052000A5D84FF6F5739D427DD94FF003090235EA
:100530000EEB07033A44B9F1030F2562A762E362A9
:1005400062635CD194F8672094F8663043EA022332
:100550000B431BB2002B8AD1AD0004F16800FFF7FA
:1005600033FE206305F2FF15B6EB552FFFF47FAF86
:100570004FF0FF33B9F1030FC4E905334FF08003A7
:1005800023722FD194F86D2094F86C3043EA022343
:10059000012B27D1791C2046FFF7B3FE10BB94F83E
:1005A0003B2294F83A32207243EA02234AF655225B
:1005B000934217D104F13C00FFF706FE1F4B98420F
:1005C00010D104F50870FFF7FFFD1D4B984209D1CB
:1005D00004F50970FFF7F8FDA06104F50A70FFF754
:1005E000F3FD6061174A84F80590138801339BB2CC
:1005F00013806381144B23610023E36139E7BAF16F
:10060000000F3FF434AF6344B9F1020F23634FEAA4
:1006100045031BBF5B1905F001051D4605EB53059E
:10062000A0E70325D7E640F6F5794D458CBF4FF09E
:1006300002094FF001097AE7F5FFFF0F52526141BD
:10064000727241612E4001203040012001292DE9C4
:10065000F04706460C46174674D9036A8B4271D997
:100660004379022B40D0032B51D0012B6AD101EBEF
:100670005108C16A01EB5821FFF743FE054640BB14
:1006800014F0010406F13C0908F1010AC8F3080856
:1006900008BFFBB230461FBF19F8083003F00F0245
:1006A0003B0103F0F00318BF134309F8083001239E
:1006B000F16AF37101EB5A21FFF723FE054640B9B9
:1006C000CAF3080A44B1C7F3071709F80A700123EF
:1006D000F3712846BDE8F08719F80A30C7F30327FD
:1006E00023F00F031F43F0E7C16A01EB1421FFF76A
:1006F00008FE05460028ECD1640006F13C0304F432
:10070000FF741F551819C7F307274770DFE7C16A41
:1007100001EBD411FFF7F5FD05460028D9D1A4005F
:1007200006F13C0327F0704704F4FE741C44204695
:10073000FFF74AFD00F0704047EA00012046FFF74E
:100740004BFDC4E70225C4E70129F8B505460C4670
:1007500052D9036A99424FD24379022B29D0032BF5
:1007600038D0012B48D101EB5106C16A01EB56216B
:10077000FFF7C7FD10B14FF0FF30F8BD771CC6F38F
:100780000806E96A28462E4401EB572196F83C609A
:10079000FFF7B7FD0028EED1C7F30807E3073D4494
:1007A00095F83C0046EA00204CBF0009C0F30B005E
:1007B000E3E7C16A01EB1421FFF7A3FD0028DAD1BA
:1007C00064003C3504F4FF742B19285D5B7840EA23
:1007D0000320D2E7C16A01EBD411FFF792FD002894
:1007E000C9D1A40005F13C0004F4FE742044FFF7D5
:1007F000EBFC20F07040C0E70120BEE7B1F5001F20
:10080000F8B506460C4601D30220F8BDCA06FBD156
:10081000826805680161CAB96B79022B01D92B6B1B
:100820009BB9AB89B3EB541FEED92B6BB361B369A2
:100830007261002BE8D003EB54233C35C4F3080469
:100840000020B3612C44F461DFE71A46EF897F0290
:10085000BC42114604D22846FFF7C6FCB061E6E769
:100860003068FFF771FF431C024606D00128CBD940
:100870002B6A8342C8D9E41BEAE70120C5E72DE9CA
:10088000F041804605680F4649B96E69C6B12B6ACA
:10089000B34298BF0126AB69A3B9002406E02846FD
:1008A000FFF752FF0128044603D801242046BDE883
:1008B000F081421C51D02B6A8342F7D83E46EAE7CA
:1008C0000126E8E7BE4215D12B6A741CD8F8000057
:1008D000A34298BF02242146FFF736FF0128E4D047
:1008E000431C3AD0D8B16B69012B03D92A6A9342D1
:1008F00038BF1E46344601342B6AA34202D8012E6B
:10090000CBD902242146D8F80000FFF71DFF40B1E3
:100910000128CAD0013020D0B442ECD1BDE7002C70
:10092000E8D04FF0FF3221462846FFF78FFE90B9FE
:1009300057B92A6AAB69023A6C61934210D92B7A93
:1009400043F001032B72B1E7224639462846FFF7F0
:100950007DFE0028EDD00128A7D14FF0FF34A5E798
:10096000013BAB61EBE773B50C46064611460568E3
:10097000012C2CD92B6AA34229D92AB14FF0FF327E
:100980002846FFF763FE40B9214630680194FFF71F
:10099000DBFE0199044610B9002002B070BD0128A9
:1009A00015D0431C15D000222846FFF74FFE002823
:1009B000F3D12A6AAB69911E8B4205D20133AB6138
:1009C0002B7A43F001032B72A242DDD8E4E7022028
:1009D000E3E70120E1E7F7B505460191FFF76CFC7D
:1009E000044600BB05F13C0701992846FFF7FCFBD4
:1009F0004FF400720646A8632146384662F06AFF4B
:100A0000EB899C4205D3E889001B18BF012003B085
:100A1000F0BD012332193946286801F0F2FE0028A2
:100A2000F1D10134ECE70120F1E72DE9F843076942
:100A30000446894606682037B7F5001F24BF002307
:100A40008361836973B1C7F30808B8F1000F39D126
:100A500001334169836139B9B389B3EB571F31D889
:100A60000023A36104200BE0F389013B13EA572321
:100A700028D13046FFF768FE0128054602D802203B
:100A8000BDE8F883421C01D10120F9E7336A8342B3
:100A900012D8B9F1000FE3D061692046FFF7EFFEED
:100AA0000546A8B10128EAD0431CEDD001463046E6
:100AB000FFF791FF0028E7D1294630466561FFF72F
:100AC00093FBA0613C36002027614644E661D7E7EE
:100AD0000720D5E7F8B50E46002104460768FFF762
:100AE0008DFEA8B90546A1693846FFF70AFC78B91A
:100AF000E3691B78E52B00D01BB90135B54201D164
:100B0000F8BD054601212046FFF78FFF0028EAD0F7
:100B1000042808BF0720F3E72DE9F84FFF27064612
:100B20008846D0F800903D4604244FF6FF7AB1691C
:100B300011B9002C73D063E04846FFF7E2FB04468E
:100B400000285DD1F0690378002B70D0C27AE52BC4
:100B500002F03F02B27158D02E2B56D022F0200165
:100B6000A1F1080CDCF1000141EB0C0141454CD135
:100B70000F2A4FD15C0646D5326903F0BF03477B8D
:100B8000F262427BBA4240D1C17E827E42EA0122B9
:100B900011B2002A39D102780D24D9F810504FF043
:100BA000010C22F04002DFF88CE0013A62431EF8AB
:100BB000014B00EB040B045D9BF801B044EA0B24ED
:100BC000BCF1000F23D0FF2A1FD825F81240A446FD
:100BD000013201310D29EAD10178490607D5BCF16E
:100BE000000F04D0FF2A10D8002125F812105D1E36
:100BF000EDB200213046FFF718FF0446002896D0DA
:100C00000023B3610CE09D42BBD0FF25F1E75445C2
:100C1000DFD0FAE73DB9FFF7F2FAB84203D100247A
:100C20002046BDE8F88F4FF0FF33F362F8E7042465
:100C3000E6E700BF1EBC0808C16A4B1C2DE9F04165
:100C400004460568066918D1E5274FF00108A16937
:100C50002846FFF756FB60B9E3691F7085F80780E7
:100C60002369B3420DD201462046FFF7DEFE00287D
:100C7000EDD0042808BF022003E0FFF7BFFD0028E5
:100C8000E2D0BDE8F08100002DE9F04F002185B0F1
:100C90000446D0F800A0FFF7B1FD0746002840F059
:100CA00092804FF0FF094FF0FF33C846E362009394
:100CB000A1695046FFF725FB0746002840F08380D6
:100CC000E5692E78002E00F08280EA7AE52E02F0A7
:100CD0003F03A37103D0100704D50F2B04D0009B52
:100CE000E36253E00F2B59D194F82B30590643D4CB
:100CF000720649D5236906F0BF0695F80D90E362A8
:100D00006B7B4B4542D1EA7EAB7E53EA02233DD159
:100D10002F780122DAF810B007F03F077B1E0D276D
:100D20005F432C4B13F8011B681815F801804078BD
:100D300048EA00286AB3FF2F039327D8404643F0C0
:100D400009FD791C02903BF81700019143F002FD68
:100D5000029A82421AD101994246039B0F461E49CC
:100D60009942DFD12B785B0603D512B13BF81730DF
:100D700063B9013E5FFA86F800212046FFF755FE71
:100D80000746002894D01EE0B045B9D04FF0FF08C8
:100D9000F2E74FF6FF718845E1D0F7E7B8F1000FB1
:100DA00004D12846FFF72BFA48450CD094F82B7055
:100DB00017F0010793D10B2204F12001284662F0BD
:100DC0009FFD00288BD1384605B0BDE8F08F042781
:100DD000F9E700BF1EBC08082BBC08082DE9F04F3E
:100DE00090F82BB089B005461BF0A00440F0E180DC
:100DF00007683A6932F81430002B6BD105F12006F0
:100E00000DF1140A1BF0010F96E807008AE80700AD
:100E100000F0D68040234FF0010885F82B30B4460F
:100E20003B69B8F1050F9AE80700ACE803002CF81D
:100E3000022B4FEA12428CF800205ED9981E4246DF
:100E400030F8021F002947D10DF1130C072102F0E1
:100E50000F0E01390EF13000392888BF0EF137002E
:100E60000F2A0CF801094FEA121048D808AB7E206F
:100E70005A1802F8140C05F11F0000228446914212
:100E800006D01CF801EF02F10109BEF1200F38D1A4
:100E9000072902F1010297BF08AB4FF0200C03EBCA
:100EA000010C013198BF1CF814CC072A00F802C0CD
:100EB000EED92846FFF7E8FE814600287CD108F1EC
:100EC0000108B8F1640FAAD14FF00709484609B0EC
:100ED000BDE8F08F01348DE74FF0100C01F0010EEA
:100EE00049080EEB4202D30344BF82F4883282F0F9
:100EF0002102BCF1010CF1D1A2E74246A4E702466F
:100F0000A5E74A46BBE729692846A1EB4411FFF74C
:100F100075FC81460028D9D14FF6FF783046FFF79F
:100F20006EF90190A9693846FFF7EBF98146002870
:100F3000CCD1EB69E1B2019A4FF00D0CD7F810E07B
:100F40005A734FF00F02DFF8DCA0DA724A1E1873F2
:100F50000CFB02F284469876D87640451AF8019B3D
:100F60000CF1010C18BF3EF8120003EB090B18BF7F
:100F7000013203F809004FEA1029002808BF404653
:100F8000BCF10D0F8BF80190E7D1404502D03EF83F
:100F900012200AB941F040011970012300212846AE
:100FA000FB71FFF742FD814600288FD1013CB9D18A
:100FB0001AE04FF0060989E7042887D185F82BB09D
:100FC0001BF0020F28461BBF0C340D210124B4FB7B
:100FD000F1F418BF01342146FFF77CFD814600285B
:100FE0007FF474AF013C8ED1A9693846FFF789F9C7
:100FF000814600287FF46AAF01462022E86962F04A
:1010000069FCEB6903CE18605960B27831889A7236
:10101000198195F82B30EA6903F018031373012343
:10102000FB7153E71EBC0808F8B50446FFF744F906
:101030000546002842D16379032B37D1277A012F47
:1010400034D104F13C0601464FF40072304662F0A0
:1010500041FC55234122722184F83A32AA2384F8B4
:101060003F2004F5097084F83B32522384F8222291
:1010700084F83C3084F83D30612384F8201284F8F1
:101080003E3084F8233284F82112A169FFF7A4F8D6
:10109000616904F50A70FFF79FF8A26A3B46314682
:1010A00001322068A26301F0ACFB257200222068A7
:1010B000114601F0BBFB003818BF0120F8BD2DE937
:1010C000F0470026D0F800A007460C468E758369CD
:1010D000002B00F09380C36A01336ED1F9690023BD
:1010E0002E264D1E184615F8012F0130202A0CD04F
:1010F000052A08BFE522092804D10B2B9EBFE7185B
:1011000001337E72E71801337A720B28EBD1E218B3
:1011100000205072A27D002A5FD1002B54D06FF0C6
:10112000080604F109020825361BB31812F8010B52
:1011300000284CD02E2883B262D0A3F14100192898
:1011400003D8087B054200D020331373EDE7B9F1D3
:10115000000F05D100F520539BB2B3F5006F13D3F8
:1011600040F2B51140EA094043F0C0FAFF28C8F147
:10117000FF051AD9012D23D904EB0803020AD875FB
:101180009A7502239844002002368146DAF810301E
:10119000985B0028DBD14546B9F1000F4FF0000302
:1011A00018BF00252544AB7598E758B1002DF3D042
:1011B00004EB080398750123E4E7B146B046E5E780
:1011C0000025E9E70546E7E73F23A375012323440C
:1011D00000229A750B7B03B96372CB7A01F11C0074
:1011E0002372FEF7F1FF2060CA7D8B7D43EA022364
:1011F000E3804A7E0B7E43EA0223A380BDE8F087AA
:101200001025A2E72DE9F04F0B7887B006468A46F5
:101210002F2BD0F800B001D05C2B09D152461378A7
:10122000924601322F2BFAD05C2BF8D0002301E03C
:10123000DBF81C30B3609AF800301F2B00F22881D5
:1012400080230021304686F82B30FFF7D7FA07B00D
:10125000BDE8F08FFE2D00F2448129F815300135EC
:101260001CE101320592059A11782F29F9D05C29E9
:10127000F7D0202BDDF814A034BF04240024012D66
:101280002CD1B9F800302E2B2ED1002306F12002EC
:1012900029F815309D428CBF2E21202101330B2BC4
:1012A00002F8011BF6D144F02004304686F82B40AA
:1012B000FFF7EAFC96F82B30002800F0D8800428CD
:1012C000C5D1990603F0040240F1CD80002A00F058
:1012D000DF808023002086F82B30B8E7022D03D171
:1012E000B9F802302E2BCCD0A9F1020285BB002325
:1012F00029F81530002D00F0F48039F81320194634
:101300000133202AF9D009B92E2A01D144F003046F
:10131000A9F1020232F815302E2B01D0013DF9D18E
:101320004FF020334FF00008736247463362C6F82F
:101330002730082339F811004A1CE8B1202803D0CF
:101340002E280DD1AA420FD044F003041146F1E734
:1013500032F81530202B01D02E2BC8D1013DC5E726
:10136000984504D2AA4233D10B2B2AD101E00B2B92
:1013700022D144F003040B2396F82020E52A04BF71
:10138000052286F82020082B04BFBF00FFB207F01B
:101390000C030C2B03D007F00303032B01D144F003
:1013A0000204A30781D4FD0748BF44F01004780766
:1013B00048BF44F0080478E7AA4202D044F003048E
:1013C000DAD8BF002A460B234FF00808FFB2BDE76A
:1013D0007F2813D940F2B511CDE9022344F002036E
:1013E000019343F083F910F0800FDDE9022310D060
:1013F00000F07F003D49085C019C30B1DFF8F4C08B
:101400001CF8011BE9B18142FAD144F003045F20CA
:1014100010E0FF28F0D9591E884503D344F0030497
:10142000984693E706EB0801040A08F1010881F8E1
:101430002040019C06EB080108F1010881F820001A
:1014400084E7A0F1410189B2192902D847F00207C7
:10145000F0E7A0F1610189B219299EBF203847F059
:10146000010780B2E6E7002A08BF0520EFE65A0729
:101470003FF5EDAEB379DB0635D533690BF13C01B1
:101480009BF80500C3F308031944FEF7FAFEB060A9
:1014900033680025CDF814A0D3F8109005A8FEF706
:1014A000E0FE421C1DD0B0F5803F24BF030C29F89C
:1014B000153083B228BF01351F2B7FF6DAAE2F2BF4
:1014C0003FF4D1AE5C2B3FF4CEAE7F2B3FF6C2AEE5
:1014D0001846074911F8012B002A3FF4BBAE82429F
:1014E000F8D10620B3E60520B1E600BF9EBB080890
:1014F0005ABB080863BB080800214171FEF754BFBE
:101500002DE9F04305468DB090461E460C46002955
:1015100000F0BB8003F03F073946FEF745FF002887
:1015200040F0AB80414668460095FFF76BFE0246EF
:1015300020B99DF92B30002BB8BF062216F01C0FE6
:101540006BD0002A3CD0042A37D16846FFF746FC0E
:10155000024690BB47F00807DDF81C90A8464946B4
:1015600018F8050FFEF78DFE064677F011FB0146D1
:1015700009F10E00FEF730FE079B20224046DA728A
:1015800000220799FEF78CFE079B00221A775A77F4
:101590009A77DA770123EB71DEB131466846D5F8E8
:1015A0003880FFF7E0F9024638B9013E4146284647
:1015B000FEF7A7FE6E61024658B10023236028E0C3
:1015C0009DF8063013F0110F31D1700757D4310751
:1015D000C2D4AB6B3907079E236248BF47F0400770
:1015E000314666626879FEF74CFE0146A06006F15E
:1015F0001C00FEF7E9FD6B89BA060646A3804FF092
:101600000003E060256027746374E361636110D4B4
:10161000002210460DB0BDE8F083002ACDD19DF820
:101620000630DA062DD4B607D3D5D807D1D5072290
:10163000C3E70028ECD0EF8960617F02B7420FD387
:101640000022A161002AB8D1C6F30803002BDFD025
:101650002846FEF7C9FDB0B100EB5620E061D8E79F
:101660002068F61BFFF770F80128014603D9431CD8
:10167000E4D10122E5E70222E3E702469DE70822E2
:101680009BE7042299E7022297E70922C1E72DE9A7
:10169000F04F994685B00023884603A90446C9F84F
:1016A00000301746FEF7BAFD0646F8B9667CEEB97B
:1016B00094F810A01AF0010300937BD0E2686369EC
:1016C000D21A974228BF174687B16269C2F308034E
:1016D000002B56D1039BDB89013B13EA522A15D11B
:1016E00042B9A06801280AD802266674304605B0BF
:1016F000BDE8F08FA1692068FFF726F8F2E7431CE8
:1017000003D10123009E6374F0E7A061DDF80CB003
:10171000A1695846FEF768FD0028E5D0B7F5007FBF
:101720000AEB00022CD3BBF80E100AEB57207D0AFF
:1017300001928842DBF8000088BFA1EB0A05414610
:101740002B4601F04FF80028DBD10399CB795BB130
:10175000886B019A801AA84206D24FF400723C317D
:1017600008EB402062F070F86D02D9F800307F1B62
:10177000A8442B44C9F8003063692B446361A3E794
:10178000E2616569E169C5F308050398C5F500756F
:10179000BD4228BF3D46FEF7B4FD0028B1D10399F4
:1017A0002A46636940463C31C3F30803194462F09A
:1017B0004BF8DAE7072699E72DE9F04F9A4685B00E
:1017C0000023894603A90446CAF800301746FEF7ED
:1017D00025FD064618BB667C0EBB237C9A0740F1AC
:1017E000A7806369FB4200D3DF43A7B16369C3F3FA
:1017F0000802002A7FD1039AB2F80E8008F1FF3860
:1018000018EA53281ED173B9A06870B90146204662
:10181000FFF735F848B9237C43F040032374304682
:1018200005B0BDE8F08FA169F1E7012802D10226D9
:101830006674F4E7431C01D10126F9E7A368A061AF
:1018400003B9A0600398E369826B9A4203D1FEF763
:1018500033FD0028F0D1039DA1692846FEF7C4FCA2
:101860000028E4D0B7F5007F08EB000B35D3E989F9
:1018700008EB57207B0A5A468842286888BFA1EBAC
:1018800008034946019300F0BCFF05460028D3D168
:10189000DDF80C80019BD8F83810A1EB0B019942C0
:1018A0000AD24FF4007209EB412108F13C0061F0CB
:1018B000CBFF019B88F807505D02DAF800307F1BF0
:1018C0006269A9442B441544CAF80030E368656195
:1018D000AB422CBFE360E56087E76169E36899424A
:1018E00007D32846FEF7E8FC0028A5D1039BC3F8E0
:1018F00038B0C4F81CB06569E169C5F30805039800
:10190000C5F50075BD4228BF3D46FEF7FAFC00282C
:1019100092D103982A46636949463C30C3F30803D1
:10192000184461F091FF039B4FF00102DA71C4E7A4
:10193000072674E7F7B501A90546FEF76FFC0446D4
:1019400068BB2C7C14F0400429D077F021F9296A77
:1019500007460198FEF7D5FC044600BB6E6AF37A91
:10196000314643F02003F3722868AA680530FEF779
:1019700097FCE96806F11C00FEF72EFC394606F1DB
:101980001600FEF729FC01230198B474F474C371A6
:10199000FFF74AFB2B7C044623F040032B742046C0
:1019A00003B0F0BD13B50446FFF7C4FF28B901A981
:1019B0002046FEF733FC00B9206002B010BD70B5C0
:1019C0000E468CB000210546FEF7EEFC044660B9D9
:1019D000314668460095FFF715FC044690B99DF91D
:1019E0002B30002B04DA029BEB6120460CB070BD5B
:1019F0009DF80630DB0609D507996879FEF741FCAA
:101A0000E861F2E7042808BF0524EEE70524ECE7C7
:101A10002DE9F0470E460021D2B081463170904644
:101A2000FEF7C2FC054608BBD9F81C304446CDF889
:101A300000900293DDF808A0BAF1000F1CD14445D4
:101A400004BF04F1FF342F23A4EB060108BF335574
:101A500033461A5D03F8012B5A189045F9D8A8EBC4
:101A600004030134A04538BF01231E440023284647
:101A7000337052B0BDE8F08720216846FEF7BEFE05
:101A800000284BD106994846FEF73BFC0746002844
:101A900042D1079999F80500FEF7F3FB3946029009
:101AA0006846FEF7ABFE002838D100216846FFF7F4
:101AB00033F80746B0BB079999F80500FEF7E1FB3C
:101AC00050450AD039466846FEF7AFFF0028ECD0F3
:101AD0000546042D08BF0225C8E70CA96846FFF794
:101AE000EEFA0DF1460212F8011B3B4601370029C0
:101AF000F9D1BC4214D331191A4632B9621ED21A36
:101B0000DB431C442F23B35494E7013A0CA8104440
:101B1000807D01F8010DF0E70546A7E70546A5E73A
:101B20001125A3E70546D4E72DE9F3410D4601A9A8
:101B30000446FEF773FB0646002850D1667C002E53
:101B40004DD1E368AB4204D2227C12F0020F08BFF1
:101B50001D460022636962619DB90020E2686369E5
:101B6000934284BF227CE360C3F3080384BF42F046
:101B700040022274002B32D0E369834218BFE06137
:101B80002DE0019AD7897F02FBB1013B6A1EB3FBAE
:101B9000F7F1B2FBF7F28A4217D37A42A1691340F8
:101BA000ED1A63610029D8D0BD42636922D8636908
:101BB0002B446361C5F30803002BCED00198FEF7D8
:101BC00013FB50B100EB5520C8E7A16881B920464E
:101BD000FEF755FE0128014605D1022666743046FF
:101BE00002B0BDE8F081481C01D10126F6E7A160F2
:101BF000A161D7E73B44A5EB07086361237C9A0703
:101C000006D52046FEF73BFE054628B90146CEE73D
:101C10002068FEF799FD05466B1CE6D0012DDCD946
:101C2000019B1B6AAB42D8D92946A5614546BBE753
:101C300070B5054616460C4621B30021FEF7B4FBED
:101C400068B9314620462560FFF7DCFAE0B994F91F
:101C50002B30002B0BDBA379DB0603D405200023FC
:101C600023600EE06879E169FEF70BFBA0606B89E9
:101C700000212046A380FEF7C1FD0428EED00028F5
:101C8000EDD170BD0920FCE70428E7D0E7E713B5E4
:101C900001A90446FEF7C2FA00B9206002B010BDE7
:101CA00073B50D4601A90446FEF7B8FA20B90146FE
:101CB00020461DB9FEF7A2FD02B070BDFEF72CFF55
:101CC00010F0FB06F8D129462046FFF7F8F9314617
:101CD0002046FEF7AAFE042808BF0020ECE770B5F6
:101CE00004468CB00E4600211546FEF75DFB0094BD
:101CF000044670B931466846FFF784FA044640B995
:101D00009DF92B30002B07DB1DB129466846FFF7F4
:101D1000D6F920460CB070BD0624FAE72DE9F84F3D
:101D2000884600210446FEF73FFB054640B9D4F83B
:101D300020A0A369AAF10202934204D8C8F8003097
:101D40002846BDE8F88F6379012B17D10227064694
:101D500039462046FEF7F8FC431C38D0012838D01D
:101D600000B901360137236ABB42F1D8C8F80060D8
:101D7000237AA66143F001032372E1E7E16A074693
:101D8000064604F13C0937B9204601F1010BFEF784
:101D9000B8FA00BB5946637909EB0700022B0DD155
:101DA00019F807300237427853EA022308BF013698
:101DB000BAF1010AC7F30807E5D1D7E7FEF704FA3D
:101DC00030F0704307F1040708BF0136F0E7012542
:101DD000CCE70225CAE70546C8E7F0B50E4699B03C
:101DE00002210546FEF7E0FA044688B93146684606
:101DF0000095FFF707FA044650B99DF82B30980676
:101E00003BD4190639D49DF80670FA0703D5072488
:101E1000204619B0F0BD07996879FEF732FAFB0643
:101E200006460BD46846FEF707FF04460028EFD1AC
:101E3000D6B92846FFF7F8F80446E9E7EB6983428C
:101E4000E5D021460E900CA80C95FEF7D7FC044671
:101E50000028DDD101460CA8FEF75EFE04460028EE
:101E6000D5D00428D4D1DDE7024631466846FEF7D6
:101E70007AFD04460028CBD1DBE70624C8E72DE92C
:101E8000F0430E4691B002210546FEF78DFA044656
:101E900000286CD1314604A80495FFF7B3F9044635
:101EA000002872D0042862D19DF83B1011F0200167
:101EB0006DD168460095FEF7E2FC064600285AD030
:101EC00001285AD0431C5C425C4176F061FE074613
:101ED000002C54D131462846FEF77DFD04460028EB
:101EE0004DD14FF0203305F13C0405F1050839468A
:101EF000EB6305F152002B64C5F843302E2385F8BF
:101F00003C30102385F84730FEF766F9324621460B
:101F10004046FEF7C5F905F15C031A4651F8040B7B
:101F2000994242F8040BF9D12E234FF00109069A89
:101F3000404685F85D30FEF7B3F904A885F80790B0
:101F4000FEF74CFF0446D0B90B9839461630FEF721
:101F500043F932460B994046FEF7A2F90B9B10223B
:101F60002846DA7285F80790FFF75EF804462046A7
:101F700011B0BDE8F0830724A7E70224A5E70022FB
:101F800031466846FEF7EFFCF1E70824EFE7062448
:101F9000EDE7F0B50D46A1B0022104461746FEF765
:101FA00003FA002878D1294608A80894FFF72AF9EF
:101FB000002871D19DF84B3013F0A00F6ED10F9B0C
:101FC0006D4603F120061868083353F8041C2A46AE
:101FD000B34203C21546F6D108AE14AD0FCE0FC5FD
:101FE0000FCE0FC596E80F0085E80F00394614A8FC
:101FF000FFF708F948B9169A0A9B9A4203D1189A32
:102000000C9B9A4203D0082046E0042844D114A82F
:10201000FEF7E4FE00283FD11B990DF10D030DF1F1
:102020001D0001F10D0253F8045B834242F8045B8A
:10203000F9D11888012510809B7893709DF80B309A
:10204000DA0658BF43F02003CB72E571CB7ADB068A
:102050001BD50A9A169B9A4217D06079FEF711F9A0
:1020600001462046FEF7C0F80146C8B12046FEF7FB
:1020700048F988B994F85D302E2B06D1169A04F1F0
:102080005C01601DFEF70CF9E57108A8FEF7D4FDB0
:1020900010B92046FEF7C8FF21B0F0BD0620FBE7CF
:1020A0000220F9E7F0B595B0064601910221FEF74E
:1020B0007BF90446002833D14FF0203302AF0546A8
:1020C00002937B60C7F80730019B1B781F2B20D839
:1020D0009DF80830E52B22D01DB16B1EFA5C202A3A
:1020E00035D0002108A808960A91FEF787FB044620
:1020F000B0B9012108A8FEF70FFD98BB0F9A45B3B0
:102100003B4603CB1060516019889B781181937214
:1021100021E001A8FEF7A5F8B0F5803F03D306241F
:10212000204615B0F0BD42F015FB40F2B51142F06B
:10213000DDFA0028F3D01D4A12F8013B13B1984292
:10214000FAD1ECE7FF2822D80A2D28D9E7E71D4667
:10215000C2E7E523137001233046F371FEF764FFF5
:102160000446DDE70428FBD1002DD9D0012108A8C1
:10217000FEF7B0FC04460028D2D1202201460F9879
:1021800061F0A8FB08220F9BDA720F9AB8E7092DBD
:10219000C5D814AB020A2B44013503F8482C14AB04
:1021A0002B44013503F8480C8EE700BF2BBC080810
:1021B0002DE9F04F1C4600238BB0D0F8008043710E
:1021C000154603790DF11F02029140460521019346
:1021D00000F02CFB9DF81F30DA0700F189825E07C2
:1021E00000F1888208AA0321404600F01FFB30B9A5
:1021F000089A531EB3F5004F01D21A4201D00123B1
:1022000008935DB1A5F500725B4B9A4203D9132088
:102210000BB0BDE8F08F6B1E2B42F8D1002C00F004
:102220006B82149BB3F5007FC0F06682019B002B8C
:1022300066D0012300222146404600F0D3FA08B1BF
:102240000120E5E794F8FF2194F8FE3143EA0223E8
:102250004AF65522934201D00E20D9E7019B04EBA8
:10226000031303F5D77193F8B231002BF4D001F1C9
:102270000800FDF7A9FF074601F10C00FDF7A4FFD8
:102280000990DDF824A0BAF1150FE5D9B5F5813F25
:10229000BDD2029B6A0A13F002030593029B42D04F
:1022A00003F00703022B00F03582029BD80740F1B0
:1022B0003182002A40D14FEA1A353048012630F8E1
:1022C000023B0BB1AB4235D9BAFBF6F540F6F573DC
:1022D0009D424FF0200394BF05EB45050235049362
:1022E0008BBF4FF0020901356D004FF001094FF02F
:1022F00001039CBF6D08033505F2FF156D0A2CE242
:1023000009AA0121404600F091FA002898D1029BC9
:1023100013F0080F099B14BF00273F27BB429BD334
:10232000DB1B0993ADE7D907C3D470E75200F8E18E
:102330001346FDE17600C2E71646C5E7B9F1020F84
:102340001ED14FF6F5700399814208D9002A40F05A
:10235000DD817600402E00F239823246A9E740F650
:10236000F5700399814213D8002A7FF475AF72008B
:10237000802A9ED970E700BF00FEFF003EBC08081F
:1023800040F6F572039991423FF666AF4FF00109AE
:102390004FF4007200212046059361F09BFAD74A62
:1023A000059BB9F1030F1168A373C3F307232160E1
:1023B0005168E3734FF0010361601189927A2181C2
:1023C0004FF00201A2724FF00002237414BF0B46BB
:1023D0001346BAF5803FE272217366736274A37488
:1023E00080F01D8184F813A0CAF3072A84F814A092
:1023F000F8234FF0000A394604F11C0063753F23AF
:1024000084F819A02376FF2384F81BA0A376FDF798
:10241000E3FEB9F1030F40F0088176F0B9FB014605
:1024200004F14300FDF7D8FE294604F12400FDF72E
:10243000D3FE022304F1470284F82DA084F82C3047
:10244000012384F82EA084F83030062384F82FA0CE
:1024500084F83230802384F831A084F84030292376
:1024600084F833A084F84230A54B03F1100153F8EF
:10247000040B8B4242F8040BF9D1198840469B7833
:102480001180214693704FF055033A4684F8FE318F
:102490006FF0550384F8FF31012300F0B2F9824652
:1024A00000287FF4CDAEB9F1030F3ED10123BA1D50
:1024B0002146404600F0A5F94FF4007251462046EF
:1024C00061F008FA522341227221237004F5F4705E
:1024D00063706123E270A37084F8E731039B84F892
:1024E000E41184F8E511591E84F8E621FDF774FE25
:1024F0000223FA1D214684F8EC314FF05503404683
:1025000084F8EDA184F8FE316FF0550384F8EEA154
:1025100084F8FF31012384F8EFA100F072F9012360
:1025200021464046FA1800F06CF9149B0021204621
:1025300023F4FF7222F0010261F0CCF9B9F1030F2C
:1025400040F09080F8232370FF236370A370E37042
:1025500023716371A371E37123726372A3720F23FA
:10256000E372149B5B0A0393039B21465A46404641
:10257000AB4228BF2B469A4600F043F9014600289B
:102580007FF45EAE4FF40072204661F0A3F9B5EB24
:102590000A05D344E8D1049BB9F1030F18BF1E46C6
:1025A000039B5A4621464046B34228BF33461D4648
:1025B00000F027F900287FF443AE761BAB44EFD13F
:1025C000B9F1030F58D0099BB3F5803F56D2B9F14A
:1025D000020F0CBF04250125019B002B50D00022C7
:1025E00001232146404600F0FDF8024600287FF412
:1025F00027AE019B04EB031383F8B251012321465C
:10260000404600F0FEF800287FF41AAE0022404653
:10261000114600F00BF9003818BF0120F8E55146CB
:1026200004F12000FDF7D8FDE2E676F0B1FA0146AC
:1026300004F12700FDF7D0FDC5F3072304F12B02B9
:10264000A575E375802384F82430292384F8263087
:102650002C4B03F1100153F8040B8B4242F8040B8E
:10266000F9D10AE7B9F1010F2749204618BF6FF0E9
:102670000701FDF7B1FD74E70C25ADE70625ABE7D3
:10268000029B1B07C2D44FF4007201992046012619
:1026900061F020F95523099A394684F8FE31AA23BE
:1026A0003A4404F5E37084F8FF31019B84F8BF617C
:1026B00084F8BE3184F8C13143F6C16384F8C06147
:1026C00084F8C251B2FBF3F2FE2384F8C52184F8EA
:1026D000C331930843F03F0384F8C431FDF77CFD18
:1026E000099904F5E570FDF777FD3346019A86E711
:1026F00003208DE50A208BE5112089E56ABB0808D7
:1027000076BB08088ABB0808F8FFFF00059B002B72
:102710003FF4A2AD002A7FF40BAE4FEA5A452F4892
:10272000012230F8023B1BB1AB427FF6FFAD002324
:102730002B4EBAFBF2F08500A0F57F40F63805F28B
:102740000725B0424FEA55253FF686AD16461A4694
:1027500000234FF0030904932023049807EB030B95
:10276000DDF820E0B9F1030F05EB000C0EF1FF30AE
:10277000CEF1000EDC44604400EA0E00A0EB0C0039
:1027800006BF1B1883442D18C7EB06108444E2458E
:10279000FFF462AD0498B9F1030FAAEB0000A0EBBF
:1027A0000300A0EB0500B0FBF6F003907FF4C6AD8C
:1027B0004FF6F570039981423FF6EAAD002A7FF4A7
:1027C0004BAD012E7FF648AD7208A3E7059B002BA9
:1027D000A3D1802E3FF640AD324675E54CBC0808CB
:1027E000FFFFFE0F10B50C4611461A4638B12346BE
:1027F000043041F0C3FB003818BF012010BD042095
:10280000FCE710B50C4611461A4650B12346043079
:1028100041F0D8FB10F11E0F05D0003818BF012081
:1028200010BD0420FCE70220FAE7000070B50D4659
:1028300014460646002833D001F00703234AD15C32
:1028400000292FD00022043041F0E4FB062D27D8C8
:10285000DFE805F008050A162619190006202BF0F6
:1028600003FB2060002070BD062805D14FF40073E3
:1028700023802388B360F5E72BF0F6FA2080F8E791
:1028800001232360EEE7062801D0430806D1336A0E
:10289000002B0CBF042300232370E3E70123FBE795
:1028A0000420E0E7062DFBD801A353F825F000BF74
:1028B000652800085D2800086D28000881280008A8
:1028C000A12800088F2800088F28000850BA08089F
:1028D00037B51D46043001AB1446FEF76DFF38B125
:1028E000064B1B5C4FF0FF342B60204603B030BD1D
:1028F000019BA342F9D01C23F4E700BF6CBA08087F
:1029000013B51C46043001ABFEF7C1FE30B1044BD9
:102910001B5C4FF0FF30236002B010BD0198FBE755
:102920006CBA080813B50446084601912BF0E0F98B
:10293000019B02460349204602B0BDE8104001F069
:102940005FB900BF58BA0808F8B5064610460F46EA
:1029500031F040FD2C49013800242C4D0A4610F876
:10296000013FBBB92C202BF0B0F9054638462F1D8E
:1029700031F030FDE3B20246394606F14400FEF77D
:10298000BFFD0646C0B328461DF0A2FC204B985D53
:102990002AF0DEFB782BE2D8712B08D8612B24D0EB
:1029A000622B25D02B2BDAD144F00304D7E7723BFE
:1029B000062BD4D80FF2040C5CF823F0D9290008B8
:1029C0005F290008F52900085F2900085F29000831
:1029D000DF290008E529000844F00104BFE744F0BE
:1029E0000A04BCE744F00604B9E744F01204B6E771
:1029F0002946B4E71146B2E7E30603D5296938460C
:102A0000FFF792F82846F8BDA0BA080880BA08086F
:102A10006CBA0808022970B5044615461E4613D143
:102A20005368012B0AD0022B0CD01BB91168201D52
:102A3000FFF77AF8A3692B60002070BD81692B68CD
:102A40001944F4E70169FAE701290AD10430FEF7D5
:102A500071FF0028F0D0084B1B5C4FF0FF30336053
:102A6000EBE7042906D14368002BE5D00430FEF7DC
:102A700099FFEEE71623F0E76CBA080800000000A3
:102A80002DE9F04F07291E462DED068B89B0B0EEDB
:102A900040AAF0EE60AA9DF860500692CDE90101CF
:102AA00016D8012907D93F2300F8013B01900023E4
:102AB000019A137002E0029B002BF8D1029B012BBC
:102AC00094BF0020012009B0BDEC068BBDE8F08F5B
:102AD0001AEE903A019C002B39DA53EC102B51EC92
:102AE000100B77F0D3F890BB2D231AEE901A1AEE44
:102AF000102A04F8013B01F1004343EC1A2B069B1A
:102B00004FF0FF321AEE100A03F020051AEE903A49
:102B100023F00049D64B494677F0B8F8E0B94FF0BA
:102B2000FF32D34B1AEE100A494677F091F898B964
:102B300085F04903E01C237085F04E0385F04605BF
:102B40006370A57000230370019BC01ABBE7002DC2
:102B5000D5D004F8015BD2E753EC1A2B51EC1A0BD9
:102B600077F094F840B145F04E0385F04105E01C44
:102B700023706570A370E5E7069B002E43F0200AE2
:102B8000B8BF0626BAF1670F02D1002E08BF012692
:102B9000019B0022A4EB030B029BA3EB0B0B002376
:102BA00051EC1A0B0BF1FF3777F03EF8F8B1BAF1A0
:102BB000660F0BD1731C4FF06609BB424FF0000348
:102BC000A8BFABF10306771C98460DE0731DD146F4
:102BD000BB424FF00003A8BFABF10706BAF1650F87
:102BE0001F46F1D14FF02B081A461D464AE01AEE57
:102BF000903AC3F30A50A0F2FF3076F043FD96A35B
:102C0000D3E9002376F0A8FD77F056F800220546B8
:102C1000984B51EC1A0B77F011F8002800F0D48093
:102C20006B422846039376F02DFD9FED8D0B41EC12
:102C3000110B5FF0DDFA039B9FED898B1D4659EC6C
:102C4000108B42464B4651EC1A0B76F0F7FF0028EA
:102C500040F09280BAF1660F08D0BAF1670F40F0E9
:102C60009A80042D00F397806B1E1E44731CBB4298
:102C70004FF00003A8BFABF1030698461A46771C35
:102C80004FF0660926EAE671B9F1650F039140F04D
:102C90000F814F1C1E464FF0000BD31A9FED729B05
:102CA0009FED6F8B0793002F80F20C81BBF1040F17
:102CB00027DD631E30201A78591E2E2A00F04B8122
:102CC000A2F13006092E40F2488101331A78302AE9
:102CD00017D159782E2940F04D81B9F1660F00F0D7
:102CE0004981B8F12D0F19705A7040F04181013DB2
:102CF00008BF4FF02B0822469342C0F04381312297
:102D00001A70BAF1670F0BD1039B4BB123461C46D7
:102D1000013B14F8012C302AF9D02E2A08BF1C469A
:102D2000B8F1000F23D0069B632D84F8018003F0D7
:102D30002002CABF6423A11CE11C42F04502C8BFA7
:102D400095FBF3F322704FF00A02C8BF303395FBB6
:102D5000F2F0C8BFA3700C4690FBF2F302FB130322
:102D600002FB10503033303004F8023B487000232F
:102D70002370019BE01AA6E60135684276F082FCDA
:102D8000B0EE480AF0EE680A41EC110B5FF030FA41
:102D900059EC108B55E7ABF10703B34205DCBAF1F0
:102DA000670F14BFABF108061E464B464246D1469C
:102DB00000274FF02D0851EC1A0B76F0F7FD6B420F
:102DC00041EC1A0B3A465DE7681C76F05BFC9FED20
:102DD000248B9FED230B41EC110B5FF009FA53ECB0
:102DE000102B51EC1A0B76F03DFFA8B9BAF1660F23
:102DF00023D1BD4240DA73190133BB4205DB7F1B8F
:102E0000012FA7F1020608BF0026AF192B462A465C
:102E10004FF00008013733E7A81C05F1010876F0F0
:102E200031FCB0EE480AF0EE680A454641EC110B61
:102E30005FF0DEF953EC102BD3E7BAF1650F1BD02E
:102E4000BAF1670F26D02B46D14600274FF02B084A
:102E5000B8E700BFAFF30080FF799F501344D33F22
:102E60000000000000002440000000000000F03FCF
:102E7000FFFFEF7F0000F03FABF10703B34201DC3F
:102E8000ABF1080600272B464FF02B084FF06509E1
:102E90003A46F7E6731DBB4201DBABF10706B542CC
:102EA00003DB2B464FF06709CFE76B1CF61AACE744
:102EB000B9F1670F7FF4EEAE002ED6BF0127039F56
:102EC0000397E7E6002E41DD304676F0DBFBB0EEFF
:102ED000480AF0EE680A41EC110B5FF089F98DEDBC
:102EE000040B4FF0000BDDE9040153EC1A2B76F0D4
:102EF000C3FE60B90BF1010B51EC1A0BDDE90423A1
:102F000076F072FABBF1090F41EC1A0BEBD107B363
:102F10000BF13003224602F8013B079B0492F34277
:102F200005D1039B1BB1A31C04932E236370002EB9
:102F300007F1FF3707DC51EC1A0B53EC182B76F036
:102F40000BFC41EC1A0B013E049CACE68DED049B9E
:102F5000C7E70494EBE70B46ADE6392A02D001320D
:102F60001A70B3E6019A48709A42F4D11346ADE65E
:102F70000135C0E6621C01990298511A814238BF9E
:102F80001446B8E612F8011C02F80119B4E600BFB5
:102F9000044608B531B1054B4A6C0360002309684B
:102FA0002DF0DAF920461DF043F900BF541A080845
:102FB0002DE9FF471E464518019212B1023A222A16
:102FC00034D80446AC42274639D214F8010B1EF01F
:102FD0008BFA80460028F5D13B782B2B29D1274648
:102FE000E91B384601AA002428F0C3FB0744B94670
:102FF000A9454B4626D3B8F1000F00D064426400C7
:1030000044F00104BB4209D01F46AF423B4641D2C7
:10301000187801371EF068FA0028F6D12049019A85
:1030200020482DF059F93146FFF7B2FF1E4829F02C
:103030006FFE2D2B04BF27464FF00108D0E74FF05D
:103040000008CDE719F8012BA2F1300ABAF1090FF7
:1030500009D95F2ACCD042F02002A2F161011929DE
:10306000C9D8A2F1570A01995145C4D9204638F070
:1030700005F928B9019B03FB04A494EA4403B7D5DE
:10308000019B4246E91B03A803972EF09DFB039B7F
:103090000446B7E7C2D1204604B0BDE8F08700BFC0
:1030A0003F0D0808E41A08082A0D0808000000006F
:1030B0002DE9F04F2DED068B8DB0044600EB010B92
:1030C000CDE908231C9B9FEDAA9B0AEE103A002332
:1030D000029306935C4580F0F88120781EF004FA94
:1030E000079000283ED123782B2B45D101345C4535
:1030F00080F0EB81237843F02003692B42D1A31C9D
:103100009B4540F2D781637843F020036E2B40F05B
:10311000D181A37843F02003662B40F0CB81E31DDF
:1031200004F103089B451AD9E37843F02003692B87
:1031300015D1237943F020036E2B10D1637943F02E
:103140002003692B0BD1A37943F02003742B06D104
:10315000E37943F02003792B01D104F108089FEDB6
:10316000868B25E0B0EE498AF0EE698A0134B0EE34
:10317000489AF0EE689AADE72D2BBBD101230134BC
:103180000693B4E76E2B4DD1A31C9B4540F2928170
:10319000637843F02003612B40F08C81A37843F0E7
:1031A00020036E2B40F0868104F103089FED748BA1
:1031B000089B8BB1D8450FD298F8003043F020031C
:1031C0006A2B09D1A04501D19FED6F8B029B08F1BD
:1031D000010843F002030293069B53B118EE903AA4
:1031E0008DED0A8A03F100430B9301239DED0A8BB9
:1031F0000693A0450ED0D845444680F02A81207819
:1032000008F101081EF070F90028F4D1099B002B89
:1032100040F03581604961482CF0D4FF1AEE101A55
:10322000FFF7B6FE0025A0464FF000094FF0000A58
:103230002E462F4604950195424612F8013B039213
:10324000A3F13002092A059278D8022F11D1019BEF
:103250001A46534B9A4205DC13460A21059A01FB94
:1032600003230193039B9B4500F2DC80DDF80C8077
:103270009FE0059B3BB14846514645A3D3E9002357
:1032800076F0F0FCE0B10FB90136EBE7049B0133B7
:1032900004930127E6E73EA3D3E9002348465146BD
:1032A00076F0CCFC88B300223E4B4846514676F07F
:1032B00053FA0022002376F099F881468A46013EAF
:1032C000002EE8D1049E4846514631A3D3E900239D
:1032D000EEB976F0B3FC60B30022324B484651465B
:1032E00076F03AFA89468046059876F0CBF90246A0
:1032F0000B464046494676F079F8012F81468A46CA
:1033000040F08A80013D0496ACE70135D7E776F0BE
:1033100095FC60B10022234B4846514676F01CFADA
:1033200000220023013D76F061F881468A46013E85
:10333000C9E7002F73D10135049793E7A7BB2E2B64
:10334000A7D043F02002652A30D1039B9B4540F271
:10335000C58098F801302B2B56D108F10203039356
:10336000039B5B453FF456AF02277BE7AFF300803A
:103370000000000000000000000000000000F07FDE
:10338000000000000000F87F000000000000F03F97
:103390005A62D7D718E774694B0D0808E41A080871
:1033A0006466660600002440022FCAD15F2B3FF4FA
:1033B00059AF079B13B1019B5B4201933544019BBD
:1033C0001D4415F59A7F0ADC4846514605F233152F
:1033D00049A3D3E9002376F0BFF981468A4615F167
:1033E000160F22D3684276F04DF99FED3F0B41EC6A
:1033F000110B5EF0FDFE4846514653EC102B76F063
:10340000D5FA41EC180BD3E62D2B0AD108F10203B3
:10341000039301230793A3E73746049622E7049614
:1034200037E70227DDF80C8006E7284676F02AF910
:103430009FED2D0B41EC110B5EF0DAFE4A46534630
:1034400051EC100B76F088F9DBE79FED298BA04655
:10345000B2E67FF4DBAE029B012B3FF4DBAEABB1F7
:10346000B0EE481AF0EE681AB0EE490AF0EE690ABA
:103470000DB0BDEC068BBDE8F04F2BF081BD029B7B
:10348000002B7FF4C7AE0123029370E6099B33B192
:10349000B0EE480AF0EE680A9FED151BE8E7B0EEC3
:1034A000480AF0EE680A0DB0BDEC068BBDE8F04F9F
:1034B0002DF096B8089B002BC7D1069B002B3FF43C
:1034C000A9AEA0469FED0A8B88E60026A0464FF0E5
:1034D00000094FF0000A354601966FE73FF49AAEB7
:1034E000C4E600BFAFF300800000000000002440ED
:1034F00000000000000000000DC6402C18FA31004A
:103500000846114661F0F8BA37B5054608460191FC
:1035100060F018FA044620B102466B6801992868E9
:103520009847204603B030BD2DE9F74F89469DF8F6
:10353000301017460D9A11F0DF0F0646A2EB070276
:103540003DD030290CA8254913BF80464FF0100A02
:1035500088464FF0010A13F0800535D002EBD27493
:103560006510A2EB6404002D35DDAB46DA4552460A
:1035700073684146A8BF5A46306801929847019A3D
:10358000ABEB020BBBF1000FF0DC2FB13D447368D5
:103590003A46494630689847002C0CDD2544A24540
:1035A000574673684146A8BF27463068E41B3A4631
:1035B0009847002CF3DC284603B0BDE8F08FDFF815
:1035C00020804FF0100AC6E713F0010401D1154620
:1035D000C9E71446D9E70025D7E700BF95FD0708DE
:1035E00084FD07082DE9F043064689B00020119DAF
:1035F0009DF84880139F8DF80F000AB381421ADAB4
:103600002D2249428DF80F20109A08AC0DF11009B7
:10361000A2F10A008E46B1FBF3FC03FB1C126146CB
:10362000092A8CBF1218303204F8012D4C450ED0F7
:103630007345EFD90BE0A80727D52B228DF80F2073
:103640000029E1D130230DF11F048DF81F3015F052
:1036500040099DF80F301CD023B301222B460DF1F9
:103660000F013046013FCDE90082FFF75DFF814643
:1036700008AA2B4621463046121BCDE90087FFF7EA
:1036800053FF484409B0BDE8F0836A07D8D520222B
:10369000D4E7002BECD004AA9442E9D904F8013C09
:1036A000013CE5E79946E3E72DE9F04F93B0814609
:1036B0001D46C8079DF874300C4690461C9E069324
:1036C000DDE91E7A0BD4A10703D122687A4B9A4216
:1036D00005D020462AF0C8FB400040F0010416F057
:1036E000810306D1069A302A03D15745B8BF574601
:1036F0009A4620460DF1280B2DF078FF002818DBA4
:10370000B20712D52B230DF129028DF82830F006CF
:10371000EDB21DD5B8F1020F0DD13021134603F8DB
:10372000021B691C51701A4612E0730701D5202351
:10373000E9E75A46EBE7B8F1080F61D1B1054FF060
:103740003003137049BF05F10E030132537002328A
:10375000A2EB0B03002116F0200F11700EAA0593A7
:103760000CBF0B462C23BAF1010F0B924FF0100245
:10377000C8BF46F040068DF82710CDE90C2116F0A1
:103780004002CDE90253079244D023460DAA0BA86C
:10379000CDE900810CA92DF0FDFD037880462D2B8D
:1037A00006D18DF8273000F101080D9B013B0D93E8
:1037B000BAF1010F3CDD0D9D079B5545B8BF55463D
:1037C0002BB19DF8273003B10135059B1D44AF4255
:1037D0002BDD16F00103A7EB050527D12C461D466E
:1037E00026F001064CB12023019434494846009349
:1037F00000231A46FFF798FE04463023069319E08B
:10380000B8F1100FA4D13021134603F8021B05F1C3
:10381000170187E70AAB0DAA0CA90BA8CDE9008315
:1038200023462DF0B7FD8046C2E700250024D7E7E8
:1038300000252C46079BDBB19DF8273053B10023B0
:1038400001220DF127014846013FCDE90032FFF783
:103850006BFE0444059B5BB1002301225946484698
:10386000CDE90032059AFFF75FFE059B0444FF1A7D
:10387000069BBAF1010FC8BF57460D9A4146009307
:10388000484633460197FFF74FFE04444DB12023CD
:103890000A4948460195009300231A46FFF744FE63
:1038A00004440B980EAB984201D01CF011FD204649
:1038B00013B0BDE8F08F00BF881E08089C3F0908C0
:1038C0002DE9F04316468BB007469846B207DDF85F
:1038D00048903DD416F0040F0CBF002320230A4665
:1038E00000932021139B02A8FFF7CAF8F3050446B2
:1038F0000DD5431C1F2B0AD80AAA002114442522E7
:1039000004F8202C0AAA1C461A4402F8201C16F0BF
:1039100040051FD09DF808302F2B4FF000031BD817
:10392000012202A9384609F1FF39013CCDE90032F4
:10393000FFF7FAFD0DF109010546334622463846E8
:10394000CDE90089FFF7F0FD28440BB0BDE8F08316
:103950002B23C4E702A9F0E702A91D46EDE700000A
:103960002DE9F04F074689B014460025DFF88C8218
:103970000B461E4613F8012B92B9B14213D30B78B4
:10398000002B00F03481013120234FF0000A08465B
:1039900010F8012B82B94FF000094FF00A0C2AE011
:1039A000252AE6D1E9E7A6EB01097B6838684A4693
:1039B0004D4498473146E2E72D2A03D14AF0010AE7
:1039C0000146E4E72B2A02D14AF0020AF8E7202A4E
:1039D00002D14AF0040AF3E7212A02D14AF0080A88
:1039E000EEE7302AD7D14AF0400A1346E8E70CFB4D
:1039F0000929A9F130090E4611F8012BA2F1300076
:103A00000928F4D92E2A33D172782A2A0FD00A46EF
:103A10004FF00A0C0021164612F801BBABF1300042
:103A2000092807D80CFB01BBABF13001F3E70236E4
:103A300054F8041B21EAE17B32786C2A08BF013676
:103A40003178002900F0D38078295FD8572912D81F
:103A5000472959D8442959D907345246384624F0C1
:103A60000704CDE9009BB4EC020BFFF729FF5FE0F0
:103A70004FF0FF3BE0E7A1F15802202A46D801A011
:103A800050F822F0BF3B00080D3B00080D3B00083A
:103A90000D3B00080D3B00080D3B00080D3B0008E6
:103AA0000D3B00080D3B00080D3B00081B3B0008C8
:103AB0003D3B0008A33B0008593A0008593A00086A
:103AC000593A00080D3B00080D3B00080D3B00086B
:103AD0000D3B00080D3B00080D3B00080D3B0008A6
:103AE0000D3B0008DF3B0008513B00080D3B000880
:103AF0007B3B00080D3B0008BF3B00080D3B000866
:103B00000D3B0008BF3B0008502968D07B680122AC
:103B100031463868013598470BE054F8042BCDE95D
:103B2000003953463AB1042233493846FFF7FCFCCA
:103B30000544711C1CE705224146F6E754F8042BA6
:103B400007A98DF81C200122CDE900395346ECE786
:103B500007A954F8040B04931DF0A3FABBF1FF3F2F
:103B60000146049B04D0079A934538BFCDF81CB09A
:103B7000079ACDE900395346D7E754F8041B05935B
:103B8000084604915FF0DEFEBBF1FF3F0246DDE92F
:103B9000041302D0584528BF5A46CDE90039534690
:103BA000C3E7CDE9023961230122CDF804A00093D7
:103BB0000A2354F8041B3846FFF714FDB8E74A1CE3
:103BC00021F00F01CDF804A002F006020F39CDE973
:103BD0000239C9B2C2F1100300910022E9E7CDE930
:103BE00002396123CDF804A000931023F5E728469D
:103BF00009B0BDE8F08F00BF70FD070875FD07082C
:103C00000EB403B503AA52F8041B0192FFF7A8FEF5
:0C3C100002B05DF804EB03B07047000048
:020000040802F0
:10000000FEE700000F490020D1F8883043F4700368
:10001000C1F888300C4B1A6842F001021A609860EF
:100020001A6822F0847222F480321A60074A5A60F9
:100030001A6822F480221A60D8604FF000638B6047
:10004000704700BF00ED00E000380240103000248F
:1000500070B5002594B02F4C102629460AA8C4F884
:1000600090503246049543F035FC236C0122042065
:1000700043F080532364236C192403F080530193CD
:10008000019B254B196841F4404119604FF48001F0
:100090001B68059503F440430293029B4FF48033A1
:1000A000CDE908230223CDE90E310F2303934FF44A
:1000B000C073CDE910430823CDE90B56CDE91203F7
:1000C0004FF4A0554FF4805308A8CDE9065348F0EB
:1000D00045F910B111484EF059FF48F0B1F808B198
:1000E0000F48F8E7119B03A810996343B3FBF1F3A2
:1000F0003021B3FBF1F201FB12321299003AB3FB4B
:10010000F1F118BF012250F03FFC08B10548E2E7C9
:1001100014B070BD0038024000700040F8A007081D
:100120000AA1070824A107080446DFF82CD00B49D0
:100130000B4A0C4B03E051F8040B42F8040B9A42B3
:10014000F9D300200849094A01E041F8040B914223
:10015000FBD320464FF026B8F8FF042034D309081B
:1001600000000120A0000120004001201C3C0220D2
:1001700040F8044B40F8045B40F8046B40F8047B03
:1001800040F8048B40F8049B40F804AB40F804BBF3
:1001900040F804CB40F804DB68467047024B5A69CC
:1001A00002605861002070472CD10120024B5A692F
:1001B00012685A61704700BF2CD10120024B9A6926
:1001C000C0E90021986170472CD10120044A93694D
:1001D0001968916110B15A6818461047704700BFFE
:1001E0002CD1012038B50446044DAB690BB1A342B4
:1001F00000D338BD0120FFF7E9FFF6E72CD101203D
:10020000C460056146618761C0F81C80C0F8209019
:10021000C0F824A0C0F828B0C0F82CD080ED0C8B1A
:1002200080ED0E9B80ED10ABC0F808E0FFF7B6BF85
:10023000124D6C6908B50CB94EF0A0FF6060204605
:10024000FFF7D0FF23686B612046C46805694669E3
:100250008769D0F81C80D0F82090D0F824A0D0F87E
:1002600028B0D0F82CD090ED0C8B90ED0E9B90ED3B
:1002700010ABD0F808E00120704700BF2CD101205E
:1002800010B50021044600F00DFB18B914B120464A
:100290000CF02AFD10BD002100F004BB10B50121B7
:1002A000044600F0FFFA18B914B120460CF01CFD0A
:1002B00010BDFFF7E5BF10B501220C4600F00AFCA7
:1002C00018B914B120460CF00FFD10BD00F002BCAF
:1002D00000F0C2BB484308B50830FFF7DCFF40B16F
:1002E000044B9A6A02B110600021C0E900129862C2
:1002F000083008BD2CD10120034678B153F8042CF6
:10030000083812B153F8081C116053F8083C13B1B7
:100310005A6000F0A1BB024B9A62FAE7704700BF37
:100320002CD101202DE9F04100252A4C0326D4F8D8
:10033000A4720021013143189A0803F00303BA5C48
:100340005B0042FA03F303F00303022BF2D009012E
:10035000D4F8B0324FEA910C03EB001071B300EB0C
:100360008C0C0268130726D1D4F8B032D11A93420C
:10037000C1F301134FEA911E4FEA11114FEA4303F3
:1003800019D8D4F8B472974215D9D4F8A48206FAD1
:1003900003F218F80E7047FA03F33A4303F003032D
:1003A000012B08D13F2D08F80E2004EB85020CD854
:1003B0000135C2F8C41204306045D2D145B1013DC7
:1003C00004EB8503D3F8C402B1E7C4F8C032F2E706
:1003D000BDE8F0812CD10120F0B41A4E0122D6E9FB
:1003E000AB53C01AC109C0F3021704096B5CBA40D1
:1003F0004FEA901C032723EA02036B54A508D6F8A2
:10040000B83204F00301B3EB901FD6F8A40288BF02
:10041000C6F8B8C210F80C204900013407FA01F3FD
:1004200004F0030122EA03024B004255A508D6F866
:10043000A402425D42FA03F303F00303022BEBD064
:10044000F0BC70472CD10120F8B50E46164A174C67
:10045000054626F00F060021C4F8A402331AC4F89A
:10046000B462013BDB00A2FB03235B0A9F005A1C22
:10047000A6EB8316C4F8A83207371544C4F8B06257
:1004800002EBD702C4F8AC5243F024FA0023012156
:100490004FF0FF322381A4F8C413C4F8CC23C4F86E
:1004A000C833C4E9AE33F8BDF32C23FA2CD10120B4
:1004B000024A138901331381704700BF2CD10120F8
:1004C000024A1389013B1381704700BF2CD10120E0
:1004D000024B1889003818BF012070472CD1012029
:1004E0002DE9F0411D4C00224FF00308238904F14F
:1004F000080504F5FC76C4F8C8230133C4F8C0220B
:10050000238155F8042F13071AD1D4F8B032D01A2A
:100510009A42C0F301134FEA90114FEA10104FEACC
:1005200043030DD3D4F8B472BA4209D2D4F8A4C2AA
:100530001CF801E04EFA03F202F00302012A03D094
:10054000AE42DED1BDE8F08108FA03F343EA0E03C0
:100550000CF80130FFF7E6FEF2E700BF2CD10120D6
:1005600081B3F8B5041F184E032704EB810554F836
:10057000043F1A071AD1D6F8B022981A9A42C0F34B
:1005800001124FEA901C4FEA10104FEA42020DD8B8
:10059000D6F8B412994209D9D6F8A41211F80CE091
:1005A0004EFA02F303F00303012B02D0A542DED181
:1005B000F8BD07FA02F242EA0E0201F80C20FFF73A
:1005C000B1FEF3E7704700BF2CD101202DE9F04FB9
:1005D000614C83B0D4F8C032002B00F0B780D4F85F
:1005E000A83200269B001F46C4F8C062002B46D0EC
:1005F0000025A908D4F8A40205F003029846415C3E
:10060000520041FA02F202F00302032A42D00135FD
:100610009D42EED3D4F8C022002AE4D1D4F8BC32F3
:10062000434580F08D8003F1010800270323BC4679
:100630003E4604E0012941D0013646451FD2D4F898
:10064000A4E24FEA960906F003051EF809200EEB16
:1006500096006D0042FA05F101F00301022928D04D
:100660000329E7D10221374601364FF0000C01FA89
:1006700005F5464522EA05020EF80920DFD3238955
:100680000022C4F8BC72013BC4F8B822238103B035
:10069000BDE8F08F28460135FFF744FED4F8A832B4
:1006A0009B00AB429846A4D8D4F8C022002A9AD125
:1006B000B4E7BCF1000F3BD13746BDE7D4F8AC122C
:1006C0004FEAD60B06F0070A11F80BC001EBD60172
:1006D0004CFA0AFE1EF0010F2AD0D4F8B002320103
:1006E000825800EB0610B2B16A4640F20C410BF0A2
:1006F000A7FC009A032342B10CF06CFDDDE9000178
:100700000CF038FD0CF07CFD0323D4F8AC2202EB96
:100710000B0112F80BC0012202FA0AFA2CEA0A0CA9
:1007200081F800C0D4F8A42202EB090012F80920D5
:1007300003FA05F54FF0010C22EA050202707BE78F
:10074000B8F1000F7FF471AF474698E7D4F8A832AC
:100750004FEA830862E700BF2CD10120044B00213F
:100760001A89C3F8C01201321A81FFF72FBF00BFE8
:100770002CD101204A4A00232DE9F04FD2E9AC41A7
:10078000D2F8A4E21F46D2F8A822091B83B09946EA
:1007900001601E469C461C461946436083604FEA32
:1007A0008208C360BA4601930361436183619EF886
:1007B00000304FEA4A0A43FA0AF303F00303012B1D
:1007C00038D0022B5BD0002B51D0013188450CBFB3
:1007D0000125002532D08B0801F0030A1EF80330F2
:1007E0004FEA4A0243FA02F212F0030214BFAB4688
:1007F0004FF0010BBBF1000F45D1012AD9D15D4665
:100800001346012C21D0022C02D1426901324261EF
:100810004C4501D9A1468461DBB98B0801F0030A7C
:100820001EF803304FEA4A0A43FA0AF303F00303BF
:10083000012BC6D101361C464660C6E7012B14BF0A
:100840002B4645F00103012CDDD102690132026122
:10085000DEE7BC4502D96746C0F80CC0CDB1019BAC
:1008600036011B01C0E9016303B0BDE8F08F019AB6
:100870000CF1010C1C46013201928260A5E70136A1
:1008800001344660A1E7012A14BF2B4645F001035D
:10089000B7E78B08AC4601F0030A1EF8033088E77F
:1008A0002CD101200F302DE9F047060959D0694CB1
:1008B0002389002B55D1B4F8C4330D46002B0CBF4F
:1008C0004FF0010E4FF0000E4FD1D4F8B802D4F81B
:1008D000A872B84238D2D4F8A4C2411E00226144A2
:1008E0001AE0013296424FD913F00C0F1ED101329B
:1008F000964240F2A68013F0300F1CD1013296428E
:1009000040F2A28013F0C00F1AD10132964240F299
:100910009E800130B84217D211F8013F13F0030F47
:10092000DFD013F00C0F4FF00002E0D013F0300FC7
:100930004FF00002E2D013F0C00F4FF00002E4D0FD
:1009400001300022B842E7D3BEF1000F09D155F0C3
:100950002DFED4F8B802D4F8A8724FF0010E8742E9
:10096000B9D800231846BDE8F087D4E9F2239A42AB
:10097000ABD355F01BFED4F8B802D4F8A872B84235
:10098000EFD24FF0010EA6E78000811A012A01F193
:10099000010703D1431C9B08C4F8B832D4F8BC3219
:1009A0004FF0010A07F0030E4FEA9708834201F166
:1009B00002010EFA0AFE38BF03468842C4F8BC3270
:1009C0000AFA0EF31CF808E043EA0E030CF80830AC
:1009D00013D34FF0020801F003034FEA910CD4F84F
:1009E000A4E201315B001EF80C90884208FA03F380
:1009F00043EA09030EF80C30EDD2D4F8B0821201AC
:100A0000D4F8C803002108EB071306444FEA07197E
:100A10001846C4F8C86342F05DFFEA070346A1D553
:100A20000022D4F8AC02F90807F0070748F80920BB
:100A30000122445C02FA07F7274347541846BDE8F1
:100A4000F08780000130A0E7800002309DE7800041
:100A500003309AE72CD10120034B1A8912B908B14F
:100A6000FFF7BABC704700BF2CD1012010F00F0275
:100A70001BD11749D1F8B032834217D810B4D1F83E
:100A8000B44284420DD9C31AD1F8A442C3F3011071
:100A900099091B09615C4000014101F00301012932
:100AA00006D010465DF8044B704700221046704790
:100AB00001329918880801F00301205C490040FACE
:100AC00001F101F003010229F2D01201E9E700BFB0
:100AD0002CD101202DE9F84F8E460746002800F062
:100AE000AD80002971D05A4D2E89002E71D1D5F8D4
:100AF000B0120EF10F00D5F8A842791A00094FEA9A
:100B0000840A0B0903F1010CBCEB840F80F09C807C
:100B1000D5F8A4924FF001084FEA9C0B0CF00304A7
:100B200019F80BB064004BFA04F404F00304022C2F
:100B300053D024B9013606EB080484424FD3404514
:100B40003FD01FD3464486424ED2002A41D0D5F82A
:100B5000AC22C90903F007037046515C194101F04A
:100B60000101FFF79FFE044698B34FEA0812394689
:100B700042F06AFE2B892BBB3846FFF72DFC20463E
:100B8000BDE8F88F18444FF003094344064606F0C9
:100B900003044FEA960ED5F8A4120136640011F84A
:100BA0000EC09E4209FA04F42CEA040401F80E4037
:100BB000EDD1D5F8B8328208B3EB900F88BFC5F8F5
:100BC000B8223C462046BDE8F88F214B1C89002CFA
:100BD000D3D000242046BDE8F88F08F101080CF1BD
:100BE000010CE24598D1AAE719184344994211D95A
:100BF0004FF0020E03F003049A08D5F8A462013303
:100C0000640016F802C099420EFA04F444EA0C0497
:100C1000B454EFD1D5F8BC32A0EB08023C4607EB48
:100C200008108B424FEA021238BF0B460021C5F86C
:100C3000BC3242F04FFE2046BDE8F88F01467046B8
:100C4000BDE8F84FFFF72EBE4FF0010877E700BF71
:100C50002CD1012010B58AB0044603A8FFF78AFD05
:100C6000059A049B204600920749039AE2F7C8FFC1
:100C7000069A099B20460549CDE90032DDE90723A4
:100C8000E2F7BEFF0AB010BD38A107085CA1070853
:100C90002DE9F047DFF864A106464B49DAF8B022A7
:100CA000E2F7AEFFDAF8A822920079D00024474F8D
:100CB000DFF84C91DFF84C810EE0012D40D02E2260
:100CC00043493046E2F79CFF0134DAF8A832B4EB2E
:100CD000830F4FEA830263D214F03F0510D004F073
:100CE00003056D00A308DAF8A422D35C43FA05F5E6
:100CF00005F00305022D21D0032DDED16D22DFE7A3
:100D0000DAF8A412A4464FEA9C000CF00303085C36
:100D10005B0040FA03F39B0703D10CF1010C9445EF
:100D2000F1D3ACEB04027F2A2ED804F003056D004A
:100D3000220139463046E2F763FFD3E73D22BFE7A1
:100D4000DAF8B0222301D25842452FD0214B9A42E3
:100D50002ED0214B9A422FD0204B9A422AD0204BA2
:100D60009A4227D01F4B9A4228D01F4B9A4225D037
:100D70001E4B9A4226D01E4B9A4221D01D4B9A42BE
:100D80000CBF4D2268229BE79209494630462CF061
:100D90003F04E2F735FFDAF8A832B4EB830FC7D38C
:100DA00030461549BDE8F047E2F7AEBB542287E76D
:100DB0004C2285E7532283E7442281E741227FE7E3
:100DC00042227DE746227BE7A4A10708DCA10708B1
:100DD000E4A10708D81F0808881608085C2B080833
:100DE000EC29080820130808D4120808C01B0808BA
:100DF000141C080894210808A0A107082CD1012080
:100E0000C0A10708AC2C08080346064A506A1A68B5
:100E10004168C1F31E018A4202D3521A1A60704718
:100E20000068F5E72CD10120014441F205538842C6
:100E300004D398B2012838BF0120704703EB431355
:100E400010F8012B5340F2E7034B044A5A62002288
:100E5000C3F8FC21704700BF2CD10120488B080843
:100E60002DE9F04781460F46002942D0FFF7DCFF0D
:100E7000214B82465C6A0CB9204636E094F9073073
:100E80000025E668002B06F1FF3616DB013604F17B
:100E90001808B54215D32468EDE706EB05083A4675
:100EA00048464FEA580808F1060354F8231042F068
:100EB0006FFD0028CCBF45464646731B012BECD87E
:100EC000E4E7236933F815309A4510D163695B5D17
:100ED0009F420CD13A46494658F8250042F010FD91
:100EE00028B96068C0F31E002844BDE8F0870135CA
:100EF000CFE70120F9E700BF2CD101202DE9F8430D
:100F000080460E46FFF7ACFF0246002840F0928074
:100F1000FF2E03D949494A480BF014F9494C751C76
:100F2000D4F8FC0190B1D4E980132B448B4229D929
:100F30002944FFF7CBF90746D8B90246D4F8041282
:100F4000D4F8FC01FFF7C2F9C4F8FC71802D2F46DC
:100F500038BF80273846FFF79EF9C4F8FC01D0BBA4
:100F60002846FFF798F9C4F8FC0198BB28460BF017
:100F7000BBFED4F800322B44C4F80032D4F8FC3164
:100F8000002BE3D0D4F804324146D4F8FC714FF082
:100F900000081D4432461F44C4F80452384642F04B
:100FA00053FC3146384607F80680FFF73DFF636A79
:100FB0008146D3E90253AB422AD36D000A2D38BFD4
:100FC0000A25C5EBC5001830FFF765F948B9C4F824
:100FD000FC01CBE72F460023C4F80072C4F80432AA
:100FE000D0E700F11803626A03EB85030260036136
:100FF00003EB450343615368D268C3F31E03C0F893
:101000000C801344426863F31E02C0E9012560624C
:10101000636AD3E903025B6922F81090821D1E54B3
:10102000636A43F82270DA680132DA605A68C2F300
:101030001E0202441046BDE8F88300BFE7A107087E
:10104000E81908082CD1012010B5044642F07AFCBA
:1010500001462046BDE81040FFF750BF07B501909C
:1010600001A8FFF7D1FE019A036933F8120003B01B
:101070005DF804FB07B5019001A8FFF7C5FE019BD1
:101080004269D05C03B05DF804FB07B5019001A88C
:10109000FFF7BAFE019B063350F8230003B05DF85A
:1010A00004FB13B5019001A80C46FFF7ADFE019BB0
:1010B0004269D25C063350F82300226002B010BDB2
:1010C0002DE9F8431D46002307468846036016466F
:1010D0000B6013602B60154BDFF854905C6A0CB109
:1010E0004C4505D12B68326813442B60BDE8F8836A
:1010F0003B6801333B60E268D8F800301344626912
:10110000C8F80030E368D1188A4207D32046FFF7B9
:10111000ADFC2B68246818442860E0E7336812F8B7
:10112000010B013303443360EEE700BF2CD10120F3
:10113000488B08082DE9F8430D4B0E4F5C6ADFF829
:101140003880DFF838900CB1BC4201D1BDE8F8839B
:1011500004F11805E36805EB8306B54201D3246862
:10116000F1E755F8042B41464846E2F749FDF4E71C
:101170002CD10120488B0808ECA107087CFD07084A
:1011800030B50023202411F8012F0AB9027030BDB8
:10119000120600F101051ED50BB1047028460B782C
:1011A000114A03F07F0363B9013A12F8013F054683
:1011B000013013F0800F0BD003F07F032B7001235D
:1011C000E1E712F9015B002DFBDA013BDBB2EAE754
:1011D00000F8013CE9E7012B04BF047028460B78B6
:1011E00000F8013B0223CEE7F3A1070838B54468B5
:1011F000054603682144994210D9037B1BB10021A5
:1012000007480AF09FFF01F11004806824F00704EA
:1012100008342146FFF74FF82C60A86038BD00BFA6
:10122000E819080870B504460E4611461546FFF742
:10123000DDFF31462A46D4E90130184442F032FB42
:1012400062682A44626070BD70B546680446B14267
:1012500028BF31460D460121FFF7C8FFA368681C6F
:10126000721B5919184442F01DFB6368A0680133D2
:101270002844636070BD012938B538BF0121044698
:101280000025084621606560FEF7FAFF2573A0601F
:1012900038BD38B505460C460131FFF7ECFF6C60F0
:1012A00038BD00230160C0E9013201230373704798
:1012B00038B514460546FFF7DEFF024B2560636034
:1012C00038BD00BF25120208037B10B5044613B9D0
:1012D0008068FEF7FDFF0023A36010BD13B50190E9
:1012E0001020FEF7CDFF04460199FFF7C4FF20460A
:1012F00002B010BD10B5044648B1037B13B9806835
:10130000FEF7E6FF2046BDE81040FEF7E1BF10BD46
:1013100038B5037B04460D461BB1002106480AF090
:1013200011FF016880682944FEF7C5FF2368A060AB
:101330001D441844256038BDE819080838B504462E
:101340000D46FFF753FFD4E901301D441844656092
:1013500038BDD0E9002310B59A42044602D10121DC
:10136000FFF7D6FF0021D4E90132D154A06810BDA7
:1013700010B50C460121FFF7E1FF047010BD7F2975
:10138000F8B50C46CEB204D80121FFF7D7FF06709E
:10139000F8BD06F03F06B1F5006FC1F3871546F0C2
:1013A000800607D265F03F050221FFF7C7FF4670B0
:1013B0000570EDE705F03F05B1F5803FC1F3073754
:1013C00045F0800508D267F01F070321FFF7B6FF3D
:1013D000457007708670DBE7A40C07F03F07042117
:1013E00064F00F0467F07F07FFF7A8FF85700470B3
:1013F0004770C670CCE713B504460846019142F029
:10140000A1FA01990246204602B0BDE81040FFF75C
:1014100009BF10B51446FFF717FF047010BD10B5D3
:101420001446FFF711FF047010BD43688B422CBFB8
:10143000591A00214160704738B5044615460846E0
:1014400062688A4203D929448A4201D8606038BD63
:10145000A368521A1844194442F024FA6268521BD5
:101460006260F4E790F9001002460378002901DB7E
:101470001846704703F07F004023184206D112F847
:10148000013F03F0C001802904D0704720EA030027
:101490005B08F2E703F03F0343EA8010EFE7431CE9
:1014A00018460133027802F0C002802AF8D0704753
:1014B00003460020994200D8704711F8012D02F030
:1014C000C002802A18BF0130F4E70144034600201F
:1014D00099421A4600D870471278013302F0C002D0
:1014E000802A18BF0130F3E77F289DBF024B185CAC
:1014F000C0F3400000207047A6FD07087F289DBF6D
:10150000024B185CC0F3C00000207047A6FD07081E
:101510007F289DBF024B185CC0F3800000207047FD
:10152000A6FD07087F289DBF024B185CC0F3801002
:1015300000207047A6FD07087F2809D8064B1B5CD2
:1015400013F00C0F06D1A0F15F03584258417047C9
:101550000020704701207047A6FD07087F289DBF27
:10156000024B185CC0F3001000207047A6FD07086E
:101570007F289DBF024B185CC0F3401000207047CD
:10158000A6FD070808B50246FFF7E8FF00B12032C4
:10159000104608BD08B50246FFF7EAFF00B1203A41
:1015A000104608BD3038092884BF20F020000738D5
:1015B000704701440246002010B5E524914203D84B
:1015C000B0FA80F0400917E012F8013B30B103F0A7
:1015D000C003802B11D1431ED8B2EFE7BF2B09D92E
:1015E000F72B09D8DB0803F0060344FA03F303F0F2
:1015F0000300E3E71B06E1D510BD0020FCE702393C
:1016000081420B4603D20233181A401070471A88E1
:101610000239002AF4D0F6E7B2EB131F70B54FEA97
:10162000131416D9121B03F00F0301EB44011546E6
:101630000E46012D31F8024B18BF3468013D24FAE3
:1016400003F4A4B220F8024BF2D104B9013A1046D7
:1016500070BD0022FBE7F0B5059F0024D21B264693
:10166000A74210D100EB470C002401EB4701A24236
:1016700014D10CEB42031EB1012102332CF81210DD
:10168000181A4010F0BD31F8145033F814C06544F6
:10169000354420F814502E0C0134E1E731F8145091
:1016A00035442CF814502E0C0134E0E7F0B4049FBC
:1016B0000025D21B2C46AF420BD100EB470600237E
:1016C00001EB47059A420FD106EB4201F0BCFFF750
:1016D00096BF31F81560344433F81560A41B20F828
:1016E000154024140135E6E735F813100C4426F8AC
:1016F000134024140133E5E72DE9F043079C023938
:10170000DDF828E0154684464FF6FF78A4EB020981
:10171000DDE9087655B900EB42011FB10123023122
:1017200020F81230BDE8F043FFF769BF31F8024FEF
:10173000013D4444264405EB0904AC4296BF33F80E
:10174000024B4FF6FF744444744486EA040E360C90
:1017500017FA8EF74FEA144E2CF8027B3F0CD9E7AC
:10176000022938B538BF0221044680680D4618B1F9
:101770002368B1EB930F07D96900FEF79CFD23683E
:10178000A06065F39F03236038BD38B504460C2084
:10179000FEF776FD054623682278C3F39D0023F00B
:1017A000030302F00102400013432B6063686B6087
:1017B000FEF766FDA8602268A168C2F39D02520090
:1017C00042F042F8284638BD00EB410002EB4102EE
:1017D00010B509B9084610BD30F8023D32F8024D87
:1017E0001B1B002B02DB04D10139F2E74FF0FF3065
:1017F000F1E70120EFE710B5044638B18068FEF745
:1018000067FD2046BDE81040FEF762BD10BD38B54B
:101810000C4602210546FFF7A3FF002C2B78B5BF2D
:10182000012200226142214662F3000301222B7053
:10183000AB68023B23F8021F090C104602F10102BB
:10184000F8D1686038BD0023C0E900338360704779
:1018500028B103789B0702D48068FEF739BD704732
:1018600038B505460C464968FFF77AFF22782B7891
:10187000A86862F300032B706368A1686B606268FC
:10188000BDE83840520041F0DFBF0A4629B901786F
:10189000426062F3000101707047FFF7B8BF08B5FE
:1018A000FFF7D1FFBDE80840FFF7EFBF920042F01D
:1018B00002020260002210B4C0E901215DF8044B6D
:1018C0001946FFF7E2BF2DE9F843914698469DF887
:1018D0002070042106464C464546FFF741FF3FB1C4
:1018E000002C78F100030EDAD9F1000468EB48050A
:1018F000337867F3000333700023736054EA050301
:1019000003D1BDE8F8830027F2E7D6E90132591C7C
:10191000716022F81340230C2A0C43EA0543154654
:101920001C46EBE72DE9F84353EC102B1E460378D9
:10193000074610EE105AF20F62F30003037047F6E9
:10194000F07313EA164207D13B786FF300033B7044
:1019500000237B60BDE8F8839A42F5D0C6F30A52B3
:10196000A2F2FF34002CEFDB04D10121BDE8F843E3
:10197000FFF74DBFA2F2EF38C6F31306B8F1000F20
:1019800046F48016B8BFA2F57878332C4FEA2818B1
:101990003FDCC4F13402A4F11403C4F1140406FAC8
:1019A00003F3D54026FA04F4D6401D432543002412
:1019B000A14641463846FFF7D3FEC7F80480B9F187
:1019C000000F05D04FEA49020021B86841F082FFBC
:1019D0009CB105FA04F2BB6823F81920C4F1100386
:1019E000103409F10109A3F12002DD4006FA04F4E4
:1019F00026FA02F2DE40254315434B469845A9D00E
:101A0000BA6822F813502D0C013345EA0645360C0E
:101A1000F4E7A2F233430C34002B04F00F04B8BFF8
:101A2000A2F224434FEA2319C3E72DE9F8438F18A4
:101A3000C2F35B0204460D46511C9846089EFFF710
:101A40008FFE237829461FFA86FC68F30003237073
:101A500000236360B942084602D3401BBDE8F88307
:101A600002780131A2F13003092B05D9A2F141031B
:101A7000192B14D8A2F13703B342EED2D4E901E016
:101A8000F0468146B8F1000F10D100EB4E0213B1C1
:101A9000023220F81E30121A52106260DAE7A2F108
:101AA0006103192BD9D8A2F15703E5E7B9F8002053
:101AB00008F1FF3802FB0C3329F8023B1B0CE1E76D
:101AC000F8B5044615461E46C1B1531E4FF0FF3708
:101AD0001E44E90020460F310909FFF741FE237833
:101AE00000216FF30003616023704DB9D4E9011048
:101AF00000EB4101FFF783FD6060F8BD0127E8E7D7
:101B000000230F290ADC3278013D3E4402FA01F23B
:101B100001F1080143EA02039BB2F2D16268103975
:101B2000501C6060A06820F81230DEE738B50B78F2
:101B30000446057803F0010305F00100181A0CD1E2
:101B400063684A68934209D30BD88A681946A0682B
:101B5000FFF73AFEEB0748BF404238BD4FF0FF3079
:101B6000F8E70120F6E7884210B5044601D0FFF7F8
:101B700077FE23786FF30003237010BD884210B501
:101B8000044601D0FFF76CFE63683BB12378C3F3D2
:101B90000002C2F1010262F30003237010BD88420B
:101BA0001FB5044601D0FFF75BFE626862B90121F0
:101BB0002046FFF7D5FD0123A268138063602378D8
:101BC00043F00103237010E02378D9070FD56FF39A
:101BD0000003A168237001230846ADF80E3000937E
:101BE0000DF10E03FFF762FD606004B010BD511CE3
:101BF0002046FFF7B5FD0123D4E90121ADF80E30F1
:101C0000009308460DF10E03FFF725FD6060D6E74F
:101C10002DE9F8434B6805460E46144603B12AB930
:101C200031462846BDE8F843FFF71ABE02F10F011E
:101C30004FEA111803EB1111FFF792FD14F00F0496
:101C4000AB6808BF1024D6E90102C4F1100408EB08
:101C5000000702EB400E002207F10041013903EBBF
:101C600041030146994601BB6FF0010C22FA04F4CE
:101C700008F1FF320CFB00FC520003EB0C0023F8D0
:101C80000C40C8F1010300EB4303184641F022FE6B
:101C9000831E17B133F8172092B12B786F6032781A
:101CA00062F300032B70BDE8F8833EF802CD0139E2
:101CB0004CEA020222FA04FC120429F802C9D2E713
:101CC000013FE6E7F0B50E46496885B00546144683
:101CD00001B12AB931462846FFF7C2FD05B0F0BD73
:101CE000FFF73EFD2346A868D6E90121FFF794FCE3
:101CF0002B786860327862F300032B70DB07EDD538
:101D0000002322097168ADF80E30994201D0934248
:101D10000FD19142E2D9B36804F00F0433F81220D6
:101D2000012303FA04F4013C224213D0ADF80E3033
:101D300008E0B76837F8137057B101239142ADF846
:101D40000E30E8D8A968012348B90B806B60C5E75D
:101D50000133DAE7BDF80E30002BBFD0F2E70246C0
:101D6000009308460DF10E03FFF775FC6860B5E7B8
:101D700073B553680C46496806461546994206D322
:101D800008D89268A068FFF71FFD002802DA2346F2
:101D90002C461D4623782A7861685340DB071BD404
:101DA00001313046FFF7DCFC6B68B0680093AB682C
:101DB000D4E90121FFF74FFC706023787268C3F308
:101DC0000003002A0CBF002303F00103327863F301
:101DD0000002327002B070BD3046FFF7C1FC6B6884
:101DE000B0680093AB68D4E90121FFF75FFCE3E73B
:101DF000F7B553680C46496805461646994206D31E
:101E000024D89268A068FFF7DFFC00281EDA23467A
:101E1000012734461E462378327861685340DB0739
:101E200016D501312846FFF79BFC7368A86800931C
:101E3000B368D4E90121FFF70EFC68606A682B786B
:101E400092B962F300032B7003B0F0BD0027E2E704
:101E50002846FFF785FC7368A8680093B368D4E947
:101E60000121FFF723FCE8E7227802F00102002FAE
:101E7000E7D0C2F10102E4E72DE9F04F15464A68C8
:101E80000E4685B06B6804469A423EBF0B462E460E
:101E90001D4633787168DB0721D42B7813F00107D6
:101EA0001DD1FFF75DFCA068B6683B46D5E9011C73
:101EB00099420BD100EB4101FFF7A1FB2378606051
