:020000040000FA
:10000000000400200108000095040000E107000042
:100010009F040000A9040000B304000000000000D9
:1000200000000000000000000000000025080000A3
:10003000BD04000000000000C7040000D10400005F
:10004000DB040000E5040000EF040000F9040000F8
:10005000030500000D050000170500002105000044
:100060002B050000350500003F0500004905000094
:10007000530500005D0500006705000071050000E4
:100080007B050000850500008F0500009905000034
:10009000A3050000AD050000B7050000C105000084
:1000A000CB050000D5050000DF050000E9050000D4
:1000B000F3050000FD050000070600001106000022
:1000C0001B060000250600002F0600003906000070
:1000D000430600004D0600005706000061060000C0
:1000E0006B060000750600007F0600008906000010
:1000F000930600009D060000A7060000B106000060
:10010000BB0600001FB500F003F88DE80F001FBD0F
:1001100000F06CBBF0B54FF6FF734FF4B4751A46A0
:100120006E1E11E0A94201D3344600E00C46091BC3
:1001300030F8027B641E3B441A44F9D19CB204EBB4
:10014000134394B204EB12420029EBD198B200EBB6
:10015000134002EB124140EA0140F0BDB24992B0B7
:100160000446D1E90001CDE91001FF224021684693
:1001700000F0E2FA94E80F008DE80F00684610A93D
:1001800002E004C841F8042D8842FAD110216846E3
:10019000FFF7C0FF1090AA208DF8440000F0F1F89E
:1001A0004FF01024A06910226946803000F0F2F868
:1001B000A069082210A900F0EDF800F0D6F84FF081
:1001C00080510A69496900684A43824201D8102077
:1001D00070470020704710B5D0E900214FF08050E3
:1001E00002EB8103026944696243934209D84FF0EC
:1001F0001022536903EB81030169406941438B423B
:1002000001D9092010BD5069401C01D0002010BD4B
:100210000F2010BD70B501680446844D4FF01020CA
:10022000072950D2DFE801F0330419293C1E2500CC
:10023000D4E9026564682946304600F0BDF82A46D4
:100240002146304600F0A6F8AA002146304600F0CC
:1002500047FA002800D0032070BD00F0F9FA4FF4EF
:10026000805007E0201DFFF7AAFF0028F4D100F01E
:10027000EFFA60682860002070BD241D94E8070034
:10028000920000F02DFA0028F6D00E2070BD806993
:10029000401C12D0201DFFF79EFF0028F6D109E078
:1002A0008069401C09D0201DFFF789FF0028EDD18F
:1002B000606820B12046FFF751FF042070BD00F0B8
:1002C00060F800F052F8072070BD10B50C461828F1
:1002D00002D00120086010BD2068FFF79BFF20605E
:1002E00010BD4FF01024A069401C05D0A569A66977
:1002F00080353079AA2808D06069401C2DD060690B
:100300000068401C29D060692CE010212846FFF7C6
:1003100001FF316881421CD1A16901F18002C03125
:1003200005E030B108CA51F8040D984201D101200E
:1003300000E000208A42F4D158B1286810B10428A6
:1003400003D0FEE7284600F049F83849686808609D
:1003500008E000F016F800F008F84FF4805001684B
:10036000491C01D000F04EFAFEE7BFF34F8F304832
:100370000168304A01F4E06111430160BFF34F8F1F
:10038000FEE74FF010208169491C02D0806900F01F
:1003900058B870472DE9F04117460D46064600242F
:1003A00006E03046296800F05FF8641C2D1D361DFC
:1003B000BC42F6D3BDE8F08170B50C4605464FF45B
:1003C000806608E0284600F03CF8B44205D3A4F566
:1003D000806405F58055002CF4D170BD4168044659
:1003E00009B1012500E000254FF010267069A268D0
:1003F000920000F075F938B145B17669A568646876
:100400004FF48010844203D3FFF7BBFFFFF7ADFF2B
:100410008542F9D229463046FFF7CEFF2A462146CB
:100420003046FFF7B7FFEFE7740800000000002038
:100430000CED00E00400FA05144801680029FCD026
:100440007047134A0221116010490B68002BFCD041
:100450000F4B1B1D186008680028FCD0002010609E
:1004600008680028FCD07047094B10B501221A60BB
:10047000064A1468002CFCD0016010680028FCD0EB
:100480000020186010680028FCD010BD00E4014076
:1004900004E5014008208F490968095808471020E1
:1004A0008C4909680958084714208A49096809587D
:1004B00008471820874909680958084730208549A6
:1004C00009680958084738208249096809580847C7
:1004D0003C20804909680958084740207D4909683F
:1004E0000958084744207B490968095808474820AB
:1004F00078490968095808474C207649096809581D
:100500000847502073490968095808475420714921
:1005100009680958084758206E490968095808476A
:100520005C206C49096809580847602069490968D6
:10053000095808476420674909680958084768202E
:1005400064490968095808476C20624909680958D4
:10055000084770205F4909680958084774205D49B9
:1005600009680958084778205A490968095808470E
:100570007C2058490968095808478020554909686E
:1005800009580847842053490968095808478820B2
:1005900050490968095808478C204E49096809588C
:1005A000084790204B490968095808479420494951
:1005B00009680958084798204649096809580847B2
:1005C0009C204449096809580847A0204149096806
:1005D00009580847A4203F49096809580847A82036
:1005E0003C49096809580847AC203A490968095844
:1005F0000847B0203749096809580847B4203549E9
:10060000096809580847B820324909680958084755
:10061000BC203049096809580847C0202D4909689D
:1006200009580847C4202B49096809580847C820B9
:100630002849096809580847CC20264909680958FB
:100640000847D0202349096809580847D420214980
:10065000096809580847D8201E49096809580847F9
:10066000DC201C49096809580847E0201949096835
:1006700009580847E4201749096809580847E8203D
:100680001449096809580847EC20124909680958B3
:100690000847F0200F49096809580847F4200D4918
:1006A000096809580847F8200A490968095808479D
:1006B000FC2008490968095808475FF4807005491B
:1006C000096809580847000003480449024A034BD7
:1006D0007047000000000020800800008008000033
:1006E00040EA010310B59B070FD1042A0DD310C8AF
:1006F00008C9121F9C42F8D020BA19BA884201D901
:10070000012010BD4FF0FF3010BD1AB1D30703D048
:10071000521C07E0002010BD10F8013B11F8014BFE
:100720001B1B07D110F8013B11F8014B1B1B01D11A
:10073000921EF1D1184610BD02F0FF0343EA0322D6
:1007400042EA024200F005B87047704770474FF028
:1007500000020429C0F0128010F0030C00F01B808E
:10076000CCF1040CBCF1020F18BF00F8012BA8BF9C
:1007700020F8022BA1EB0C0100F00DB85FEAC17C60
:1007800024BF00F8012B00F8012B48BF00F8012B13
:1007900070474FF0000200B5134694469646203944
:1007A00022BFA0E80C50A0E80C50B1F12001BFF42A
:1007B000F7AF090728BFA0E80C5048BF0CC05DF890
:1007C00004EB890028BF40F8042B08BF704748BFDE
:1007D00020F8022B11F0804F18BF00F8012B704752
:1007E000014B1B68DB6818470000002009480A49D4
:1007F0007047FFF7FBFFFFF785FC00BD20BFFDE75B
:10080000064B1847064A1060016881F30888406863
:10081000004700008008000080080000E30200009C
:10082000000000201EF0040F0CBFEFF30881EFF36F
:100830000981886902380078182803D100E0000097
:10084000074A1047074A12682C3212681047000006
:1008500000B5054B1B68054A9B58984700BD000032
:10086000CB0200000000002070080000040000001F
:10087000001000000000000000FFFFFF0090D00308
:10100000481300201D3B0200CDBB00008F3A0200B8
:10101000CDBB0000CDBB0000CDBB00000000000038
:10102000000000000000000000000000753B02000E
:10103000CDBB000000000000CDBB0000CDBB000018
:10104000DD3B0200E33B0200CDBB0000CDBB000056
:10105000CDBB0000CDBB0000CDBB0000CDBB000070
:10106000E93B0200CDBB0000CDBB0000EF3B02001E
:10107000CDBB0000F53B0200FB3B0200013C02003F
:10108000CDBB0000CDBB0000CDBB0000CDBB000040
:10109000CDBB0000CDBB0000CDBB0000CDBB000030
:1010A000CDBB0000073C0200CDBB0000CDBB000063
:1010B000CDBB0000CDBB0000CDBB0000CDBB000010
:1010C0000D3C0200CDBB0000CDBB0000CDBB00003D
:1010D000CDBB0000CDBB0000CDBB0000CDBB0000F0
:1010E000CDBB0000CDBB0000CDBB0000CDBB0000E0
:1010F000CDBB0000CDBB0000CDBB0000CDBB0000D0
:10110000CDBB0000CDBB000000F002F822F0F3FCE4
:101110000AA090E8000C82448344AAF10107DA4552
:1011200001D122F0E8FCAFF2090EBAE80F0013F08B
:10113000010F18BFFB1A43F001031847802F02006C
:10114000A02F02000A4410F8014B14F00F0508BF4D
:1011500010F8015B240908BF10F8014B6D1E05D083
:1011600010F8013B6D1E01F8013BF9D1641E03D05C
:10117000641E01F8015BFBD19142E4D3704700008B
:101180000023002400250026103A28BF78C1FBD890
:10119000520728BF30C148BF0B6070471FB500F031
:1011A0003DF88DE80F001FBD1EF0040F0CBFEFF3DC
:1011B0000880EFF30980014A104700003B2E000031
:1011C0008269034981614FF00100104470470000BB
:1011D000D511000001B41EB400B512F045FA01B4F7
:1011E0000198864601BC01B01EBD0000F0B4404627
:1011F000494652465B460FB402A0013001B506488D
:10120000004700BF01BC86460FBC80468946924617
:101210009B46F0BC704700000911000022F068BC3A
:1012200070B51A4C054609202070A01C00F05FF82C
:101230005920A08029462046BDE8704007F0AEBF87
:1012400007F0B7BF70B50C461149097829B1A0F174
:101250006001552908D3012013E0602804D06928D3
:1012600002D043F201000CE020CC0A4E94E80E00BC
:1012700006EB8000A0F58050241FD0F8806E284631
:10128000B047206070BD01207047000008000020BA
:101290001C000020603C020010B504460021012023
:1012A00000F03CF800210B2000F038F80421192050
:1012B00000F034F804210D2000F030F804210E2055
:1012C00000F02CF804210F2000F028F80421C84376
:1012D00000F024F80621162000F020F80621152041
:1012E00000F01CF82046FFF79BFF002010BD4FF6D2
:1012F000FE7101807047FFF7A3BF10487047104A86
:1013000010B514680E4B0F4A08331A60FFF79AFFA6
:101310000B48001D046010BD704770474907090E57
:10132000002806DA00F00F0000F1E02080F8141D1C
:10133000704700F1E02080F80014704703F9004284
:101340001005024001000001FE48002101604160DB
:10135000018170472DE9F743044692B091464068F9
:1013600012F048FC40B1606812F04DFC20B9607882
:1013700000F00300022801D0012000E00020F14E1F
:101380004D463072484612F0F1FB18B1102015B0EE
:10139000BDE8F0832946012001F02AFF0028F6D19C
:1013A00001258DF842504FF4C050ADF840000022A6
:1013B00010A9284606F090FB0028E8D18DF842508D
:1013C0004FF428504FF00008ADF8400047461C216C
:1013D0006846CDF81C8022F02EFB9DF81C0008AA60
:1013E00020F00F00401C20F0F00010308DF81C00A1
:1013F00020788DF81D0061789DF81E0061F3420091
:1014000040F001008DF81E009DF800000AA940F090
:1014100002008DF800002089ADF83000ADF8327080
:10142000608907AFADF834000B97606810AC0E9080
:101430000A94684606F045F90028A8D1BDF82000B6
:1014400030808DF8425042F60120ADF840009DF802
:101450001E0008AA20F00600801C20F001008DF874
:101460001E000220ADF83000ADF8340013A80E9035
:101470000AA9684606F025F9002888D1BDF82000A1
:101480007080311D484600F033F9002887D18DF86F
:10149000425042F6A620ADF840001C216846CDF827
:1014A0001C8022F0C8FA9DF81C00ADF8345020F0E2
:1014B0000F00401C20F0F00010308DF81C009DF84B
:1014C0001D0008AA20F0FF008DF81D009DF81E00E9
:1014D0000AA920F0060040F00100801C8DF81E00D3
:1014E0009DF800008DF8445040F002008DF8000097
:1014F000CDE90A4711A80E90ADF83050684606F0C5
:10150000E0F8002899D1BDF82000F08000203EE7E7
:101510003EB504460820ADF80000204612F026FB38
:1015200008B110203EBD2146012001F061FE0028D7
:10153000F8D12088ADF804006088ADF80600A088D6
:10154000ADF80800E088ADF80A007E4801AB6A46B5
:101550008088002106F0BAFCBDF800100829E1D00F
:1015600003203EBD1FB50446002002900820ADF8C0
:101570000800CDF80CD0204612F0F8FA10B1102077
:1015800004B010BD6F4802AA81884FF6FF7006F0C4
:10159000E4FE0028F4D1BDF80810082901D003208A
:1015A000EEE7BDF800102180BDF802106180BDF8A3
:1015B0000410A180BDF80610E180E1E701B582B01A
:1015C0000220ADF800005F4802AB6A464088002167
:1015D00006F07CFCBDF80010022900D003200EBDEF
:1015E0001CB5002100910221ADF80010019012F00D
:1015F000E3FA08B110201CBD52486A4641884FF6F4
:10160000FF7006F0AAFEBDF800100229F3D00320F7
:101610001CBDFEB54B4C06461546207A0F46C0074A
:1016200005D0084612F0A2FA18B11020FEBD0F2016
:10163000FEBDF82D01D90C20FEBD304612F096FA01
:1016400018BB208801A905F082FD0028F4D130786C
:101650008DF80500208801A906F017FC0028EBD1C1
:1016600000909DF800009DF8051040F002008DF8F4
:101670000000090703D040F008008DF80000208822
:10168000694606F09FFB0028D6D1ADF808502088A7
:101690003B4602AA002106F019FCBDF80810A94239
:1016A000CAD00320FEBD7CB5054600200090019005
:1016B0000888ADF800000C462846019512F09AFA09
:1016C00018B9204612F078FA08B110207CBD15B187
:1016D000BDF8000050B11B486A4601884FF6FF7004
:1016E00006F03BFEBDF8001021807CBD0C207CBDC7
:1016F00030B593B0044600200D460090142101A897
:1017000022F099F91C2108A822F095F99DF8000013
:10171000CDF808D020F00F00401C20F0F000103071
:101720008DF800009DF8010020F0FF008DF8010009
:101730009DF8200040F002008DF8200001208DF877
:10174000460001E0E601002042F60420ADF8440026
:1017500011A801902088ADF83C006088ADF83E00EB
:10176000A088ADF84000E088ADF842009DF8020086
:1017700006AA20F00600801C20F001008DF802006F
:101780000820ADF80C00ADF810000FA8059001A9D5
:1017900008A805F096FF002803D1BDF8180028809E
:1017A000002013B030BD0000F0B5007B059F1E4641
:1017B00014460D46012800D0FFDF0C2030803A206F
:1017C0003880002C08D0287A032806D0287B0128EE
:1017D00000D0FFDF17206081F0BDA889FBE72DE96D
:1017E000F04786B0144691F80C900E9A0D46B9F168
:1017F000010F0BD01021007B2E8A8846052807D0C8
:10180000062833D0FFDF06B0BDE8F0870221F2E7FB
:10181000E8890C2100EB400001EB400018803320E8
:101820001080002CEFD0E889608100271AE0009634
:10183000688808F1020301AA696900F085FF06EBD8
:101840000800801C07EB470186B204EB4102BDF89B
:10185000040090810DF1060140460E3210F02CFA82
:101860007F1CBFB26089B842E1D8CCE73420108039
:10187000E889B9F1010F11D0122148430E301880C8
:10188000002CC0D0E88960814846B9F1010F00D032
:101890000220207300270DF1040A1FE00621ECE767
:1018A0000096688808F1020301AA696900F04CFFFC
:1018B00006EB0800801C86B2B9F1010F12D007EBCD
:1018C000C70004EB4000BDF80410C18110220AF1EA
:1018D0000201103022F00EF87F1CBFB26089B842BE
:1018E000DED890E707EB470104EB4102BDF80400A6
:1018F000D0810AF102014046103210F0DDF9EBE729
:101900002DE9F0470E4688B090F80CC096F80C8090
:10191000378AF5890C20109902F10C044FF0000A67
:10192000BCF1030F08D0BCF1040F3ED0BCF1070F8F
:101930007DD0FFDF08B067E705EB850C00EB4C00BE
:10194000188031200880002AF4D0A8F1060000F0A9
:10195000FF09558125E0182101A822F06CF80097B5
:101960007088434601AA716900F0EEFEBDF80400DC
:101970002080BDF80600E080BDF808002081A21C90
:101980000DF10A01484610F097F9B9F1000F00D0A7
:1019900018B184F804A0A4F802A007EB080087B2ED
:1019A0000A346D1EADB2D6D2C4E705EB850C00EB50
:1019B0004C00188032200880002ABBD0A8F1050016
:1019C00000F0FF09558137E000977088434601AA6F
:1019D000716900F0B9FE9DF80600BDF80410E180C1
:1019E0002179420860F3000162F34101820862F349
:1019F0008201C20862F3C301020962F304114209C1
:101A000062F34511820962F386112171C009607188
:101A1000BDF80700208122460DF10901484610F06B
:101A20004BF918B184F802A0A4F800A000E007E088
:101A300007EB080087B20A346D1EADB2C4D279E755
:101A4000A8F1020084B205FB08F000F10E0CA3F827
:101A500000C035230B80002AA6D0558194810097C1
:101A600083B270880E32716900F06EFE62E72DE974
:101A7000F84F1E460A9D0C4681462AB1607A00F551
:101A80008070D080E089108199F80C000C274FF00D
:101A900000084FF00E0A0D2873D2DFE800F09E0711
:101AA0000E1C28303846556A737373002146484629
:101AB0000095FFF779FEBDE8F88F207B9146082856
:101AC00002D0032800D0FFDF378030200AE000BFBB
:101AD000A9F80A80EFE7207B9146042800D0FFDFB9
:101AE000378031202880B9F1000FF1D1E3E7207B66
:101AF0009146042800D0FFDF37803220F2E7207BB8
:101B00009146022800D0FFDF37803320EAE7207BB0
:101B10001746022800D0FFDF3420A6F800A0288056
:101B2000002FC8D0A7F80A80C5E7207B17460428F5
:101B300000D0FFDF3520A6F800A02880002FBAD003
:101B40004046A7F80A8012E0207B1746052802D0FD
:101B5000062800D0FFDF1020308036202880002F9C
:101B6000A9D0E0897881A7F80E80B9F80E00B88175
:101B7000A1E7207B9146072800D0FFDF3780372080
:101B8000B0E72AE04FF0120018804FF0380017003D
:101B9000288090D0E0897881A7F80E80A7F810807F
:101BA00099F80C000A2805D00B2809D00C280DD074
:101BB000FFDF80E7207B0A2800D0FFDF01200AE05A
:101BC000207B0B2800D0FFDF042004E0207B0C28C2
:101BD00000D0FFDF052038736DE7FFDF6BE770B5DE
:101BE0000C46054601F07DFA20B10078222804D287
:101BF000082070BD43F2020070BD052128460EF09A
:101C000067FC206008B1002070BD032070BD30B4B7
:101C10004880087820F00F00C01C20F0F0009030C1
:101C200001F8080B1DCA81E81D0030BC07F037BB66
:101C30002DE9FF4784B00027824602970798904617
:101C4000894612300AF012F8401D20F0030607986A
:101C500028B907A95046FFF7C2FF002853D1B9F1B0
:101C6000000F05D00798017B19BB052504681BE010
:101C700098F80000092803D00D2812D0FFDF45E0B6
:101C8000079903254868B0B3497B42887143914264
:101C900038D98AB2B3B2011D0EF08BFA0446078020
:101CA00002E0079C042508340CB1208810B1032DF4
:101CB00028D02BE00798012112300AF009F8ADF87E
:101CC0000C00024602AB2946504608F02AF90700EC
:101CD00001D1A01C029007983A461230C8F80400BF
:101CE000A8F802A003A94046029B09F0FEFFC0B17C
:101CF000072814D200E005E0DFE800F00608111123
:101D00000F0A0C00132015E6002013E6112011E63F
:101D100008200FE643F203000CE607200AE6032042
:101D200008E6BDF80C002346CDE900702A4650466F
:101D3000079900F019FD57B9032D08D10798B3B2E0
:101D4000417B406871438AB2011D0EF046FAB9F139
:101D5000000FD9D0079981F80C90D5E72DE9FE4FF7
:101D600091461A881C468A468046FAB102AB49461B
:101D700008F0D7F8050019D04046A61C27880EF0B9
:101D8000EBFC3246072629463B4600960EF0F7F854
:101D900020882346CDE900504A465146404600F08F
:101DA000E3FC002020800120BDE8FE8F0020FBE73F
:101DB00010B586B01C46AAB104238DF800301388F4
:101DC000ADF808305288ADF80A208A788DF80E20D8
:101DD0000988ADF80C1000236A462146FFF728FF5A
:101DE00006B010BD1020FBE770B50D4605210EF0C2
:101DF0006FFB040000D1FFDF294604F11200BDE8AB
:101E0000704009F04EBF2DE9F8430D46804600268C
:101E100007F042FA04462878102878D2DFE800F06C
:101E2000773B345331311231313108313131313175
:101E30002879001FC0B2022801D0102810D114BB8D
:101E4000FFDF35E004B9FFDF052140460EF040FB1F
:101E5000007B032806D004280BD0072828D0FFDFFA
:101E6000072655E02879801FC0B2022820D050B143
:101E7000F6E72879401FC0B2022819D0102817D0E1
:101E8000EEE704B9FFDF13E004B9FFDF287901288A
:101E90000ED1172137E0052140460EF019FB07004F
:101EA00000D1FFDF07F11201404609F0D7FE2CB147
:101EB0002A4621464046FFF7AAFE29E01321404664
:101EC00002F038FC24E004B9FFDF052140460EF0A3
:101ED000FFFA060000D1FFDF694606F1120009F0A3
:101EE000C7FE060000D0FFDFA988172901D21722FC
:101EF00000E00A46BDF80000824202D9014602E035
:101F000005E01729C5D3404600F03EFCD0E7FFDFCF
:101F10003046BDE8F883401D20F0030219B102FBF2
:101F200001F0001D00E000201044704713B5009838
:101F300050B100244FEA0D000EF0E5F8002C02D15C
:101F4000F74A009911601CBD01240020F4E72DE937
:101F5000F0470C4615462421204621F06CFD05B9BA
:101F6000FFDFA87860732888DFF8B4A3401D20F055
:101F70000301AF788946DAF800000EF0E2F80600B7
:101F800000D1FFDF4FF000082660A6F8008077B18F
:101F900009FB07F1091D0AD0DAF800000EF0D1F8AC
:101FA000060000D1FFDF6660C6F8008001E0C4F8DB
:101FB0000480298804F11200BDE8F04709F040BE12
:101FC0002DE9F047804601F112000D46814609F0E7
:101FD0004DFE401DD24F20F003026E7B144629684F
:101FE00038680EF0D9F83EB104FB06F2121D03D09A
:101FF000696838680EF0D0F805200EF011FA044632
:1020000005200EF015FA201A012802D138680EF0CA
:102010008DF849464046BDE8F04709F026BE70B548
:10202000054605210EF054FA040000D1FFDF04F14B
:1020300012012846BDE8704009F010BE2DE9F04FAE
:1020400091B04FF0000BADF834B0ADF804B0478854
:102050000C4605469246052138460EF039FA060030
:1020600000D1FFDF24B1A780A4F806B0A4F808B01F
:10207000297809220B20B2EB111F7DD12A7A04F1B5
:10208000100138274FF00C084FF001090391102A76
:1020900073D2DFE802F072F2F1F07F08D2888D9FF0
:1020A0003DDBF3EEB6B6307B022800D0FFDFA88917
:1020B00008EBC001ADF804103021ADF83410002C4D
:1020C00025D06081B5F80E9000271DE004EBC7080D
:1020D000317C88F80E10F189A8F80C10CDF800902A
:1020E0006888042304AA296900F02EFBBDF81010AB
:1020F000A8F8101009F10400BDF812107F1C1FFA97
:1021000080F9A8F81210BFB26089B842DED80DE19C
:10211000307B022800D0FFDFE98908EBC100ADF871
:1021200004003020ADF83400287B0A90001FC0B2B4
:102130000F90002CEBD06181B5F81090002725E0BE
:10214000CDF800906888696903AA0A9B00F0FCFA40
:102150000A9804EBC70848441FFA80F908F10C02FA
:1021600004A90F980FF0A8FD18B188F80EB0A8F8D0
:102170000CB0BDF80C1001E0D4E0CFE0A8F81010CE
:10218000BDF80E107F1CA8F81210BFB26089B842CB
:10219000D6D8CBE00DA8009001AB224629463046A8
:1021A000FFF71DFBC2E0307B082805D0FFDF03E00E
:1021B000307B082800D0FFDFE8891030ADF804003C
:1021C0003620ADF83400002C3FD0A9896181F18917
:1021D000A18127E0307B092800D0FFDFA88900F12A
:1021E0000C01ADF804103721ADF83410002C2CD0C0
:1021F0006081E8890090AB89688804F10C02296944
:1022000056E0E8893921103080B2ADF80400ADF80D
:102210003410002C74D0A9896181287A0E280AD044
:1022200002212173E989E181288A0090EB8968887D
:102230006969039A3CE00121F3E70DA8009001AB26
:10224000224629463046FFF75BFB6FE0307B0A28C9
:1022500000D0FFDF1220ADF80400ADF834704CB3AD
:10226000A9896181A4F810B0A4F80EB084F80C908C
:102270005CE020E002E031E039E042E0307B0B2816
:1022800000D0FFDF288AADF834701230ADF80400BA
:1022900084B104212173A9896181E989E181298AB5
:1022A0002182688A00902B8A688804F11202696989
:1022B00000F04AFA3AE0307B0C2800D0FFDF122011
:1022C000ADF80400ADF834703CB305212173A4F8D7
:1022D0000AB0A4F80EB0A4F810B027E00DA8009042
:1022E00001AB224629463046FFF75EFA1EE00DA8F4
:1022F000009001AB224629463046FFF7B8FB15E0B7
:1023000036E03B21ADF80400ADF8341084B3A4F8F6
:102310000690A4F808B084F80AB007E0FFDF05E0F3
:1023200010000020297A012919D0FFDFBDF8040030
:10233000AAF800007CB1BDF834002080BDF804008C
:102340006080BDF83400392805D03B2803D03C28F4
:1023500001D086F80CB011B00020BDE8F08F3C2110
:10236000ADF80400ADF8341014B1697AA172DDE75C
:10237000FFE7AAF80000EEE72DE9F84356880F467C
:1023800080461546052130460EF0A2F8040000D123
:10239000FFDF123400943B46414630466A6809F03C
:1023A000D6FDB6E570B50D4605210EF091F8040096
:1023B00000D1FFDF294604F11200BDE8704009F0AA
:1023C00062BC70B50D4605210EF082F8040000D104
:1023D000FFDF294604F11200BDE8704009F080BC1F
:1023E00070B5054605210EF073F8040000D1FFDF3B
:1023F00004F1080321462846BDE870400422ADE4FC
:1024000070B5054605210EF063F8040000D1FFDF2A
:10241000214628462368BDE8704005229EE470B539
:10242000064605210EF054F8040000D1FFDF04F148
:10243000120009F01BFC401D20F0030511E0011DF6
:1024400000880322431821463046FFF787FC002806
:102450000BD0607BABB2684382B26068011D0DF0A7
:10246000F2FE606841880029E9D170BD70B50E4662
:10247000054606F011FF040000D1FFDF01202072A5
:1024800066726580207820F00F00C01C20F0F000FC
:1024900030302070BDE8704006F001BF2DE9F043F8
:1024A0008BB00D461446814606A9FFF798FB00281D
:1024B00014D14FF6FF7601274FF420588CB103203A
:1024C0008DF800001020ADF8100007A8059007AAAD
:1024D000204604A90FF00FFC78B107200BB0BDE82F
:1024E000F0830820ADF808508DF80E708DF80000CC
:1024F000ADF80A60ADF80C800CE00698A178017484
:102500002188C1818DF80E70ADF80850ADF80C80AF
:10251000ADF80A606A4602214846069BFFF788FB31
:10252000DCE708B501228DF8022042F60202ADF880
:1025300000200A4603236946FFF73AFC08BD08B5A8
:1025400001228DF8022042F60302ADF800200A466F
:1025500004236946FFF72CFC08BD00B587B079B1AC
:1025600002228DF800200A88ADF808204988ADF8CD
:102570000A1000236A460521FFF75AFB07B000BD89
:102580001020FBE709B1072312E40720704770B55C
:1025900088B00D461446064606A9FFF720FB002822
:1025A0000ED17CB10620ADF808508DF80000ADF8D2
:1025B0000A40069B6A460821DC813046FFF738FB5B
:1025C00008B070BD05208DF80000ADF80850F0E7A8
:1025D00000B587B059B107238DF80030ADF8082059
:1025E000039100236A460921FFF722FBC6E710206A
:1025F000C4E770B588B00C460646002506A9FFF76B
:10260000EEFA0028DCD106980121123009F060FBB7
:102610009CB12178062921D2DFE801F020050516BA
:102620000318801E80B2C01EE28880B20AB1A3687F
:102630001BB1824203D90C20C2E71020C0E7042955
:1026400004D0A08850B901E00620B9E7012913D0D1
:10265000022905D004291CD005292AD00720AFE77C
:1026600009208DF800006088ADF80800E088ADF81A
:102670000A00A068039023E00A208DF8000060881B
:10268000ADF80800E088ADF80A00A0680A250390BC
:1026900016E00B208DF800006088ADF80800A088D7
:1026A000ADF80A00E088ADF80C00A0680B25049096
:1026B00006E00C208DF8000060788DF808000C25ED
:1026C0006A4629463046069BFFF7B2FA78E700B51E
:1026D00087B00D228DF80020ADF8081000236A465F
:1026E0001946FFF7A5FA49E700B587B071B1022294
:1026F0008DF800200A88ADF808204988ADF80A1046
:1027000000236A460621FFF793FA37E7102035E7E2
:1027100070B586B0064601200D46ADF808108DF85C
:102720000000014600236A463046FFF781FA0400A4
:1027300008D12946304605F0E3FB0021304605F07C
:10274000FDFB204606B070BDF8B51C4615460E468A
:10275000069F0DF0EFFF2346FF1DBCB231462A460F
:1027600000940DF0D8FBF8BD30B41146DDE902420B
:102770003CB1032903D0002330BC08F05ABA01232E
:10278000FAE71A8030BC704770B50C460546FFF773
:102790002BFB2146284605F0C2FB2846BDE87040C9
:1027A000012105F0CBBB00004FF0E0224FF40041C7
:1027B0000020C2F88011204908702049900208606A
:1027C000704730B51C4D04462878A04218BF002C35
:1027D00002D0002818BFFFDF2878A04208BF30BD14
:1027E0002C701749154A0020ECB1164DDFF858C07F
:1027F000131F012C0DD0022C1CBFFFDF30BD086061
:1028000003200860CCF800504FF4000010601860FE
:1028100030BD086002200860CCF800504FF04070D6
:102820001060186030BD086008604FF06070106084
:1028300030BD00B5FFDF00BD1800002008F50140E5
:1028400000F500403803002014F5004070B50B205F
:1028500000F0B5F9082000F0B2F900210B2000F0DB
:10286000C4F90021082000F0C0F9EC4C0125656096
:10287000A5600020C4F84001C4F84401C4F8480130
:102880000B2000F0A7F9082000F0A4F90B2000F0BD
:102890008BF9256070BD10B50B2000F090F9082071
:1028A00000F08DF9DD48012141608160DC490A6852
:1028B000002AFCD10021C0F84011C0F84411C0F832
:1028C00048110B2000F086F9BDE81040082000F008
:1028D00081B910B50B2000F07DF9BDE8104008204B
:1028E00000F078B900B530B1012806D0022806D032
:1028F000FFDF002000BDCB4800BDCB4800BDCA486B
:10290000001D00BD70B5C9494FF000400860C84DBA
:10291000C00BC5F80803C74800240460C5F840414F
:102920000820C43500F04BF9C5F83C41C24804709A
:1029300070BD08B5B94A002128B1012811D002287C
:102940001CD0FFDF08BD4FF48030C2F80803C2F886
:102950004803B3483C300160C2F84011BDE808406C
:10296000D0E74FF40030C2F80803C2F84803AC487F
:1029700040300160C2F84411AB480CE04FF48020B5
:10298000C2F80803C2F84803A54844300160C2F801
:102990004811A548001D0068009008BD70B5164696
:1029A0000D460446022800D9FFDF00229B48012380
:1029B00004F110018B4000EB8401C1F8405526B1B1
:1029C000C1F84021C0F8043303E0C0F80833C1F86F
:1029D0004021C0F8443370BD2DE9F0411C46154636
:1029E00030B1012834D0022839D0FFDFBDE8F081B2
:1029F000891E002221F07F411046FFF7CFFF012CF6
:102A000024D000208C4E8A4F012470703C6189498B
:102A100000203C3908600220091D08608549042017
:102A20003039086083483D350560C7F8004208200A
:102A300000F0D0F82004C7F80403082000F0B4F830
:102A40007A49E007091F08603470CFE70120D9E711
:102A5000012B02D00022012005E00122FBE7012B1F
:102A600004D000220220BDE8F04197E70122F9E7F7
:102A70006B480068704770B500F0C7F8674C0546B2
:102A8000D4F840010026012809D1D4F80803C00376
:102A900005D54FF48030C4F80803C4F84061D4F879
:102AA000440101280CD1D4F80803800308D54FF461
:102AB0000030C4F80803C4F84461012010F0E0F8C5
:102AC000D4F8480101280CD1D4F80803400308D5F4
:102AD0004FF48020C4F80803C4F84861022010F0C5
:102AE000CFF85648056070BD70B500F08EF8524DB5
:102AF0000446287858B1FFF705FF687820B1002018
:102B000085F8010010F0BCF84C48046070BD03204B
:102B1000F8E74FF0E0214FF40010C1F800027047D1
:102B2000152000F057B8424901200861082000F044
:102B300051B83F494FF47C10C1F808030020024609
:102B400001EB8003C3F84025C3F84021401CC0B20C
:102B50000628F5D37047410A43F609525143C0F3A2
:102B6000080010FB02F000F5807001EB5020704768
:102B700010B5430B48F2376463431B0C5C020C60D6
:102B80002F4C03FB04002F4B4CF2F72443435B0D07
:102B900013FB04F404EB402000F580704012107029
:102BA00008681844086010BD00F01F020121914020
:102BB0004009800000F1E020C0F80011704700F0EB
:102BC0001F02012191404009800000F1E020C0F87F
:102BD0008011704700F01F020121914040098000E0
:102BE00000F1E020C0F8801270474907090E002864
:102BF00006DA00F00F0000F1E02080F8141D7047A5
:102C000000F1E02080F8001470470C48001F0068B5
:102C10000A4A0D49121D11607047000000B00040C3
:102C200004B500404081004044B1004008F5014037
:102C3000008000404085004038000020140502401C
:102C4000F7C2FFFF6F0C0100010000010A4810B538
:102C50000468094909480831086010F0A5F80648D9
:102C6000001D046010BD0649002008604FF0E021FF
:102C70000220C1F8800270471005024001000001E7
:102C8000FC1F004010B50D2000F06FF8C4B26FF0CB
:102C9000040000F06AF8C0B2844200D0FFDF3A4975
:102CA0000120086010BD70B50D2000F048F8374CC9
:102CB0000020C4F800010125C4F804530D2000F0E1
:102CC00049F825604FF0E0216014C1F8000170BDA3
:102CD00010B50D2000F033F82C480121416000218F
:102CE000C0F80011BDE810400D2000F033B82848AE
:102CF00010B5046826492748083108602349D1F8EF
:102D00000001012804D0FFDF2148001D046010BD30
:102D10001D48001D00680022C0B2C1F8002110F05B
:102D20001BFCF1E710B51948D0F800110029FBD0C1
:102D3000FFF7DDFFBDE810400D2000F00BB800F0FC
:102D40001F02012191404009800000F1E020C0F8FD
:102D50008011704700F01F0201219140400980005E
:102D600000F1E020C0F880127047002806DA00F079
:102D70000F0000F1E02090F8140D03E000F1E020D6
:102D800090F800044009704704D5004000D000408E
:102D9000100502400100000110B5202000F075F878
:102DA000202000F07DF84449202081F800044349A8
:102DB00000060860091D42480860FEF79EFA3F4978
:102DC000C83108603F48D0F8041341F00101C0F851
:102DD0000413D0F8041341F08071C0F8041336498D
:102DE00001201C39C1F8000110BD10B5202000F0F1
:102DF0004CF8324800210160001D01602F4A481E36
:102E0000E83A10602F4AC2F808032C4BC833196007
:102E1000C2F80001C2F860012B490860BDE810400B
:102E2000202000F03DB825492848EC39086070475B
:102E300022492648E8390860704770B51F4A806902
:102E4000E83A224911601F49D1F800610023204D62
:102E50001D4A5C1E1EB1A84206D300210FE0D1F826
:102E6000606186B1A84209D2C1F80031C1F8603171
:102E70001460BDE87040202000F012B81168BDE871
:102E8000704020F003BEFFDF70BD00F01F02012183
:102E900091404009800000F1E020C0F880117047A7
:102EA00000F01F02012191404009800000F1E02064
:102EB000C0F880127047000020E000E000060240E9
:102EC000C413002000000240000402400100000181
:102ED000005002004FF0E0214FF00070C1F8800177
:102EE000C1F88002384B802283F80024C1F8000129
:102EF000704700B502460420344903E001EBC003EB
:102F00001B792BB1401EC0B2F8D2FFDFFF2000BDFD
:102F100041F8302001EBC00100224A718A71012280
:102F20000A7100BD294A002102EBC00001717047FF
:102F300010B50446042800D3FFDF244800EBC40486
:102F40002079012800D0FFDF6079A179401CC0B250
:102F5000814200D060714FF0E0214FF00070C1F865
:102F6000000210BD2DE9F0411948056818491948BB
:102F7000083108601448042690F80004134F4009F3
:102F8000154C042818D0FFDF16E0217807EBC100AC
:102F90000279012A08D1427983799A4204D0427990
:102FA000827157F8310080472078401CC0B22070F1
:102FB000042801D300202070761EF6B2E5D2044822
:102FC000001D0560BDE8F08119E000E074060020F6
:102FD00010050240010000015000002070B50C46B1
:102FE000054609F051F921462846BDE870400AF02F
:102FF00034BA704770477047704770477047000099
:103000002CFFFFFFDBE5B15100500200FEFFFFFF88
:103010008C000000808D5B0086FA71F377B11C5242
:103020008E1A95B8DDF423C04F8DD92A30B5F94DED
:10303000044610280AD0112C06D02846122CC1783C
:1030400006D0132C08D0FFDFEC7030BDFFDFFBE7AC
:103050001129F9D0FFDFF7E71129F5D0FFDFF3E7FA
:1030600070B50EF0B3FF044610F04CF9201AC4B24C
:1030700006200DF0D5F9054606200DF0D9F92E1AD7
:1030800007200DF0CDF9054607200DF0D1F9E149F3
:10309000281A3218C87812280DD000231A44132891
:1030A0000BD0002002440878022808D000201044E9
:1030B000201AC0B270BD0123F0E70120F2E7012021
:1030C000F5E7D44810B5817900F10700490805D02B
:1030D0000BF0AAF9BDE8104005F014BF0BF07DF924
:1030E000F8E702210DF0F4B92DE9FC411D469046A8
:1030F0000E460746FFF7F5FF04000AD02078222885
:1031000004D3A07FC0F34010A84205D10820BDE839
:10311000FC8143F20200FAE7ADF800703DB10120F6
:103120008DF802008DF803608DF8048002E0002025
:103130008DF8020068460CF0A5FAA07F65F34510F3
:10314000A0770020E3E730B50446A1F120000D464A
:103150000A284AD2DFE800F005070C1C2328353A7C
:103160003F44FFDF42E0207820283FD1FFDF3DE0F1
:10317000A8480178032939D0C078132836D02078A0
:10318000242833D0252831D023282FD0FFDF2DE06D
:10319000207822282AD0232828D8FFDF26E020788C
:1031A000222823D0FFDF21E0207822281ED02428E7
:1031B0001CD026281AD0272818D0292816D0FFDF9F
:1031C00014E02078252811D0FFDF0FE02078252893
:1031D0000CD0FFDF0AE02078252807D0FFDF05E0CC
:1031E0002078282802D0FFDF00E0FFDF257030BD07
:1031F00030B50B8840F67B444FF6FF72022801D0B1
:10320000934204D09D1FA54224D2022802D04D88AB
:10321000954203D04D88AD1FA5421BD24C88A342D6
:1032200018D88B88B3F5FA7F14D2022802D0C88848
:10323000904205D0C88840F677450A38A84209D29E
:10324000C888904208D0944206D05B1C6343B3EB1D
:10325000800F01DB072030BD002030BD70B5144663
:103260000D46064610F082FC58B90DB1A54201D9B1
:103270000C2070BD002408E056F8240010F076FC05
:1032800008B1102070BD641CE4B2AC42F4D300203D
:1032900070BD2DE9F0411F4690460E4605004FF0E7
:1032A000000465D010F0AFFC18B9286810F0ABFC32
:1032B00010B11020BDE8F08128680028A88802D04D
:1032C000B84202D84FE00028F4D00920F2E729687C
:1032D000085DB0B1671CCA5D152A2DD03BDC3AD21F
:1032E000DFE802F03912222228282A2A313139391E
:1032F00039393939393939392200085D30BB641C14
:10330000E4B2A242F9D833E00228DED1A01C085C66
:1033100088F80000072801D2400701D40A20C9E735
:10332000307840F0010015E0C143C90707E00128EB
:1033300007D010E00620BDE70107A1F18051002968
:10334000F5D01846B6E73078810701D50B20B1E7F4
:1033500040F0020030702868005D3844C4B2A8888C
:10336000A04202D2B1E74FF4485382B2A242AED893
:1033700000209FE710B50278540809D0012243F2DB
:103380000223012C07D0022C0DD0032C13D10FE007
:103390000020087005E080790324B4EB901F0AD167
:1033A0000A70002010BD8079B2EB901F03D1F7E7BF
:1033B00080798009F4D0184610BD164A117C39B1C5
:1033C000517C022908D0032908D043F2022070471B
:1033D0000146901D01F09ABC032100E0012101701B
:1033E0000020704738B50C460546694601F08EFC52
:1033F00000280DD19DF80010207861F3470020705F
:1034000055F8010FC4F80100A888A4F805000020B1
:1034100038BD0000D001002038B51378C0B10228B3
:1034200016D0FEA46D46246800944C7905EB9414E4
:10343000247864F34703137003280ED003F0FE00D2
:1034400010700868C2F801008888A2F80500DFE75C
:1034500023F0FE0313700228EED1D8B240F0010031
:10346000EEE738B50C460978222901D20820CFE7CB
:10347000ADF800008DF8022068460BF01CF805F04E
:1034800041FD050003D121212046FFF75CFE2846BF
:10349000BEE71FB5ADF800001088ADF802005088F7
:1034A000ADF80400D088ADF808009088ADF80600AB
:1034B0000020ADF80A00ADF80C0068460BF0CCFD1A
:1034C00005F020FD04B010BD1CB500208DF80000F3
:1034D000CDF80100ADF80500D148007C022801D0EC
:1034E000012000E000208DF8070068460BF037F956
:1034F000002800D0FFDF1CBD2DE9FF470220C84E89
:103500008DF804000027B08AADF80600B84643F2F3
:1035100002094DE001A80CF042FF050006D0B08A78
:10352000A8B3A6F81480ADF806803FE0039CA07F06
:1035300001072DD504F124000090A28EBDF80800EB
:10354000214604F1360301F0B6FD050005D04D45D6
:103550002BD0112D3DD0FFDF3BE0A07F20F00800F5
:10356000A077E07F810861F30000C10861F34100AA
:10357000E07794F8210000F01F0084F82000207804
:10358000282827D129212046FFF7DDFD22E015E07C
:1035900040070BD5BDF80800214604F10E02FFF7E5
:1035A00078FF05000DD04D4510D100257F1CFFB2DE
:1035B00002200CF035FF401CB842ABD8052D12D0CC
:1035C00008E0A07F20F00400A07703E0112D00D0D8
:1035D000FFDF0025BDF80600B082052D05D0284686
:1035E00004B0BDE8F087A6F814800020F8E770B5B5
:1035F0000646FFF776FD054605F04EFE040000D1B5
:10360000FFDF6680207820F00F00801C20F0F000A3
:10361000203020700620207295F83E006072BDE8D0
:10362000704005F03CBE2DE9F04786B0040000D1A3
:10363000FFDF20787A4E20F00F00801C20F0F00091
:103640007030207060680178091F1A2932D2DFE8D3
:1036500001F00DEC31313154EB310DEBEB41EC313C
:10366000310D77ECEC313131ECECEAE9868830460B
:10367000FFF737FD0546304607F0D9F9E0B160683D
:10368000807985F83E0021212846FFF75CFD304611
:10369000FEF7C5FC304603F057FF3146022010F01C
:1036A00019FAA87F20F01000A877FFF725FF00285F
:1036B00000D0FFDF06B094E7207820F0F000203043
:1036C000207006202072668060688079607205F044
:1036D000E6FDD8E785882846FFF703FD00B9FFDF40
:1036E00060688078012800D0FFDF6068817906B0CB
:1036F0002846BDE8F04707F077BD86883046FFF7DB
:10370000F0FC050000D1FFDF05F0C9FD606831461F
:10371000C088288160680089688160684089A881C4
:10372000022010F0D7F90020A875A87F00F0030050
:103730000228BFD1FFF7E0FE0028BBD0FFDFB9E7CA
:1037400080783C2803D0002502280AD000E001251B
:10375000002720B13C2802D0022800D0FFDF17B19B
:10376000B7E00127F5E705F09AFD1DB1B07801F04B
:1037700092FAA0E06568B5F804A0A879AD1C01280C
:1037800006D03079814605F02FFB070003D101E018
:10379000B078F7E7FFDF0022022150460CF08FFEE1
:1037A000040000D1FFDF22212046FFF7CCFC28795E
:1037B000012800D00220A17F804668F30101A17793
:1037C000288B2081688B6081A88BA08184F822904F
:1037D0008DF80880B8680090F86801906A46032167
:1037E00050460CF06CFE00B9FFDFB888ADF8100051
:1037F000B8788DF8120004AA052150460CF05FFE3F
:1038000000B9FFDFB888ADF80C00F8788DF80E002D
:1038100003AA042150460CF052FE07E00302FF0108
:10382000D00100206FE068E061E073E000B9FFDFE5
:10383000062105F1120001F094FA00B368798007BF
:1038400000D5FFDF6979E07D61F34700E075D5F8C9
:103850000600A0616889A083062105F10C0001F033
:1038600080FAB0B1B0794108607861F347006070C8
:10387000D6F80700C4F80200B6F80B0012E0E07DAD
:1038800020F0FE00801CE075D5F81200A061E88AE7
:10389000E1E7607820F0FE00801C6070E868C4F802
:1038A0000200288AE080B8F1010F04D0B8F1020FBD
:1038B0000FD0FFDFFEE63078032800D0FFDF0021C5
:1038C000084610F007F906B00120BDE8F04701F006
:1038D000B1B9F078132800D0FFDF0021062010F0E6
:1038E000F9F806B01120BDE8F047FFF79FBB06B01E
:1038F0002046BDE8F04701F089BE05F0D0FCB07C61
:1039000040F0020004E005F0CAFCB07C40F0040086
:10391000B074CFE606B0BDE8F04705F0C0BC2DE9B5
:10392000F04705460078914600270209F7480C4603
:103930003E46012A6CD000234FF6FF71022A68D060
:10394000072A0AD00A2A70D0FFDF00BFA9F800605A
:103950000CB127806680002043E6D5F804C09CF8AF
:103960000020162A7ED00CDC102A21D004DC052A87
:103970005CD0092A59D10DE0142A22D0152AF9D198
:10398000CCE01A2A0BD01B2A6DD01C2A6CD01D2A21
:10399000F0D19DE012271026BCF8040006E11C2798
:1039A0000926A4B3BCF80200A080686800794CE145
:1039B0001B2709265CB30320207268684088A0801A
:1039C000C4E79CF802003C2829D0102718260CF1E7
:1039D000020CE4B1BCF80200A080BCF818006082C0
:1039E000BCF818002082BCF81A00A082BCF81C00A9
:1039F000E0829CF8050004F108020CF10601FFF7D3
:103A00000BFD9CF8040028B10120E0739EE703E061
:103A1000AFE0CFE00220F8E7A9F800609BE71B27A2
:103A20000926002CF8D0237290E710E11D274026CC
:103A3000002CF1D0A180696804F10A02081DCB783E
:103A400001461846FFF7E8FC68681F22C07A6077D5
:103A50006868808920816868807AE07704F12000B6
:103A6000696802E045E021E06CE01C311FF042FF94
:103A7000696804F1110201F115000B7D0146184639
:103A8000FFF7CAFC6868807B01F07AF920766868E5
:103A9000C07B01F075F960766868408A6083686869
:103AA000007CA0776868C07E20774FE7202710262B
:103AB000002CB1D0A180686804F10902807A2072DC
:103AC0006968081DCB7801461846FFF7A5FC3DE75D
:103AD00021270A26002C9FD0BCF80210A18069681B
:103AE00009792172696849796172817C21F0040148
:103AF00057E022270B26002C8ED0BCF80400A080B3
:103B00006868807820726868807901F039F960729D
:103B10006868C07901F034F9A07217E724271026ED
:103B2000002C86D0BCF80200A08068680079208153
:103B30006868007A60816868C088A0816868408988
:103B4000E08103E723271026002CB2D0BCF8021036
:103B5000A1806968898821816968C98861816968EB
:103B60000989A18169684989E181817C21F002018B
:103B700017E0297A012903D0022914D0FFDFE5E6F6
:103B80001F271026002C94D06988A180A989218143
:103B9000E9896181298AA181698AE181817C21F099
:103BA00001018174D2E6122768881026214601F0AF
:103BB000C5F8CBE6287A072850D2DFE800F0373D79
:103BC0003D484848040011270926002C94D0B5F838
:103BD00002804046FFF785FA90F822A0A4F80480FE
:103BE000687A2072042140460CF084FC052140468E
:103BF0000CF080FC002140460CF07CFC012140468A
:103C00000CF078FC032140460CF074FC0221404685
:103C10000CF070FC062140460CF06CFC072140467D
:103C20000CF068FC504601F036F88FE61B27092699
:103C3000002C8AD0A180F6E61B270926002C84D010
:103C4000A180287A012800D0022020727EE64A4610
:103C500021462846BDE8F04701F05EBEFFDF75E66D
:103C600070B52A4DE878132801D0082070BD0BF0FC
:103C7000CAF905F047F9040002D1287901F00BF8E0
:103C8000002106200FF026FF204670BD1CB51F48FE
:103C9000C078122801D008201CBD00208DF800003B
:103CA00068460AF0EDFE05F02DF90028F4D1002158
:103CB00006200FF00FFF1120FFF7B8F900201CBD00
:103CC0001CB5124C2178012916D000218DF8001066
:103CD00001218DF801108DF8020068460BF06DFC93
:103CE00005F010F9002808D1002108460FF0F2FE77
:103CF0002078032802D004E008201CBDA07800F042
:103D0000CAFF012000F096FF00201CBDD00100205A
:103D100070B5002538B1022818D0062837D00728FA
:103D200000D0FFDF70BD0020FFF7CAFF0028F9D1E7
:103D300005F0B2FA0028F5D0017821F00F01891CB6
:103D400021F0F0012031017005723FE08EB2304663
:103D5000FFF7C7F9040000D1FFDF20782128E1D068
:103D600005F09AFA60B1017821F00F01891C21F069
:103D7000F00110310170022101724680A57525E025
:103D800021463046BDE870401322FFF76ABBFE486B
:103D9000C478122C03D0132C04D0FFDF70BDFFF7C2
:103DA00075FF01E0FFF75CFF0028F7D105F074FA1A
:103DB0000028F3D0017821F00F01891C21F0F001D7
:103DC00020310170122C05D002210172BDE8704033
:103DD00005F065BA0121F8E72DE9F04116460C001F
:103DE000804600D1FFDF307820F00F00801C20F0EB
:103DF000F000103030702078012804D0022817D04D
:103E0000FFDFBDE8F0814046FFF76BF9050000D108
:103E1000FFDF0320A87505F042FA94E80F0008368A
:103E200086E80F00D848817C41F001018174E8E701
:103E30004046FFF756F9050000D1FFDFA1884FF695
:103E4000FF700027814202D1E288824203D0814282
:103E500001D1E08840B105F022FA94E80F0008365D
:103E600086E80F00AF75CCE7A87D0128C9D178237B
:103E70000022414602200FF083FD0220A875C0E712
:103E800038B505460C4608460FF070FE20BB203DB5
:103E9000072D51D2DFE805F0041C383D43493100BD
:103EA000002107200FF0ECFD08B1112038BDA01C47
:103EB0000BF03EF905F026F805003ED1002208235C
:103EC000114607200FF05CFD072836D0FFDF34E0F5
:103ED00060680FF08FFE08B1102038BD618820881F
:103EE0006A460BF01DFC05F00DF8050025D1606851
:103EF00018B3BDF8001001801FE0A07800F00101A8
:103F000020880BF043FC14E0206801F0A3FF054675
:103F100013E0207800F001000BF0B4FC09E02078F9
:103F200000F001000AF04CFA03E0618820880BF0F1
:103F300086FB04F0E7FFEAE70725284638BD70B5A1
:103F400005460C4608460FF037FE08B1102070BD3C
:103F5000203D072D1BD2DFE805F0041818181A1AA7
:103F600018002088FFF7BDF820B10078222804D27D
:103F7000082070BD43F2020070BD2088A11C0AF029
:103F800016FBBDE8704004F0BDBF062070BD0720E1
:103F900070BD7D48801D704738B516217A481FF0E6
:103FA00028FD012000F046FE1120FFF73FF8764C77
:103FB0006846E11D05F006F99DF80010A07961F34F
:103FC000470020F00100A071002020744FF46170C0
:103FD000E08102206074FFF774F800B1FFDFFDF7A5
:103FE000B3F901F0D0FA38BD10B50C464021204697
:103FF0001FF0FFFCA07F20F00300A077202020709E
:104000000020A07584F8230010BD70477CB50546DC
:104010000FF0ACFD08B110207CBD5B4CA11DD4F8A5
:1040200006000090D4F80A0001902846FFF7DAF95C
:104030000028F1D1FFF745F80028EDD00099C4F829
:104040000610BDF8041061819DF8061021737CBD37
:1040500010B504460FF0B0FD08B1102010BD4A495C
:1040600022468879C91D4008FFF7D6F9002010BD07
:10407000FEB50D4604004FF0000712D00822FFF7EE
:10408000EDF8002812D1002609E000BF54F8260000
:104090006946FFF76FF9002808D1761CF6B2AE42E8
:1040A000F4D30AF091F810B143F20320FEBD364E6E
:1040B0007771FCB100271AE054F8270002A9FFF736
:1040C00059F900B1FFDF9DF808008DF8000054F8A1
:1040D000270050F8011FCDF801108088ADF80500C9
:1040E00068460AF0BBF800B1FFDF7F1CFFB2AF42A9
:1040F000E2D375710020FEBD2DE9F0478AB0154668
:10410000894604001DD00F4608222946FFF7A6F86D
:10411000002810D1002612E054F82600694610301D
:1041200000F0F4FD002806D13FB157F826000FF04B
:104130001DFD10B110200AB00EE4761CF6B2AE429E
:10414000EAD30026A5F101081CE000BF06F1010A30
:104150000AF0FF0712E000BF54F82600017C4A086D
:1041600054F827100B7CB2EB530F05D10622113007
:1041700011311FF093FB70B17F1CFFB2AF42EBD344
:104180000AF0FF06464501E0D0010020DEDB4E4686
:1041900024B1012003E043F20520CCE700200AF01F
:1041A0008EF810B90AF09FF810B143F20420C2E76C
:1041B00064B300270DF1170826E000BF54F827006C
:1041C0006946103000F0A2FD00B1FFDF54F827006F
:1041D000102250F8111FCDF801108088ADF80500AD
:1041E00054F827100DF107001FF084FB96B156F824
:1041F0002710102240461FF07DFB684609F0FCFFA7
:1042000000B1FFDF7F1CFFB2AF42D7D3FFF75CF9ED
:10421000002090E7404601F011FEEEE730B585B092
:1042200004460FF0A3FC18B960680FF0ECFC10B165
:10423000102005B030BD60884AF2B811884206D817
:104240002078F94D28B1012806D0022804D0072093
:10425000EFE7FEF736FF17E06078022804D0032866
:1042600002D043F20220E4E76874C1B2002000905B
:10427000ADF8040002292BD0032926D0FFDF6846C1
:104280000AF0D2F804F03EFE0028D2D1606801F0B6
:10429000C8FD207858B101208DF800000DF1010013
:1042A00001F0CCFD68460BF0CFFA00B1FFDF2078BB
:1042B0002874FFF709F9608860B1E88180B209F0DD
:1042C000F6FF00B1FFDF0020B3E78DF80500D6E769
:1042D0004020FAE74FF46170EFE710B504460FF0A5
:1042E0006BFC20B9606838B10FF084FC08B1102075
:1042F00010BD606801F0A2FDCB48C1896180417C9E
:104300006170007C2070002010BD30B58FB000209F
:1043100015468DF830008DF82C008DF828008DF8AA
:1043200034000C4651EA050016D01F230AAA0CA936
:104330002046FEF7AEFF00280CD11F230DAA0BA9C3
:104340002846FEF7A6FF002804D19DF82C00C007E0
:1043500004D00A200FB030BD0720FBE7ACB103202A
:104360008DF8010001208DF80200A088ADF804004E
:10437000A2880DF1060021681FF0BCFA68460AF019
:10438000EBFF04F0BFFD0028E4D13DB12879296896
:104390000AF0FDFF04F0B6FD0028DBD1A2499DF82C
:1043A000280048700020D5E72DE9F0478EB0804600
:1043B0004FF000099DA00C468DF81C90D0E900102C
:1043C000CDE90810924620460FF0D0FB88B920793D
:1043D000400703D520680FF0C9FB50B9924D012763
:1043E000287C50B1687C022807D120680FF00BFCB4
:1043F00018B110200EB0BDE8F0872878012801D050
:104400000820F7E707200CF013F820B92079C0073F
:1044100001D01220EEE7FEF723FE18B1A088C109F3
:104420007ED101E01320E5E7A168824BA1F12002D3
:104430009A4206D3020773D5002971D1A1890029B8
:104440006ED169784FEA4070C90709D0002810DBA7
:10445000A089002864D044F25061884260D801E00D
:10446000002806DB287C50B1687C022807D1206830
:1044700028B107A92068FEF77DFF0028BAD1207C6B
:1044800030B1012806D0022806D0032848D105E023
:10449000002604E0012602E0022600E00326A088B0
:1044A000C10701D181071DD5410712D48EB16979A9
:1044B000002935D06978890702D043F2012099E7B5
:1044C000810706D5C00706D1022E29D0032E27D09A
:1044D00008E0C00706D0504600F0C0FB002889D194
:1044E00085F802A08DF80080A088ADF80200A068D1
:1044F0000190A06802900DF10D00FEF75EFF00B183
:10450000FFDF9DF81C008DF80E002079400706D4CF
:10451000287C68B1687C02280AD1206840B100E09C
:1045200059E0206850F8011FCDF80F10808802E094
:104530004846CDF80F90ADF813008DF81560E07B7C
:10454000C0F34002014662F35F01C0F3800041EA1C
:10455000800008A9085C8DF80C00E0B37F208DF87E
:104560001600E07C8DF81800207D032100F07F000C
:104570008DF81A00207DC0098DF81B00627C072091
:10458000012A39D0022A9AD0042A98D18DF817101E
:104590002079C00609D4A27C0720012A2FD0022A44
:1045A00030D0042A8BD18DF819100CA968460AF076
:1045B000BAFE04F0A7FC002891D18DF828708DF880
:1045C00029708DF82A80A089ADF82C00A07B8DF889
:1045D0002E000AA800E00DE00AF0EFFF04F092FCC4
:1045E0000028D2D12079C00710D0A87800F046FB6F
:1045F00003200CE00720FDE68DF81770C8E78DF862
:104600001970D2E702208DF81900CEE7022000F0E1
:1046100011FB2079000719D4A089B8B164280BD305
:104620006421B0FBF1F008E0D0010020070605048A
:1046300003020100E0FFFF00012000228300114679
:1046400010460FF09DF908B10320D3E60020D1E613
:104650002DE9FC4107460D46032608460FF0D3FA24
:10466000002865D13846FEF73CFD040005D02078CF
:10467000222805D20820BDE8FC8143F20200FAE7B7
:10468000A07F00F0030C2DB129466046FEF7B0FD77
:104690000600F0D1BCF1010F05D0BCF1020F18D01B
:1046A000FFDF3046E7E7A07D2946022801D011B19F
:1046B00007E01120DFE76846FCF754FF0028DAD155
:1046C0006946384606F053FD0600EAD10120A07580
:1046D000E7E7A07D032803D1F748807CC00701D01D
:1046E00035B30EE025B1A07F40071FD4002100E0C4
:1046F0000121384606F05BFD0600D2D1A075002DE1
:10470000CFD02A4621463846FEF7C3FE064611287A
:10471000C7D1A07F4107C4D4296844F80E1F696837
:10472000616040F0040020740026BAE71126B8E763
:104730001020A0E770B50C460546FEF7D2FC01003C
:1047400005D022462846BDE87040FEF78ABE43F2F7
:10475000020070BD10B509F0EDFDBDE8104004F099
:10476000D1BB0123FEF7C0BC00231A461946FEF751
:10477000BBBC30B587B004460FF0F8F910B110207B
:1047800007B030BD204600F0B5FA0028F8D1CA4D78
:10479000E878112801D00820F2E7FEF761FC38B173
:1047A0002078C0F34100012804D0032802D003E0A0
:1047B0001320E5E76879E8B36846FEF7FEFD00B12F
:1047C000FFDF20780125C0F341008DF801006178FA
:1047D000072001293AD00229D2D00429D0D10420BF
:1047E0008DF80200207800F001008DF80300608849
:1047F000ADF80600A088ADF80A0068460AF09FF8F8
:1048000004F080FB0028BBD18DF810508DF811000A
:10481000ADF812002089ADF8140004A80AF030F9B0
:1048200004F070FB0028ABD1E088642811D280B17D
:10483000012000E008E000F073FA0400A0D112208B
:10484000FEF7F4FB20469BE7072099E78DF802501E
:10485000C8E76421B0FBF1F0EBE72DE9F047964E95
:10486000074690B0F0789A4615460C46122803D1B8
:10487000FFF70CFA002816D120460FF077F9E8BBB5
:1048800028460FF073F9C8BB204600F033FA002821
:1048900009D129460220FEF7ABFC002803D1F078AD
:1048A000112802D0082010B0A5E506200BF0C0FDAD
:1048B00038B12078C0F34100012804D0032802D089
:1048C00003E01220EFE7707928B1FEF7C9FB022858
:1048D00003D21320E7E70720E5E720784FF001092E
:1048E000C0F341008DF8000061780720012915D040
:1048F0000229D8D00429D6D1042000E015E08DF893
:1049000009006088ADF80A00A088ADF81000207892
:104910004FF000084008C00703D020E08DF8099050
:10492000EFE738460FF022F908B11020BBE73878DE
:10493000400808D0012809D0022807D0032805D054
:1049400043F20220AFE78DF8028001E08DF802907B
:1049500057F8010FCDF80300B888ADF807000DF146
:104960000100FEF72AFD08B103209CE72888ADF876
:1049700016006888ADF81C00A888ADF82200E88809
:10498000ADF82800ADF82E80ADF83480504600F028
:1049900065F9002887D186F804A068460AF030FB44
:1049A00004F0B0FA00288DD1307900F067F9E08882
:1049B00064280AD248B1012000F0B2F9040089D17C
:1049C0001320FEF733FB20466DE76421B0FBF1F0C6
:1049D000F2E770B505460C4608460FF0EDF808B151
:1049E000102070BD2846FEF77CFB38B101782229E3
:1049F00002D3807F800604D4082070BD43F20200F9
:104A000070BD214628460AF072FEBDE8704004F0F1
:104A100079BA38B505460C4608460FF0A7F808B134
:104A2000102038BD2846FEF75CFB20B10078222814
:104A300004D2082038BD43F2020038BD1E48807CF5
:104A4000400701D5112038BD2078C00802D1607818
:104A5000C00801D0072038BDADF8005020788DF88F
:104A6000020060788DF80300684609F05EFF04F0EC
:104A700049FA38BD2DE9F0418EB014460D46064680
:104A8000FEF72FFB070006D03878222806D2082030
:104A90000EB0BDE8F08143F20200F9E728460FF0BE
:104AA000B2F830B94FF0000864B120460FF0A2F818
:104AB00020B11020ECE70000D0010020C4F80080F5
:104AC000A4F80480B648807C800701D51120DFE778
:104AD00097F8220004F088F98088011DFB2901D293
:104AE000001D00E0FB20C0B26A46294600F0DDF858
:104AF000ADF81060BDF80200ADF81200BDF8060078
:104B0000ADF81400BDF80000ADF81600BDF80400C3
:104B1000ADF8180007A904A809F0C9FD00B1FFDF2E
:104B2000BDF81E00ADF80800BDF82000ADF80A0081
:104B3000BDF82200BDF82410BDF800200844ADF8EF
:104B40000C0007201B2AA3D3BDF802101B299FD3FA
:104B5000FB2A9DD8FB299BD806278A4210D1012128
:104B6000104600F056F8BDF80410884208D1BDF890
:104B70000200012100F04DF8BDF80610884201D076
:104B8000384685E7BDF8080028B9BDF80A1011B904
:104B9000BDF80C1029B35DB1298849B1698839B1D4
:104BA00024B102982060BDF80C00A08013206FE7AC
:104BB000BDF80010BDF80A20081A80B2ADF8000058
:104BC000BDF80210891AADF80210012100F021F899
:104BD000ADF80400BDF80200012100F01AF8ADF8AC
:104BE0000600ADF82860BDF80200ADF82A00BDF857
:104BF0000600ADF82C00BDF80000ADF82E00BDF8A1
:104C00000400ADF830000AA809F0F0FC04F07AF9CD
:104C10003EE711F00C0F04D04FF4747101EB8010DB
:104C200006E0022902D0C000703001E080003C3074
:104C300080B2704730B55A4D040008D0012C04D022
:104C4000022C06D0032C04D0FFDF2C7030BDFFDF18
:104C5000FBE728780128F8D0FFDFF6E710B5044617
:104C600004F0C2F830B1407830B1204604F0BBFB0C
:104C7000002010BD072010BD122010BD10B504F09B
:104C8000B3F8040000D1FFDF607800B9FFDF60787F
:104C9000401E607010BD10B504F0A6F8040000D1ED
:104CA000FFDF6078401C607010BD10B5144631B154
:104CB0000A68226049686160218839B107E0208074
:104CC00060800121FFF7A5FFA0800DE020806188B2
:104CD00001B96080A08820B920880121FFF799FFE1
:104CE000A080E088002804D160880121FFF791FFAF
:104CF000E08010BD4188042906D38088042803D3AE
:104D0000884201D800207047072070470278520877
:104D100004D0012A02D043F202207047FEF72ABBDA
:104D200010B548B183000022114606200EF028FE7F
:104D3000062801D0032010BD002010BD70B50C0066
:104D400006460DD0FEF7CDF9050000D1FFDFA680A5
:104D500028892081288960816889A081A889E081CB
:104D600070BD10B500231A4603E0845C2343521C37
:104D7000D2B28A42F9D30BB1002010BD012010BD80
:104D800000B540B1012805D0022803D0032804D083
:104D9000FFDF002000BDFF2000BD042000BD00009B
:104DA000D001002010B504460EF0E0FE08B110203E
:104DB00010BD2078C0F30210042807D860780728B7
:104DC00004D3A178102901D8814201D2072010BD57
:104DD000E078410706D421794A0703D4000701D4BB
:104DE000080701D5062010BD002010BD10B51378AE
:104DF0005C08C37F64F30003C3771478A40864F3EA
:104E00004103C3771078C309487863F341004870C1
:104E100013781C090B7864F347130B701378DB08C5
:104E200063F3000048705078487110BD10B5C47825
:104E30000B7864F300030B70C478640864F34103D7
:104E40000B70C478A40864F382030B70C478E40880
:104E500064F3C3030B700379117863F300011170DD
:104E600003795B0863F34101117003799B0863F3D5
:104E7000820111700079C00860F3C301117010BD88
:104E800070B514460D46064604F006FA80B1017866
:104E9000182221F00F01891C21F0F001A03100F847
:104EA000081B21461EF06BFDBDE8704004F0F7B909
:104EB00029463046BDE870401322FEF7D2BA10B53D
:104EC000FE4C94F8300000280CD104F120014FF67C
:104ED000FF72A1F110000CF075FE00B1FFDF0120A0
:104EE00084F8300010BD2DE9F047064608A8894631
:104EF00090E830041F469046142128461EF09BFD82
:104F00000021CAF80010B8F1000F03D0B9F1000F6A
:104F100003D114E03878C00711D020680EF04CFEA1
:104F2000C8BBB8F1000F07D1206812302860206894
:104F3000143068602068A8602168CAF800103878CA
:104F4000800725D560680EF055FE20BBB9F1000F33
:104F500022D0FFF71EF80168C6F8C8118188A6F8AC
:104F6000CC11807986F8CE01FFF7A9FFD34F203707
:104F7000EF60626862B196F8C80106F2C911400894
:104F80001032FEF749FA1022394660681EF0B2FC72
:104F90000020BDE8F08706E0606820B1E860606846
:104FA000C6F8C401F4E71020F3E730B505460878E9
:104FB0000C4620F00F00401C20F0F0011031217051
:104FC0000020607095F8230030B104280FD0052828
:104FD00011D0062814D0FFDF20780121B1EB101F7B
:104FE00004D295F8200000F01F00607030BD21F061
:104FF000F000203002E021F0F00030302070EBE7CC
:1050000021F0F0004030F9E710B510B190F8BD4044
:1050100044B1AA4890F83540002064B1086010609F
:10502000186010BD00F1BC040C6000F1E40100F553
:1050300086701160F4E7A14C34340C60EFE700B5E2
:105040008BB00723CDE902128DF8013001919B4905
:10505000002364310591099301468DF810306846AC
:105060000CF088FD002800D0FFDF0BB000BD70B54C
:1050700090B015460C4602220646ADF808200921DC
:1050800003AB04F04EFF0490002812D00C208DF8E2
:10509000010004208DF8040004F59A740996059423
:1050A0008DF818500AA968460CF064FD00B1FFDFC6
:1050B000012010B070BD10B588B00C460A99ADF84B
:1050C0000000C3B11868CDF802005868CDF806009A
:1050D000ADF80A20102203A81EF00CFC68460AF066
:1050E00057F803F00FFF002803D1A17F41F0100112
:1050F000A17708B010BD0020CDF80200E6E72DE949
:10510000F0470646808A88B080B20D468246FDF799
:10511000E8FF04463078DFF8A4914FF00008A9F1C9
:105120003807112873D2DFE800F072F735093677B7
:105130007E94A3E7F6F5F4F35BF3F300A07F00F0B1
:105140000300012806D0002150460BF0C1F90500EC
:1051500003D101E00121F7E7FFDF99F85C10C907EF
:1051600002D0D9F860000BE0032105F121000EF018
:10517000D4F9D5F821005249B0FBF1F201FB12003D
:10518000C5F821007068A867B068E867207825280E
:1051900000D0FFDFE6E0A07F00F00300012806D08A
:1051A000002150460BF094F9060003D101E00121E3
:1051B000F7E7FFDF3078810702D52178252904D071
:1051C00040F00100307008B0E3E60220287096F845
:1051D0002000287106F121003136C5E90206F2E708
:1051E000A07F00F00300012806D0002150460BF0FC
:1051F0006FF9040003D101E00121F7E7FFDF207818
:10520000C10605D51320287041346C60DBE7B8E196
:1052100040F008002070D6E72848082138380EF002
:105220007CF9032012E01022684671681EF062FBD0
:10523000102204A8B1681EF05DFB6F60D6E9010181
:105240003A4609F0B6F800B1FFDF042028706F601D
:10525000B9E7E07FC00600D5FFDF307CB28800F000
:10526000010308B05046BDE8F047092105F0E1BC54
:1052700004B9FFDF716821B1102204F124001EF08F
:1052800039FB28212046FDF75EFFA07F00F00300D8
:1052900002280ED104F12400002300901A46214672
:1052A0005046FFF708FF11280CD029212046FDF7B2
:1052B0004AFF307A84F8200085E700002C020020A5
:1052C00040420F00A07F000700D5FFDF14F81E0F3B
:1052D00040F008002070A4F81680C4F81880C4F8C4
:1052E0001C806178084661F38200410861F3C300C5
:1052F0006070307AE07066E7A07F00F0030001285C
:105300000BD0002150460BF0E3F8040008D106E072
:105310001AE032E16DE044E02BE00121F2E7FFDF2B
:10532000022104F189000EF0F8F81020287004F52D
:10533000E4706860B4F88910298204F18000FB49A8
:105340006861C5E902913EE7A07F00F003000128F3
:1053500005D0002150460BF0BBF818B901E001213F
:10536000F8E7FFDF08B0324621465046BDE8F04777
:1053700086E504B9FFDF207821289DD930790128FE
:1053800003D1E07F40F01000E077324621465046DE
:10539000FFF776FD08B02046BDE8F0472321FDF772
:1053A000D2BE3279AA8005F108030921504604F0E3
:1053B000B8FDE86010B11120287004E7A07F00F06C
:1053C0000300012806D0002150460BF081F80400AC
:1053D00003D101E00121F7E7FFDF04F166010223B9
:1053E0001022081F0AF0F9FE80F800803179417020
:1053F000E9E6A07F00F00300012806D00021504616
:105400000BF066F8050003D101E00121F7E7FFDFAB
:1054100095F8880000F00300012879D1A07F00F002
:105420000307E07FC0F3400616B1012F04D02BE044
:1054300095F8A400C0072AD0D5F8C01119B395F883
:105440008720087C62F387000874E27FD5F8C011DA
:1054500062F341000874D5F8C01166F300000874C7
:10546000AEB1D5F8C001102204F124018C351EF034
:1054700041FA287E40F001002876287820F00100CB
:1054800005F88C0900E016B1022F04D02CE095F845
:105490008C00C00726D0D5F8BC1119B395F8872029
:1054A000087C62F387000874E27FD5F8BC1162F3D0
:1054B00041000874D5F8BC1166F3000008748EB181
:1054C000D5F8BC01102204F124018C351EF012FA2B
:1054D000287840F0010005F8180B287820F001002A
:1054E00005F8A409022F44D05FF0000000EB400053
:1054F00005EBC00090F88C00800709D595F8800076
:10550000D5F8C421400805F181011032FDF784FF70
:1055100005208DF8000095F888006A4600F0030029
:105520008DF8010095F88C108DF8021095F8A40004
:105530008DF803002146504601F038FA20782528DE
:1055400005D0212807D0FFDF2078222803D9222187
:105550002046FDF7F8FDA07F00F0030001280AD0E7
:10556000002150460AF0C6FF00283FF438AEFFDFA6
:1055700029E60120BAE70121F3E7716881F801808B
:1055800021E6FFDF1FE670B5684C0025103C04F8EB
:105590005C5F65600CF0BBFA6449A1F1100003F098
:1055A00037FE04F82C5C0620607260487C30206175
:1055B0005030A0611030E06170BD70B50D46FDF750
:1055C00090FD040000D1FFDF4FF4E87128461EF083
:1055D00032FA56485430686104F124002861A07FF3
:1055E00000F00300012809D05FF0020105F59A7070
:1055F0000CF08EFA002800D0FFDF70BD0121F5E726
:105600000A46014602F59A700CF0A2BA70B505463A
:10561000406886B001780A2906D00D2933D00E29BA
:105620002FD0FFDF06B070BD46883046FDF759FD2C
:10563000040000D1FFDF20782128F3D028281BD1D7
:10564000686802210C3001F0A6F9A8B16868082149
:10565000001D01F0A0F978B104F12401304609F0F1
:10566000AEFF03F04FFC00B1FFDF06B02046BDE8FF
:1056700070402921FDF767BD06B0BDE8704003F01A
:105680000EBE01218171686886883046FDF729FDCC
:10569000040000D1FFDFA07F00F00301022902D146
:1056A00020F01000A077207821280AD0686881793E
:1056B00009B1807880B1A07F00F0030002285ED09D
:1056C000FFDFA07F00F003000228ABD1FDF714FF3D
:1056D0000028A7D0FFDFA5E703F0E1FDE07FC107C9
:1056E00028D0800705D594F8200000F01F0010286E
:1056F0001ED0052084F82300207829281CD02428D7
:10570000DFD1314605200EF0E5F922212046FDF7D4
:105710001AFDA07F00F0030001282ED000213046A2
:105720000AF0E8FE0028CCD0FFDFCAE73C020020E8
:105730000620DFE70420DDE7A07F00F0030001285A
:1057400006D0002130460AF0C3FE050003D101E077
:105750000121F7E7FFDF25212046FDF7F4FC0F20AC
:105760008DF80000694605F59A700CF0E8F90228FA
:10577000A7D00028A5D0FFDFA3E70121CFE703F0E2
:105780008EFD9EE72DE9F0438BB09946154688467D
:105790000646FDF7A6FC04004FD0207822284CD303
:1057A00023284AD0E07FC00647D4A07F00F0030042
:1057B000012806D0002130460AF08AFE070002D0F8
:1057C0000CE00121F7E7A07F00F00300012805D1DC
:1057D0000121002230460AF072FE074601AB02AA00
:1057E00003A93846FFF710FC039800B9FFDF4FB15B
:1057F000039807F59A7787612078222806D0242815
:1058000004D007E003990020886103E025212046A9
:10581000FDF799FC03980B21417046628580C0E931
:105820000289029901610199416104A90CF0A2F970
:10583000022802D0002800D0FFDF0BB0BDE8F083C3
:1058400070B586B00546FDF74CFC017822291CD9BD
:10585000807F00F00300012806D0002128460AF0CE
:1058600037FE04002FD101E00121F7E7FFDF2AE036
:10587000B4F8620004F1660630440178427829B138
:1058800021462846FFF7F3FBB0B9CBE6ADF804207C
:105890000921284602AB04F044FB03900028F4D011
:1058A00011208DF80000694604F59A700CF047F954
:1058B000022801D000B1FFDF02231022314604F19B
:1058C00062000AF0C0FCB4F864000028D0D1A9E658
:1058D00010B586B00446FDF704FC0178222919D9D9
:1058E000807F00F00300012806D0002120460AF046
:1058F000EFFD040003D101E00121F7E7FFDF1220F3
:105900008DF80000694604F59A700CF018F900282B
:1059100000D0FFDF06B010BD2DE9F05F05460C4654
:1059200000270078904601093E46BA4604F1080B6C
:1059300002297CD0072902D00A2909D142E06868EF
:1059400001780A2905D00D292CD00E292AD0FFDF95
:10595000B2E114271C26002C6AD04088A080FDF7F5
:10596000C0FB5FEA000900D1FFDF99F817005A4633
:10597000400809F11801FDF74FFD68688089208211
:1059800069684868C4F812008868C4F81600A07EE8
:1059900020F0060040F00100A07699F81E0040F0CB
:1059A00040014DE01A270A26002CD5D08088A0801F
:1059B000FDF797FB050000D1FFDF59462846FFF7AA
:1059C000F4FA79E10CB1A88BA080287A0D287CD05C
:1059D00006DC01287AD0022808D0032804D135E05B
:1059E0000F2874D0102873D0FFDF65E11E27092629
:1059F000002CB1D0A088FDF774FB5FEA000900D14C
:105A0000FFDF287B00F003000128207A1BD020F064
:105A100001002072297B890861F341002072297BF3
:105A2000C90861F382002072297B090901E038E18D
:105A3000EBE061F3C300207299F81E0040F0800192
:105A400089F81E1038E140F00100E2E713270D2627
:105A5000002CAAD0A088FDF744FB8146807F00F08F
:105A60000300012806D00021A0880AF031FD0500BE
:105A700003D101E00121F7E7FFDF99F81E0000F0F4
:105A80000302012A59D0E86F817801F0030101294E
:105A9000217A54D021F00101217283789B0863F3AD
:105AA000410121728378DB0863F3820121728378DC
:105AB0001B0963F3C3012172037863F3061121729A
:105AC000437863F3C711217203E060E0A6E08DE044
:105AD0009EE084F809A0C178A172012A32D04279EF
:105AE000E17A62F30001E1724279520862F3410106
:105AF000E1724279920862F38201E1724279D2083E
:105B000062F3C301E1720279217B62F30001217328
:105B10000279520862F3410121730279920862F31B
:105B2000820121730079C00860F3C301217399F8E1
:105B30000000232859D9262168E0A86FA4E741F086
:105B40000101A9E70279E17A62F30001E1720279C9
:105B5000520862F34101E1720279920862F3820114
:105B6000E1720279D20862F3C301E1724279217BCA
:105B700062F3000121734279520862F341012173FB
:105B80004279920862F3820121734079CBE71827AA
:105B90001026D4B3A088FDF7A4FA8346807F00F0D6
:105BA0000300012807D00021A0880AF091FC5FEAD9
:105BB000000903D101E00121F6E7FFDFE868A060FA
:105BC00099F8000040F0040189F8001099F80100EC
:105BD000800708D5012020739BF8000023286BD98B
:105BE000272158464FE084F80CA065E015270F26C2
:105BF0005CB1A088FDF775FA814606225946E8682F
:105C000008F0E0F80120A0739BE03FE048463AE04E
:105C100016270926D4B3287B20724DE0287B19274C
:105C20000E269CB3C4F808A0A4F80CA0012807D045
:105C3000022805D0032805D0042803D0FFDF0DE09B
:105C4000207207E0697B042801F00F0141F0800118
:105C500021721CD0607A20F003006072A088FDF7EA
:105C600040FA05460078212826D0232800D0FFDFFF
:105C7000A87F00F00300012811D00021A0880AF0BD
:105C800039FC22212846FDF75EFA15E004E0607A2F
:105C900020F00300401CE0E7A8F8006011E00121BB
:105CA000ECE70CB16888A080287A03282BD0042860
:105CB0000AD005284BD0FFDFA8F800600CB1278080
:105CC00066800020BDE8F09F15270F26002CE3D04A
:105CD000A088FDF706FA807F00F00300012806D0B7
:105CE0000021A0880AF0F4FB050003D101E00121A6
:105CF000F7E7FFDFD5F821000622594608F062F8E1
:105D000084F80EA0D8E717270926002CC4D0A08855
:105D1000FDF7E7F98146807F00F00300012806D0F7
:105D20000021A0880AF0D4FB050003D101E0012185
:105D3000F7E7FFDF6878800701D5022000E0012047
:105D4000207299F800002328B6D927215EE7192789
:105D50000E26002CA0D0A088FDF7C3F95FEA000949
:105D600000D1FFDFC4F808A0A4F80CA084F808A0B4
:105D7000A07A40F00300A07299F81F1061F382002E
:105D8000A07299F81F10C1F34002114205D099F892
:105D9000201001F01F0110292CD020F00800A07263
:105DA00099F81F004108607A61F3C3006072697A54
:105DB00001F003010129A5D140F00400607299F8B7
:105DC0001E00E97A00F00300012816D0607B61F321
:105DD00000006073AA7A217B62F300012173EA7AE2
:105DE000520862F341006073A87A400860F34101F1
:105DF000217361E740F00800D1E7207B61F30000E8
:105E00002073AA7A617B62F300016173EA7A520817
:105E100062F341002073A87A400860F34101617386
:105E20004AE710B5FE4C30B10146102204F12000C3
:105E30001DF060FD012084F8300010BD10B504464F
:105E4000FFF73DF8F64920461022BDE8104020310A
:105E50001DF050BD70B5F24D06004FF0000413D098
:105E60000DF084FE08B110240CE00621304607F046
:105E700090FF411C05D028665FF0010085F85C00AA
:105E800000E00724204670BD0020F7E7007810F0FE
:105E90000F0204D0012A05D0022A0CD110E000091B
:105EA00009D10AE00009012807D0022805D00328FB
:105EB00003D0042801D007207047087000207047E5
:105EC0000620704705282AD2DFE800F003070F17E5
:105ED0001F00087820F0FF001EE0087820F00F0077
:105EE000401C20F0F000103016E0087820F00F0081
:105EF000401C20F0F00020300EE0087820F00F0069
:105F0000401C20F0F000303006E0087820F00F0050
:105F1000401C20F0F000403008700020704707203F
:105F200070472DE9F041804688B00D4600270846AD
:105F30000DF069FEA8B94046FDF7D3F8040003D080
:105F40002078222815D104E043F2020008B0BDE811
:105F5000F08145B9A07F010603D500F003000228B7
:105F600001D01020F2E7A07FC10601D4010702D5BD
:105F70000DB10820EAE7E17FC90601D50D20E5E76C
:105F800000F00300022805D125B12846FEF70AFFDC
:105F90000700DBD1A07F00F00300012806D000211C
:105FA00040460AF095FA060002D00DE00121F7E71D
:105FB000A07F00F0030001280CD000210022404601
:105FC0000AF07DFA060007D0A07F00F00300022847
:105FD00004D009E00121F1E70420B7E725B12A4602
:105FE00031462046FEF702FF07AB1A4669463046A7
:105FF000FFF70AF8009800B9FFDF00990C204870FD
:1060000006F59A70C1F82480486100200881A07FBD
:1060100000F00300012828D0EDB302200871301DE4
:1060200088613078400908777078C0F3400048777D
:10603000287800F00102887F62F301008877E27F10
:1060400062F382008877E27F520862F3C3008877A8
:10605000727862F304108877A878C87701F121027A
:1060600028462031FEF7E2FE22E001200871287860
:1060700000F00102087E62F3010008762A785208D7
:1060800062F3820008762A78920862F3C3000876E9
:106090002A78D20800E007E062F304100876242191
:1060A0002046FDF750F80BE0032008710520087624
:1060B00025212046FDF747F8A07F20F08000A0773B
:1060C00001A900980BF056FD022801D000B1FFDFB6
:1060D00038463BE72DE9FF4F524A0D4699B09A46A4
:1060E00007CA14AB002783E807001998FCF7F9FFEB
:1060F000060006D03078262806D008201DB0BDE85E
:10610000F08F43F20200F9E7B07F00F00309B9F124
:10611000010F03D0B9F1020F07D008E03DB91B9879
:10612000FEF740FE0028E9D101E01B9880BBB07F5C
:1061300000F00300012806D0002119980AF0C8F9E0
:10614000040003D101E00121F7E7FFDF852D28D00E
:1061500007DCF5B1812D1ED0822D1ED0832D08D1F4
:106160001DE0862D1FD0882D1FD0892D1FD08A2D90
:106170001FD00F2020710F281DD003F08DF8E0B143
:1061800001208DF83400201D0E902079B8B160E117
:1061900011E00020EEE70120ECE70220EAE703200F
:1061A000E8E70520E6E70620E4E70820E2E7092023
:1061B000E0E70A20DEE70720A0E711209EE7B9F11B
:1061C000010F17D0D4E91E50804602200190012013
:1061D0000090A87898F80210C0F3C000C1F3C00185
:1061E00008405FEA000B63D050460DF0BFFC00286A
:1061F00072D133E0D4E91E85012001900220009085
:10620000214630461B9AFEF7F1FD1B98007800F0FE
:106210000101A87861F30100A870F17F04E000009B
:106220002C020020B43D020061F38200A870F17FCF
:10623000490861F3C300A870617861F30410A87085
:106240002078400928706078C0F3400068701B987F
:106250008078E870002068712871BAE7DAF80C00DD
